:100000000C943F010C9470010C9470010C947001DD
:100010000C9470010C9470010C9470010C9470019C
:100020000C9470010C9470010C9470010C9470018C
:100030000C9470010C9470010C9470010C9470017C
:100040000C9470010C9470010C9470010C9470016C
:100050000C9470010C9470010C9470010C9429059F
:100060000C9470010C9401040C9437040C947001EE
:100070000C9470010C9470010C9470010C9470013C
:100080000C9470010C9470010C9470010C9470012C
:100090000C9470010C9470010C9470010C9470011C
:1000A0000C9470010C9470010C9470010C9470010C
:1000B0000C9470010C9470010C9470010C947001FC
:1000C0000C9470010C9470010C9470010C947001EC
:1000D0000C9470010C9470010C9470010C947001DC
:1000E0000C947001E301E601D501D901DF011D0285
:1000F000EA01EE01F401F801FC01020206020A0223
:100100001D021002140218020C94D9010C94EE0185
:100110000C9414020C9410020C94EA010C94F80153
:100120000C94BE040C941D020C948D020C94F401EA
:100130000C943A030C948C010C9418020C940A024F
:100140000C9498020C94E3010C9406020C940202A5
:100150000C94BA020C9461040C94E6010C946B04A8
:100160000C94DF010C94D5010C94FC010C94180341
:100170000C94A60200000A0B02090C0D0E080703DE
:10018000040100000000000000000000000000006A
:10019000000000000000000000000000000000005F
:1001A000121110000000000000000000000000001C
:1001B00000000000000000000000010210202008E4
:1001C00008102040102040800201020108040201B2
:1001D0000102040810204080804020100804020121
:1001E000800402018040201008040201080402017A
:1001F0000102040810204080010204081020408001
:1002000005050505070508080808020202020A0A92
:1002100008080404040401010101010101010303B0
:10022000030303030303040707070C0C0C0C0C0C5B
:100230000C0C0202020206060606060606060B0B58
:100240000B0B0B0B0B0B00002200250028002B00D2
:100250002E003100340002010000050108010B01ED
:1002600000002100240027002A002D003000330068
:1002700001010000040107010A018C016B04112433
:100280001FBECFEFD1E2DEBFCDBF00E00CBF12E05A
:10029000A0E0B2E0EAE9FEE000E00BBF02C0079098
:1002A0000D92A633B107D9F722E0A6E3B2E001C070
:1002B0001D92A63EB207E1F712E0CEE7D2E000E0E1
:1002C00006C022970109FE010BBF0E94FD05CA3737
:1002D000D10780E00807A9F70E94AF040C944B07F0
:1002E0000C94000026E040E855E260E070E08CE30A
:1002F00092E00E949F0366E072E08CE392E00E942D
:10030000170586E392E00E94AD0163E172E08CE3A1
:1003100092E00C94170508950F930AE02DE04CE04D
:1003200061E086E392E00E9497010F9108950F9398
:10033000CF93DF93EC016A834B832C830D8388E199
:10034000689FB001112482E090E00E940106998329
:100350008883DF91CF910F910895CF93DF93EC01C4
:1003600088819981892B91F061E08B810E941E0226
:1003700061E08C810E941E0261E08D810E941E025C
:1003800060E08D810E94570281E001C080E0DF9132
:10039000CF91089590E0FC013197E231F10508F02A
:1003A0004CC0EE58FF4F0C94F705809180008F777A
:1003B00003C0809180008F7D80938000089580919C
:1003C0008000877FF9CF84B58F7702C084B58F7D99
:1003D00084BD08958091B0008F7703C08091B000F4
:1003E0008F7D8093B0000895809190008F7707C033
:1003F000809190008F7D03C080919000877F8093D3
:10040000900008958091A0008F7707C08091A00090
:100410008F7D03C08091A000877F8093A000089506
:10042000809120018F7707C0809120018F7D03C0CC
:1004300080912001877F809320010895CF93DF93DF
:1004400090E0FC01E654FE4F2491FC01E050FE4F89
:100450008491882349F190E0880F991FFC01E05AAC
:10046000FD4FA591B4918A5B9D4FFC01C591D4913C
:100470009FB7611108C0F8948C91209582238C93CA
:10048000888182230AC0623051F4F8948C91322F13
:10049000309583238C938881822B888304C0F894C1
:1004A0008C91822B8C939FBFDF91CF9108950F93F6
:1004B0001F93CF93DF931F92CDB7DEB7282F30E085
:1004C000F901EC58FE4F8491F901E654FE4F149166
:1004D000F901E050FE4F04910023C9F0882321F078
:1004E00069830E94CA016981E02FF0E0EE0FFF1FCF
:1004F000EA5BFD4FA591B4919FB7F8948C9161117F
:1005000003C01095812301C0812B8C939FBF0F9056
:10051000DF91CF911F910F910895FC01818D228D64
:1005200090E0805C9F4F821B91098F7399270895FB
:10053000FC01918D828D981731F0828DE80FF11DAD
:10054000858D90E008958FEF9FEF0895FC01918DC8
:10055000828D981761F0828DDF01A80FB11D5D9625
:100560008C91928D9F5F9F73928F90E008958FEF93
:100570009FEF089581E694E0892B41F080E090E0C0
:10058000892B21F00E946104811125C080E090E058
:10059000892B41F080E090E0892B21F00E9400003F
:1005A00081111CC080E090E0892B41F080E090E058
:1005B000892B21F00E940000811113C080E090E09F
:1005C000892BA1F080E090E0892B81F00E9400004F
:1005D00081110AC008950E940000D8CF0E94000037
:1005E000E1CF0E940000EACF0C9400000895FC01C6
:1005F000848DDF01A80FB11DA35ABF4F2C91848DAC
:1006000090E001968F739927848FA689B7892C93E0
:10061000A089B1898C9180648C93938D848D98137B
:1006200006C00288F389E02D80818F7D8083089544
:10063000CF93DF93EC01888D8823C9F0EA89FB8989
:10064000808185FD05C0A889B9898C9186FD0FC080
:100650000FB607FCF5CF808185FFF2CFA889B98955
:100660008C9185FFEDCFCE010E94F702E7CFDF919D
:10067000CF910895CF92DF92FF920F931F93CF9364
:10068000DF931F92CDB7DEB76C01DC015B969C91C6
:100690005B975C968C915C97981307C05096ED9190
:1006A000FC915197808185FD32C0F601038D10E0E9
:1006B0000F5F1F4F0F731127F02EF601848DF81274
:1006C00011C00FB607FCF9CFD6015096ED91FC9101
:1006D0005197808185FFF1CFC60169830E94F7029F
:1006E0006981EBCF838DE80FF11DE35AFF4F6083E3
:1006F000D6015B960C935B975296ED91FC915397C4
:1007000080818062808381E058968C930DC0D601F1
:100710005696ED91FC91579760835096ED91FC9120
:10072000519780818064808381E090E00F90DF9119
:10073000CF911F910F91FF90DF90CF900895BF92BE
:10074000CF92DF92EF92FF92CF93DF93EC016A0199
:100750007B01B22EE889F98982E08083411581EE20
:10076000580761057105A1F060E079E08DE390E044
:10077000A70196010E94D50521503109410951096F
:100780005695479537952795211580E1380798F0BC
:10079000E889F989108260E874E88EE190E0A701A9
:1007A00096010E94D50521503109410951095695FC
:1007B000479537952795EC85FD853083EE85FF8538
:1007C0002083188EEC89FD89B082EA89FB898081BB
:1007D00080618083EA89FB89808188608083EA89DF
:1007E000FB89808180688083EA89FB8980818F7D95
:1007F0008083DF91CF91FF90EF90DF90CF90BF90FB
:1008000008951F920F920FB60F9211240BB60F92FC
:100810002F938F939F93EF93FF93E0914C02F0916E
:100820004D028081E0915202F091530282FD12C08C
:100830009081809155028F5F8F73209156028217AD
:1008400051F0E0915502F0E0E45CFD4F958F80930C
:10085000550201C08081FF91EF919F918F912F915F
:100860000F900BBE0F900FBE0F901F9018951F9208
:100870000F920FB60F9211240BB60F922F933F9346
:100880004F935F936F937F938F939F93AF93BF9398
:10089000EF93FF938CE392E00E94F702FF91EF91B8
:1008A000BF91AF919F918F917F916F915F914F9188
:1008B0003F912F910F900BBE0F900FBE0F901F9086
:1008C00018958CE392E00E948D0221E0892B09F4B7
:1008D00020E0822F089510923F0210923E0288EE8F
:1008E00093E0A0E0B0E08093400290934102A09397
:1008F0004202B093430289E292E090933D028093DA
:100900003C0285EC90E0909349028093480284EC8D
:1009100090E090934B0280934A0280EC90E0909399
:100920004D0280934C0281EC90E090934F028093B3
:100930004E0282EC90E0909351028093500286EC3C
:1009400090E09093530280935202109255021092BD
:1009500056021092570210925802089508950E946C
:1009600073050E94AE040E947201CAEBD2E00E949D
:100970008B012097E1F30E94BA02F9CFCF92DF9268
:10098000EF92FF920F931F93CF93DF936C017A0145
:10099000EB01E60EF71E00E010E0CE15DF0561F07A
:1009A0006991D601ED91FC910190F081E02DC60195
:1009B0001995080F191FF1CFC801DF91CF911F9131
:1009C0000F91FF90EF90DF90CF9008956115710522
:1009D00081F0DB010D900020E9F7AD014150510994
:1009E000461B570BDC01ED91FC910280F381E02D59
:1009F000199480E090E00895DC01ED91FC91019064
:100A0000F081E02D19940F931F93CF93DF93EC01A6
:100A10006DE00E94FC048C016AE0CE010E94FC049F
:100A2000800F911FDF91CF911F910F9108950F9328
:100A30001F93CF93DF93EC010E94E6048C01CE015B
:100A40000E940305800F911FDF91CF911F910F919D
:100A500008951F920F920FB60F9211242F933F9378
:100A60008F939F93AF93BF938091DA029091DB02B3
:100A7000A091DC02B091DD023091D90223E0230F76
:100A80002D3720F40196A11DB11D05C026E8230FC6
:100A90000296A11DB11D2093D9028093DA02909392
:100AA000DB02A093DC02B093DD028091DE02909124
:100AB000DF02A091E002B091E1020196A11DB11DFB
:100AC0008093DE029093DF02A093E002B093E102F4
:100AD000BF91AF919F918F913F912F910F900FBE3A
:100AE0000F901F901895789484B5826084BD84B56A
:100AF000816084BD85B5826085BD85B5816085BD19
:100B0000EEE6F0E0808181608083E1E8F0E0108231
:100B1000808182608083808181608083E0E8F0E072
:100B2000808181608083E1EBF0E08081846080835C
:100B3000E0EBF0E0808181608083E1E9F0E080819A
:100B400082608083808181608083E0E9F0E0808141
:100B500081608083E1EAF0E080818260808380812F
:100B600081608083E0EAF0E0808181608083E1E25F
:100B7000F1E0808182608083808181608083E0E217
:100B8000F1E0808181608083EAE7F0E08081846029
:100B90008083808182608083808181608083808186
:100BA000806880831092C1000895A1E21A2EAA1BCA
:100BB000BB1BFD010DC0AA1FBB1FEE1FFF1FA2170D
:100BC000B307E407F50720F0A21BB30BE40BF50B0A
:100BD000661F771F881F991F1A9469F76095709593
:100BE000809590959B01AC01BD01CF010895EE0F5A
:100BF000FF1F0590F491E02D19940790F691E02DD8
:100C000019940F931F93CF93DF93869F8001879F43
:100C1000100D969F100D1124C8010E941D06EC01B5
:100C2000009729F0A80160E070E00E944407CE011F
:100C3000DF91CF911F910F910895CF93DF93823071
:100C4000910510F482E090E0E091E402F091E50279
:100C500020E030E0A0E0B0E0309739F140815181F0
:100C600048175907B8F04817590771F482819381E2
:100C7000109729F013969C938E9312972CC0909303
:100C8000E5028093E40227C02115310531F04217B7
:100C9000530718F0A901DB0101C0EF019A01BD0162
:100CA000DF010280F381E02DD7CF21153105F9F066
:100CB000281B390B2430310580F48A819B81611512
:100CC000710521F0FB019383828304C09093E502B8
:100CD0008093E402FE01329644C0FE01E20FF31F4E
:100CE0008193919322503109398328833AC020910E
:100CF000E2023091E302232B41F420910202309171
:100D000003023093E3022093E2022091000230912B
:100D100001022115310541F42DB73EB7409104027F
:100D200050910502241B350BE091E202F091E302A1
:100D3000E217F307A0F42E1B3F0B2817390778F0B2
:100D4000AC014E5F5F4F2417350748F04E0F5F1F11
:100D50005093E3024093E2028193919302C0E0E05A
:100D6000F0E0CF01DF91CF910895CF93DF9300970B
:100D700009F487C0FC01329713821282C091E40209
:100D8000D091E502209781F420813181280F391F0D
:100D90008091E2029091E3028217930779F5F09334
:100DA000E302E093E2026DC0DE0120E030E0AE1726
:100DB000BF0750F412964D915C9113979D01411518
:100DC000510509F1DA01F3CFB383A2834081518148
:100DD000840F951F8A179B0771F48D919C91119731
:100DE000840F951F02969183808312968D919C911A
:100DF0001397938382832115310529F4F093E5023B
:100E0000E093E4023EC0D9011396FC93EE9312974F
:100E10004D915D91A40FB51FEA17FB0779F480810E
:100E20009181840F951F0296D90111969C938E9300
:100E30008281938113969C938E931297E0E0F0E069
:100E40008A819B81009719F0FE01EC01F9CFCE0158
:100E5000029628813981820F931F2091E2023091FE
:100E6000E3022817390769F4309729F41092E50254
:100E70001092E40202C013821282D093E302C09364
:100E8000E202DF91CF910895DC0101C06D934150E2
:0A0E90005040E0F70895F894FFCFFA
:100E9A000000E6028000544C43353937342074652B
:100EAA0073740045696E6761626520457277617285
:100EBA007465743A00000000003A03BE048D02A66D
:060ECA000298021803006B
:00000001FF
