:100000000C946F000C9497000C9497000C9497003C
:100010000C9497000C9497000C9497000C94970004
:100020000C9497000C9497000C9497000C949700F4
:100030000C9497000C9497000C9497000C949700E4
:100040000C94FA0A0C9497000C945C080C948E089B
:100050000C9497000C9497000C9497000C949700C4
:100060000C9497000C9497005B0292025D02600270
:100070006302660269026C026F0272027502780204
:100080007B027E028102840200000008000201005F
:100090000003040700000000000000000102040843
:1000A00010204080010204081020010204081020E2
:1000B000040404040404040402020202020203030E
:1000C0000303030300000000250028002B000000AC
:1000D0000000240027002A00DC00BE08F6001124DE
:1000E0001FBECFEFD8E0DEBFCDBF13E0A0E0B1E090
:1000F000EAEDFCE102C005900D92AC3CB107D9F7E6
:1001000025E0ACECB3E001C01D92A731B207E1F7E6
:1001100010E0CCEDD0E004C02297FE010E949F0BBE
:10012000C83DD107C9F70E9402090C94600E0C94D7
:10013000000061E087E00E94AE0660E087E00E9478
:10014000E70685E694E00E94B60285E694E00E9408
:10015000F80261E087E00E94E7068EEC93E00E94DF
:1001600019068EEC93E00E940F0626E040E052EC68
:1001700061E070E08CE694E00E94000866E071E0C7
:100180008CE694E00E946C0968E271E08CE694E0F1
:100190000E946C096AE371E08CE694E00E946C09AD
:1001A0006CE571E08CE694E00E946C0966E071E019
:1001B0008CE694E00C946C09EF920F9382E0E82EA9
:1001C00006E024E045E064E085E694E00E94B901A1
:1001D00082ED93E00E940C034AE050E069E070E099
:1001E0008EEC93E00F91EF900C94E10582ED93E09B
:1001F0000C940D0ACF93DF93D1E08CE694E00E943B
:100200001D07892BB9F0D093CD038CE694E00E94B2
:100210003607C82F682F82ED93E00E94D50ACA30B6
:1002200011F0CD3051F7D093D8031092CC03109237
:10023000CD03E3CFDF91CF910895F8948CE694E05D
:100240000E941D071816190614F40E94FA008091E6
:10025000D803882309F48BC06CE671E08CE694E047
:100260000E944F0982ED93E00E942C03882391F0B5
:1002700060E087E00E94E70685E694E00E94F802CD
:100280008EEC93E00E940F066CE771E08CE694E040
:100290000E946C0982ED93E00E945305811167C0B2
:1002A00082ED93E00E9459038823A1F082ED93E050
:1002B0000E9494034091DA035091DB036091D903CB
:1002C00085E694E00E94390285E694E00E94D2011E
:1002D00061E04AC082ED93E00E941E04882389F009
:1002E00063E871E08CE694E00E944F0982ED93E0B0
:1002F0000E9466046091DC038EEC93E00E94E705A7
:1003000036C082ED93E00E944204882389F06AE8B7
:1003100071E08CE694E00E944F0982ED93E00E9428
:1003200066046091DC038EEC93E00E94FB051FC025
:1003300082ED93E00E94E804882339F061E971E0DE
:100340008CE694E00E946C0912C06CE971E08CE6C6
:1003500094E00E946C096AEB73E082ED93E00E94E6
:10036000910A1092D80360E087E00E94E706789433
:100370000895EF920F93CF93DF93EC016A834B8341
:100380002C830D83EE8280E1689FB001112482E00E
:1003900090E00E94A30B99838883DF91CF910F9106
:1003A000EF9008958F929F92AF92BF92CF92DF927B
:1003B000EF92FF920F931F93CF93DF93EC0160E0D6
:1003C0008D810E94E706AA8080E1A89E5001112439
:1003D000850101501109000F111FC12CD12C882457
:1003E0008394912CCA14DB0461F18BE0E82EF12C8C
:1003F00060E08B810E94E706C4010E2C02C0880FCA
:10040000991F0A94E2F7E881F981E00FF11F20813A
:10041000318182239323892B11F061E001C060E0D8
:100420008C810E94E70661E08B810E94E70681E0F3
:10043000E81AF108E8F68FEFC81AD80A0250110935
:10044000D1CF60E08B810E94E70661E08D810E9440
:10045000E70660E08D81DF91CF911F910F91FF90B2
:10046000EF90DF90CF90BF90AF909F908F900C94C3
:10047000E706DF92EF92FF920F931F93CF93DF93E4
:1004800000D0CDB7DEB77C01FC018281262F30E0A1
:10049000F0E18F9FC0011124821793070CF45CC018
:1004A000062F10E0F8013197E031F10580F5EC5CA2
:1004B000FF4F0C949D0BD12C37C078E0D72E34C061
:1004C0006CE0D62E31C030E1D32E2EC024E1D22EE6
:1004D0002BC098E1D92E28C08CE1D82E25C000E28F
:1004E000D02E22C014E2D12E1FC0B8E2DB2E1CC0D9
:1004F000ACE2DA2E19C0F0E3DF2E16C0E4E3DE2E04
:1005000013C078E3D72E10C06CE3D62E0DC068EB75
:1005100071E08CE694E049835A830E946C0949811A
:100520005A8102C034E0D32E9A01411570E1570779
:1005300010F02FEF3FE0F70190818181E92FF82F34
:10054000ED0DF11DED0DF11D3183208333832283E9
:1005500035832483378326830F900F90DF91CF91CB
:100560001F910F91FF90EF90DF9008950F931F93CD
:10057000CF93DF93EC0188819981892B99F161E018
:100580008B810E94AE0661E08C810E94AE0661E024
:100590008D810E94AE0661E08E810E94AE0660E011
:1005A0008E810E94E70660E08D810E94E70600E2EE
:1005B00011E060E08B810E94E70661E08C810E947F
:1005C000E70660E08B810E94E7060150110989F778
:1005D00061E08D810E94E70660E08D810E94E70660
:1005E00081E001C080E0DF91CF911F910F910895CC
:1005F0001F93CF93DF93EC0111E040E050E0612FB7
:10060000CE010E9439021F5F1131B9F7CE01DF918F
:10061000CF911F910C94D201CF93DF93EC016AEB41
:1006200073E00E947B0A1E821F82198618861B8631
:100630001A861C861D861E861F86188AFE01EF56A6
:10064000FF4FCE0141969183808368E873E1CE012C
:10065000DF91CF910C943E0AEF92FF920F931F937C
:10066000CF93DF938C018AE0E82E82E0F82EC0E081
:10067000D0E0BE01C8010E94E80AF70121917F0184
:10068000FC01808182130DC02196C530D10589F708
:100690006AEB73E0C8010E94910AF801168281E0BA
:1006A00001C080E0DF91CF911F910F91FF90EF90FB
:1006B0000895EF92FF920F931F93CF93DF938C01D6
:1006C0002FECE22E21E0F22EC0E0D0E0BE01C80106
:1006D0000E94E80AF70121917F01FC0180818217C5
:1006E00011F080E01AC02196C330D10579F793ED5F
:1006F000E92E91E0F92EC5E0D0E0BE01C8010E94CC
:10070000E80AF70121917F01FC0180818213E9CF82
:100710002196CA30D10589F781E0DF91CF911F91F1
:100720000F91FF90EF900895AF92BF92CF92DF921A
:10073000EF92FF920F931F93CF93DF93EC018C0105
:100740000F561F4FF801E080F18063E070E00E94D7
:10075000E80AFC018081F7018083F801E080F180E4
:10076000C70101969183808364E070E0CE010E940E
:10077000E80AFC018081F7018183F8018081918181
:100780000196918380833AE0E32EF12CF801C0803A
:10079000D180B701CE010E94E80AFC018081F601F8
:1007A0008083F80180819181019691838083FFEF9E
:1007B000EF1AFF0A8EE0E816F10441F75E01E1E16D
:1007C000AE0EB11CC5010E94CE0D6B017C016C8781
:1007D0007D878E879F8720E137E240E050E00E94CE
:1007E0007B0B2F8340EF58ED249FC001259F900D78
:1007F00011248C0D9D1D998788872AE030E0B70170
:10080000A6018CE694E00E94FB09F801B182A08267
:100810006AEB73E0CE010E94910A1E8280E8F50126
:1008200011928A95E9F7DF91CF911F910F91FF9077
:10083000EF90DF90CF90BF90AF900895EF92FF922E
:100840000F931F93CF93DF937C0109ED11E0C0E07C
:10085000D0E0BE01C7010E94E80AF80121918F0192
:10086000FC018081821306C02196C530D10589F72D
:1008700081E001C080E0DF91CF911F910F91FF9047
:10088000EF900895EF92FF920F931F93CF93DF9312
:100890007C010FED11E0C0E0D0E0BE01C7010E9475
:1008A000E80AF80121918F01FC018081821306C0C2
:1008B0002196C530D10589F781E001C080E0DF9144
:1008C000CF911F910F91FF90EF900895CF92DF92FB
:1008D000EF92FF920F931F93CF93DF93EC0145E0CC
:1008E000E42EF12C8C010F561F4FF801C080D180EF
:1008F000B701CE010E94E80AFC018081F6018083E5
:10090000F80180819181019691838083FFEFEF1A36
:10091000FF0A88E0E816F10441F77E01E1E1EE0EFE
:10092000F11CC7010E94CE0D6F3F710509F018F44C
:100930007B876A8704C08FEF90E09B878A87F801E6
:10094000F182E0826AEB73E0CE010E94910A1E827E
:1009500080E8F70111928A95E9F7DF91CF911F9115
:100960000F91FF90EF90DF90CF9008956430C1F029
:1009700028F4623049F0633069F008956630E1F0A0
:10098000A8F06730F9F00895413011F45A9A0895AB
:100990005A980895413011F45B9A08955B98089530
:1009A000413011F45C9A08955C980895413011F437
:1009B0005D9A08955D980895413011F45E9A089506
:1009C0005E980895413011F45F9A08955F980895F4
:1009D000BF92CF92DF92EF92FF920F931F93CF932C
:1009E000DF93EC0155EEE52E51E0F52E00E010E02E
:1009F000B801CE010E94E80AF70121917F01FC01B4
:100A00008081821711F080E044C00F5F1F4F0630D5
:100A1000110571F77E01F1E9EF0EF11CF70100817C
:100A2000118166E070E0CE010E94E80AFC0180813D
:100A3000F80180838E010F5E1F4FC8010E94B00D28
:100A4000B82EF701C080D18067E070E0CE010E942F
:100A5000E80AFC018081F6018083C8010E94B00D84
:100A6000FAE0FB1580F28B3070F6482F6B2DCE012B
:100A70000E94B604F701118300836AEB73E0CE0194
:100A80000E94910A1E8280E8F80111928A95E9F786
:100A900081E0DF91CF911F910F91FF90EF90DF9058
:100AA000CF90BF900895EF92FF920F931F93CF9333
:100AB000DF93EC016CEEE62E61E0F62E00E010E034
:100AC000B801CE010E94E80AF70121917F01FC01E3
:100AD000808182136EC00F5F1F4F0430110581F7B4
:100AE0006AEB73E08CE694E00E946C0961EF71E0C0
:100AF0008CE694E00E946C0966E072E08CE694E07B
:100B00000E946C0960E172E08CE694E00E946C093E
:100B100063E272E08CE694E00E946C0960E372E0AC
:100B20008CE694E00E946C096DE372E08CE694E040
:100B30000E946C096AEB73E08CE694E00E946C09F9
:100B40006AE472E08CE694E00E946C096DE572E064
:100B50008CE694E00E946C0964E972E08CE694E013
:100B60000E946C096CED72E08CE694E00E946C09C6
:100B700067E273E08CE694E00E946C0964EA73E03B
:100B80008CE694E00E946C098E010F5E1F4FFE01FF
:100B9000EF56FF4F118300836AEB73E0CE010E9492
:100BA000910A1E8280E8F80111928A95E9F781E0A6
:100BB00001C080E0DF91CF911F910F91FF90EF90E6
:100BC0000895FC0171836083538342830895CF931A
:100BD000C62F4AE050E08CE694E00E94E40969EBFD
:100BE00073E08CE694E00E944F096C2F70E089E07E
:100BF000CF910C942606CF93C62F4AE050E08CE6A6
:100C000094E00E94E40969EB73E08CE694E00E94B2
:100C10004F096C2F70E08AE0CF910C94260660E0BB
:100C200070E089E00E94260660E070E08AE00C94A3
:100C30002606CF93DF93EC0161E088810E94AE0627
:100C400061E08A81DF91CF910C94AE061F93CF9320
:100C5000DF93182FEB0161E00E94AE06209711F49C
:100C600060E004C0CF3FD10539F461E0812FDF910E
:100C7000CF911F910C94E706E12FF0E0E857FF4F6A
:100C8000E491E330F9F048F4E130B9F0E230A1F555
:100C900084B5806284BDC8BD34C0E730E9F0E83077
:100CA00019F1E43049F580918000806280938000E2
:100CB000D0938B00C0938A0024C084B5806884BD23
:100CC000C7BD1FC080918000806880938000D09352
:100CD0008900C093880015C08091B000806880931F
:100CE000B000C093B3000DC08091B00080628093CB
:100CF000B000C093B40005C0C038D1050CF0B5CF2A
:100D0000AFCFDF91CF911F910895833081F028F408
:100D1000813099F08230A1F008958730A9F08830B1
:100D2000B9F08430D1F4809180008F7D03C0809130
:100D300080008F7780938000089584B58F7702C0FC
:100D400084B58F7D84BD08958091B0008F7703C0F6
:100D50008091B0008F7D8093B0000895CF93DF9392
:100D600090E0FC01E456FF4F2491FC01E055FF4F59
:100D70008491882349F190E0880F991FFC01E25388
:100D8000FF4FA591B4918C539F4FFC01C591D49115
:100D90009FB7611108C0F8948C91209582238C93A1
:100DA000888182230AC0623051F4F8948C91322FEA
:100DB000309583238C938881822B888304C0F89498
:100DC0008C91822B8C939FBFDF91CF9108950F93CD
:100DD0001F93CF93DF931F92CDB7DEB7282F30E05C
:100DE000F901E857FF4F8491F901E456FF4F149140
:100DF000F901E055FF4F04910023C9F0882321F049
:100E000069830E9485066981E02FF0E0EE0FFF1FE5
:100E1000EC53FF4FA591B4919FB7F8948C91611159
:100E200003C01095812301C0812B8C939FBF0F902D
:100E3000DF91CF911F910F910895FC01818D228D3B
:100E400090E0805C9F4F821B91098F7399270895D2
:100E5000FC01918D828D981731F0828DE80FF11D84
:100E6000858D90E008958FEF9FEF0895FC01918D9F
:100E7000828D981761F0828DDF01A80FB11D5D96FC
:100E80008C91928D9F5F9F73928F90E008958FEF6A
:100E90009FEF089584EB98E0892B49F08AEF90E06A
:100EA000892B29F00E94B40881110C94FA0008954E
:100EB000FC01848DDF01A80FB11DA35ABF4F2C91F7
:100EC000848D90E001968F739927848FA689B789C6
:100ED0002C93A089B1898C9180648C93938D848D9F
:100EE000981306C00288F389E02D80818F7D80836E
:100EF0000895CF93DF93EC01888D8823C9F0EA89A8
:100F0000FB89808185FD05C0A889B9898C9186FD02
:100F10000FC00FB607FCF5CF808185FFF2CFA889FF
:100F2000B9898C9185FFEDCFCE010E945807E7CF9C
:100F3000DF91CF910895CF92DF92FF920F931F938D
:100F4000CF93DF931F92CDB7DEB76C01DC015B96C8
:100F50009C915B975C968C915C97981307C0509618
:100F6000ED91FC915197808185FD32C0F601038D92
:100F700010E00F5F1F4F0F731127F02EF601848DC5
:100F8000F81211C00FB607FCF9CFD6015096ED91BB
:100F9000FC915197808185FFF1CFC60169830E9442
:100FA00058076981EBCF838DE80FF11DE35AFF4F9E
:100FB0006083D6015B960C935B975296ED91FC9102
:100FC000539780818062808381E058968C930DC016
:100FD000D6015696ED91FC91579760835096ED910E
:100FE000FC91519780818064808381E090E00F9034
:100FF000DF91CF911F910F91FF90DF90CF900895D7
:10100000BF92CF92DF92EF92FF92CF93DF93EC01EA
:101010006A017B01B22E60E070E586E490E0A701F2
:1010200096010E947B0B21503109410951095695C7
:10103000479537952795E889F98982E080832115BE
:1010400080E1380798F0E889F989108260E078E259
:1010500083E290E0A70196010E947B0B21503109A9
:10106000410951095695479537952795EC85FD859A
:101070003083EE85FF852083188EEC89FD89B08250
:10108000EA89FB89808180618083EA89FB8980818C
:1010900088608083EA89FB89808180688083EA890F
:1010A000FB8980818F7D8083DF91CF91FF90EF90CE
:1010B000DF90CF90BF9008951F920F920FB60F92BE
:1010C00011242F938F939F93EF93FF93E0917C04D0
:1010D000F0917D048081E0918204F091830482FD8F
:1010E00012C09081809185048F5F8F732091860458
:1010F000821751F0E0918504F0E0E459FB4F958FA1
:101100008093850401C08081FF91EF919F918F9121
:101110002F910F900FBE0F901F9018951F920F9256
:101120000FB60F9211242F933F934F935F936F93BA
:101130007F938F939F93AF93BF93EF93FF938CE62F
:1011400094E00E945807FF91EF91BF91AF919F915A
:101150008F917F916F915F914F913F912F910F9060
:101160000FBE0F901F9018958CE694E00E941D070B
:1011700021E0892B09F420E0822F089510926F045A
:1011800010926E0488EE93E0A0E0B0E080937004CB
:1011900090937104A0937204B09373048FEB93E067
:1011A00090936D0480936C0485EC90E090937904A7
:1011B0008093780484EC90E090937B0480937A048D
:1011C00080EC90E090937D0480937C0481EC90E02F
:1011D00090937F0480937E0482EC90E0909381044E
:1011E0008093800486EC90E0909383048093820443
:1011F000109285041092860410928704109288043D
:10120000089508950E94400B0E9401090E949900D0
:10121000CAE4D7E00E941D012097E1F30E944A072B
:10122000F9CFCF92DF92EF92FF920F931F93CF935C
:10123000DF936C017A01EB01E60EF71E00E010E08F
:10124000CE15DF0561F06991D601ED91FC91019019
:10125000F081E02DC6010995080F191FF1CFC801D3
:10126000DF91CF911F910F91FF90EF90DF90CF9082
:1012700008956115710581F0DB010D900020E9F7FB
:10128000AD0141505109461B570BDC01ED91FC911A
:101290000280F381E02D099480E090E008950C94A1
:1012A0003909DC01ED91FC910190F081E02D099468
:1012B0000F931F93CF93DF93EC016DE00E945109D0
:1012C0008C016AE0CE010E945109800F911FDF91CD
:1012D000CF911F910F9108950F931F93CF93DF9399
:1012E000EC010E9439098C01CE010E945809800F3F
:1012F000911FDF91CF911F910F9108958F929F922F
:10130000AF92BF92CF92DF92EF92FF920F931F9313
:10131000CF93DF93CDB7DEB7A1970FB6F894DEBFBA
:101320000FBECDBF7C01C42EE52FCB01D22E19A25A
:1013300021E02D1510F02AE0D22E8E010F5D1F4FF7
:101340008D2C912CA12CB12C6C2D7E2FA5019401FC
:101350000E947B0B8C2DD29E801911240150110903
:101360008A3014F4805D01C0895CF8018083211506
:1013700031054105510521F0C22EE32FCA01E4CF0A
:10138000B801C7010E943909A1960FB6F894DEBFD3
:101390000FBECDBFDF91CF911F910F91FF90EF90C6
:1013A000DF90CF90BF90AF909F908F9008952115C0
:1013B000310541F4DC01ED91FC910190F081E02DCB
:1013C000642F09940C947E090F931F93CF93DF939E
:1013D000EC019A01462F50E060E070E00E94D709CE
:1013E0008C01CE010E945809800F911FDF91CF918F
:1013F0001F910F9108950F931F93CF93DF93EC01EB
:101400000E94D7098C01CE010E945809800F911FBC
:10141000DF91CF911F910F910895FC0180819181FF
:101420000C94570CCF93DF93EC018881998100973E
:1014300011F00E94570C198218821D821C821B8297
:101440001A82DF91CF9108950F931F93CF93DF936B
:10145000EC018B016F5F7F4F888199810E94E60CC0
:10146000009731F0998388831B830A8381E001C050
:1014700080E0DF91CF911F910F910895CF93DF937B
:10148000EC0188819981892B29F08A819B818617BB
:10149000970760F4CE010E94240A882341F08C81D2
:1014A0009D81892B19F4E881F981108281E0DF9117
:1014B000CF910895EF92FF920F931F93CF93DF93F5
:1014C000EC017B018A01BA010E943E0A811104C02D
:1014D000CE010E94120A07C01D830C83B7018881C8
:1014E00099810E94050ECE01DF91CF911F910F913E
:1014F000FF90EF900895FC011182108213821282F6
:10150000158214826115710559F0FB0101900020CC
:10151000E9F7AF0141505109461B570B0C945A0A89
:101520000895CF93DF93EC016115710561F0FB0124
:1015300001900020E9F7AF0141505109461B570BBC
:101540000E945A0A02C00E94120ACE01DF91CF9176
:101550000895EF92FF920F931F93CF93DF93EC01C7
:101560007B010C811D816115710511F480E016C0AD
:101570004115510591F0040F151FB8010E943E0A54
:101580008823A1F3288139818C819D81B701820F45
:10159000931F0E94050E1D830C8381E0DF91CF9184
:1015A0001F910F91FF90EF900895CF93DF9300D09C
:1015B000CDB7DEB769831A8241E050E0BE016F5FAC
:1015C0007F4F0E94A90A0F900F90DF91CF9108954D
:1015D000FC01848195816817790720F480819181CD
:1015E000009729F41092090589E095E00895860F87
:1015F000971F08951F920F920FB60F9211242F93E9
:101600003F938F939F93AF93BF9380910B059091DE
:101610000C05A0910D05B0910E0530910A0521E74A
:10162000230F2D3728F024EF230F0196A11DB11DA4
:1016300020930A0580930B0590930C05A0930D054C
:10164000B0930E0580910F0590911005A0911105A2
:10165000B09112050196A11DB11D80930F059093C5
:101660001005A0931105B0931205BF91AF919F9102
:101670008F913F912F910F900FBE0F901F90189553
:10168000789484B5826084BD84B5816084BD85B55D
:10169000826085BD85B5816085BDEEE6F0E0808124
:1016A00081608083E1E8F0E0108280818260808345
:1016B000808181608083E0E8F0E0808181608083C8
:1016C000E1EBF0E0808184608083E0EBF0E08081FA
:1016D00081608083EAE7F0E080818460808380819C
:1016E0008260808380818160808380818068808344
:1016F0001092C1000895A1E21A2EAA1BBB1BFD0186
:101700000DC0AA1FBB1FEE1FFF1FA217B307E407E0
:10171000F50720F0A21BB30BE40BF50B661F771F38
:10172000881F991F1A9469F7609570958095909518
:101730009B01AC01BD01CF010895EE0FFF1F059085
:10174000F491E02D09940F931F93CF93DF93869F1D
:101750008001879F100D969F100D1124C8010E94D3
:10176000BF0BEC01009729F0A80160E070E00E9437
:10177000FE0DCE01DF91CF911F910F910895CF9370
:10178000DF938230910510F482E090E0E09115053E
:10179000F091160520E030E0A0E0B0E0309739F19C
:1017A0004081518148175907B8F04817590771F41B
:1017B00082819381109729F013969C938E931297B0
:1017C0002CC0909316058093150527C0211531056F
:1017D00031F04217530718F0A901DB0101C0EF01F6
:1017E0009A01BD01DF010280F381E02DD7CF2115E1
:1017F0003105F9F0281B390B2430310580F48A813A
:101800009B816115710521F0FB019383828304C0E4
:101810009093160580931505FE01329644C0FE0193
:10182000E20FF31F8193919322503109398328836A
:101830003AC02091130530911405232B41F42091D7
:101840000201309103013093140520931305209178
:101850000001309101012115310541F42DB73EB74A
:101860004091040150910501241B350BE0911305B3
:10187000F0911405E217F307A0F42E1B3F0B281775
:10188000390778F0AC014E5F5F4F2417350748F0F9
:101890004E0F5F1F5093140540931305819391934E
:1018A00002C0E0E0F0E0CF01DF91CF910895CF9347
:1018B000DF93009709F487C0FC01329713821282EC
:1018C000C0911505D0911605209781F420813181B2
:1018D000280F391F809113059091140582179307E3
:1018E00079F5F0931405E09313056DC0DE0120E057
:1018F00030E0AE17BF0750F412964D915C911397EC
:101900009D014115510509F1DA01F3CFB383A2839B
:1019100040815181840F951F8A179B0771F48D9127
:101920009C911197840F951F029691838083129644
:101930008D919C911397938382832115310529F40E
:10194000F0931605E09315053EC0D9011396FC935C
:10195000EE9312974D915D91A40FB51FEA17FB0707
:1019600079F480819181840F951F0296D901119697
:101970009C938E938281938113969C938E9312975E
:10198000E0E0F0E08A819B81009719F0FE01EC0114
:10199000F9CFCE01029628813981820F931F2091C1
:1019A0001305309114052817390769F4309729F485
:1019B000109216051092150502C013821282D09360
:1019C0001405C0931305DF91CF910895A0E0B0E016
:1019D000ECEEFCE00C942D0EEC01CB01209719F4F9
:1019E0000E94BF0BB8C0FE01E60FF71F9E012250F8
:1019F0003109E217F30708F4ACC0D9010D911C912D
:101A0000119706171707B8F00530110508F49FC0A5
:101A1000A801445051094617570708F498C00250CE
:101A20001109061B170B019311936D937C93CF0142
:101A30000E94570C8CC05B01A01AB10A4E01800EA7
:101A4000911EA0911505B0911605612C712C60E0D6
:101A500070E0109709F449C0A815B905C9F5ED90D3
:101A6000FC901197670142E0C40ED11CCA14DB043C
:101A700078F147018A189B08640142E0C40ED11C2A
:101A80001296BC9012971396AC91B5E0CB16D10488
:101A900040F0B282A38391828082D9018D939C937E
:101AA00009C00E5F1F4F0E0D1F1DF901118300832A
:101AB000EB2DFA2F6115710531F0DB011396FC93C4
:101AC000EE93129744C0F0931605E09315053FC0BE
:101AD0006D917C9111976616770608F43B01BD0164
:101AE00012960D90BC91A02DB4CF6091130570910A
:101AF000140568157905E9F468167906D0F4409163
:101B00000001509101014115510541F44DB75EB7F7
:101B10006091040170910501461B570BE417F5070E
:101B2000C0F4F0931405E0931305F90191838083C9
:101B30000EC00E94BF0B7C01009759F0A801BE01A6
:101B40000E94F50DCE010E94570CC70104C0CE01C2
:101B500002C080E090E0CDB7DEB7EEE00C94490E15
:101B6000FC0188279927E89421912032E9F3293054
:101B700010F02E30C8F32B3241F02D3239F4689436
:101B800004C00E94210E820F911D219120532A3002
:101B9000C0F31EF4909581959F4F08951F93FC010B
:101BA00099278827BC01E89411911032E9F3193084
:101BB00010F01E30C8F31B3251F01D3249F4689406
:101BC00006C00E940C0E610F711D811D911D1191A7
:101BD00010531A30B0F33EF490958095709561954E
:101BE0007F4F8F4F9F4F1F910895FB01DC0102C073
:101BF00001900D9241505040D8F70895DC0101C08A
:101C00006D9341505040E0F70895FB01DC010190D5
:101C10000D920020E1F70895592F482F372F262FD6
:101C2000660F771F881F991F660F771F881F991FE0
:101C3000620F731F841F951F660F771F881F991FE0
:101C400008957AE0979F902D879F802D910D112404
:101C500008952F923F924F925F926F927F928F9250
:101C60009F92AF92BF92CF92DF92EF92FF920F932B
:101C70001F93CF93DF93CDB7DEB7CA1BDB0B0FB635
:101C8000F894DEBF0FBECDBF09942A8839884888F2
:101C90005F846E847D848C849B84AA84B984C88488
:101CA000DF80EE80FD800C811B81AA81B981CE0F7F
:101CB000D11D0FB6F894DEBF0FBECDBFED01089564
:101CC00010E0CCEDD0E004C0FE010E949F0B2296F4
:0A1CD000CE3DD107C9F7F894FFCF0D
:101CDA000000170580002D2D2D2D2D2D2D2D2D2D9C
:101CEA002D2D2D2D2D2D2D2D2D2D2D2D2D2D2D2D1A
:101CFA002D2D2D2D2D2D2D0052696E67206C6967B3
:101D0A0068742072656164792100547970652027AE
:101D1A0048454C502720666F72206D6F72652069A6
:101D2A006E666F726D6174696F6E2E00496E7075A2
:101D3A00742065787065637465643A00676F74200F
:101D4A00736F6D657468696E673A20002B5265730C
:101D5A006574004E504F4C59200059504F4C592031
:101D6A0000546F67676C652070696E005570732E3A
:101D7A002E20537472696E6720646F65736E2774C0
:101D8A00206D6174636821004368616E6E656C2022
:101D9A006E6F7420617661696C61626C6521004CBA
:101DAA0045440056414C5545004E504F4C59005938
:101DBA00504F4C5900544F47474C450048454C50EA
:101DCA00002A2A2A2A2A20436F6D6D616E647320C5
:101DDA002A2A2A2A2A002831293A524553455400E8
:101DEA002832293A4C4544787856414C55457878FA
:101DFA007878002833293A59504F4C597878780026
:101E0A002834293A4E504F4C597878780028352989
:101E1A003A544F47474C457878002831293A526559
:101E2A0073657420616C6C204C4544730028322918
:101E3A003A536574204C454420312D313620696E61
:101E4A00646976696475616C6C7920776974682055
:101E5A0076616C7565732066726F6D20302D343033
:101E6A0039352E002833293A5475726E206F6E2048
:101E7A0038204C454473207769746820706F6C6110
:101E8A0072697A6174696F6E2066696C7465722E04
:101E9A0020536574204272696768746E6573732093
:101EAA0066726F6D20302D3235352E002834293A6E
:101EBA005475726E206F6E2038204C45447320771B
:101ECA006974686F757420706F6C6172697A617475
:101EDA00696F6E2066696C7465722E205365742072
:101EEA004272696768746E6573732066726F6D20DB
:101EFA00302D3235352E002835293A546F67676CF4
:101F0A00652061206D6963726F20636F6E74726FF2
:101F1A006C6C65722070696E2E2054686520666943
:101F2A007273742076616C7565207365747320749E
:101F3A006865206E756D626572206F6620746865CB
:101F4A002070696E2C20746865207365636F6E64F7
:101F5A0020206973207573656420666F7220484972
:101F6A0047482028312920616E64204C4F57202889
:101F7A0030292E002A2A2A2A2A2A2A2A2A2A2A2AD8
:101F8A002A2A2A2A2A2A2A2A000D00000000009B4F
:0C1F9A000711091D07360728077907000A
:00000001FF
