:100000000C9471000C94F3010C9420020C94990050
:100010000C9499000C9499000C9499000C9483070B
:100020000C949B000C9499000C9499000C949900EA
:100030000C9499000C9499000C9499000C949900DC
:100040000C944D020C9499000C944D050C947F0572
:100050000C9499000C9499000C9499000C949900BC
:100060000C9499000C9499006A09A1096C096F0914
:100070007209750978097B097E0981098409870954
:100080008A098D0990099309000000080002010007
:100090000003040700000000000000000102040843
:1000A00010204080010204081020010204081020E2
:1000B000040404040404040402020202020203030E
:1000C0000303030300000000250028002B000000AC
:1000D0000000240027002A0002000401AF052C06BE
:1000E0001E0111241FBECFEFD8E0DEBFCDBF13E04D
:1000F000A0E0B1E0ECEAF0E202C005900D92A63E6D
:10010000B107D9F725E0A6EEB3E001C01D92A634F1
:10011000B207E1F710E0C0EED0E004C02297FE0184
:100120000E946E0DCA3DD107C9F70E943C060C948F
:1001300049100C9400001F920F920FB60F921124D9
:100140002F938F939F938091E6039091E7038F3FC6
:100150009F4054F01092E7031092E6035F988CE002
:100160008A95F1F700005F9A289A28988091E60313
:100170009091E70301969093E7038093E6039F91A4
:100180008F912F910F900FBE0F901F90189561E0E7
:1001900087E00E949F0360E087E00E94D80326E08A
:1001A00040E052EC61E070E087E994E00E94F104E5
:1001B00081E894E00E94EB0981E894E00E94C5097F
:1001C0006BE071E087E994E00E94A6066DE271E0C1
:1001D00087E994E00E94A6066FE371E087E994E066
:1001E0000E94A60661E671E087E994E00E94A606F7
:1001F0006BE071E087E994E00E94A60664EF71E08D
:1002000080E090E00C94B402EF920F9382E0E82E2D
:1002100006E024E045E061E081E894E00E94CC083B
:100220008EEE93E00E943D0A4AE050E069E070E003
:100230008AEE93E00F91EF900C94120D8EEE93E006
:100240000C94DF07CF93DF93D1E087E994E00E941D
:100250000E04892BB9F0D093E90387E994E00E945A
:100260002704C82F682F8EEE93E00E94A708CA309B
:1002700011F0CD3051F7D093F4031092E8031092AF
:10028000E903E3CFDF91CF910895F89487E994E0F3
:100290000E940E041816190614F40E94220180917F
:1002A000F403882309F49CC061E771E087E994E0D6
:1002B0000E9489068EEE93E00E945D0A882379F001
:1002C00081E894E00E94C50981E894E00E94E50875
:1002D0008AEE93E00E94400D61E871E055C08EEE19
:1002E00093E00E94840C81117BC08EEE93E00E940B
:1002F0008A0A882399F08EEE93E00E94C50A409105
:10030000F6035091F7036091F50381E894E00E94B1
:10031000480981E894E00E94E50862C08EEE93E00F
:100320000E944F0B882389F068E871E087E994E028
:100330000E9489068EEE93E00E94970B6091F8036D
:100340008AEE93E00E94180D4BC08EEE93E00E945F
:10035000730B882389F06FE871E087E994E00E94CD
:1003600089068EEE93E00E94970B6091F8038AEE67
:1003700093E00E942C0D34C08EEE93E00E94190C85
:10038000882339F066E971E087E994E00E94A606C7
:1003900027C08EEE93E00E948A0A882399F08EEEA1
:1003A00093E00E94C50A4091F6035091F7036091D3
:1003B000F50381E894E00E94480981E894E00E94F6
:1003C000E50806C061EA71E087E994E00E94A606AC
:1003D00064EE73E08EEE93E00E9463081092F403E3
:1003E0007894089508951F920F920FB60F921124DA
:1003F0002F933F934F935F936F937F938F939F932D
:10040000AF93BF93EF93FF9380918A0490918B04F5
:10041000892B29F0E0918A04F0918B040995FF91D2
:10042000EF91BF91AF919F918F917F916F915F916C
:100430004F913F912F910F900FBE0F901F901895E5
:100440001F920F920FB60F9211242F933F934F9349
:100450005F936F937F938F939F93AF93BF93EF932C
:10046000FF9380918C0490918D04892B29F0E09169
:100470008C04F0918D040995FF91EF91BF91AF919C
:100480009F918F917F916F915F914F913F912F91AC
:100490000F900FBE0F901F9018951F920F920FB6DE
:1004A0000F9211242F933F938F939F93AF93BF93FA
:1004B00080918F0490919004A0919104B091920446
:1004C00030918E0421E7230F2D3728F024EF230FDE
:1004D0000196A11DB11D20938E0480938F049093EB
:1004E0009004A0939104B09392048091930490910E
:1004F0009404A0919504B09196040196A11DB11D9C
:100500008093930490939404A0939504B0939604DD
:10051000BF91AF919F918F913F912F910F900FBEFF
:100520000F901F9018959FB7F894409193045091A5
:100530009404609195047091960486B5A89B06C0BA
:100540008F3F21F04F5F5F4F6F4F7F4F9FBF22273D
:10055000342F452F562F280F311D411D511DA3E06B
:10056000B0E00E94720D0895CF92DF92EF92FF9259
:10057000CF93DF936B017C010E949302EB01C114C6
:10058000D104E104F10489F00E94F2010E94930277
:100590006C1B7D0B683E734090F381E0C81AD10854
:1005A000E108F108C851DC4FEACFDF91CF91FF900D
:1005B000EF90DF90CF900895789484B5826084BDE9
:1005C00084B5816084BD85B5826085BD85B5816057
:1005D00085BDEEE6F0E0808181608083E1E8F0E0B7
:1005E0001082808182608083808181608083E0E8E6
:1005F000F0E0808181608083E1EBF0E080818460C5
:100600008083E0EBF0E0808181608083EAE7F0E0C6
:10061000808184608083808182608083808181602A
:1006200080838081806880831092C10008951F9329
:10063000CF93DF93182FEB0161E00E949F03209777
:1006400011F460E004C0CF3FD10539F461E0812F9F
:10065000DF91CF911F910C94D803E12FF0E0E85780
:10066000FF4FE491E330F9F048F4E130B9F0E230C3
:10067000A1F584B5806284BDC8BD34C0E730E9F01F
:10068000E83019F1E43049F5809180008062809370
:100690008000D0938B00C0938A0024C084B580680A
:1006A00084BDC7BD1FC0809180008068809380009A
:1006B000D0938900C093880015C08091B0008068F5
:1006C0008093B000C093B3000DC08091B0008062F1
:1006D0008093B000C093B40005C0C038D1050CF0C1
:1006E000B5CFAFCFDF91CF911F910895833081F0C7
:1006F00028F4813099F08230A1F008958730A9F074
:100700008830B9F08430D1F4809180008F7D03C0AF
:10071000809180008F7780938000089584B58F77D3
:1007200002C084B58F7D84BD08958091B0008F771D
:1007300003C08091B0008F7D8093B0000895CF9367
:10074000DF9390E0FC01E456FF4F2491FC01E0555B
:10075000FF4F8491882349F190E0880F991FFC0195
:10076000E253FF4FA591B4918C539F4FFC01C5916B
:10077000D4919FB7611108C0F8948C912095822381
:100780008C93888182230AC0623051F4F8948C9152
:10079000322F309583238C938881822B888304C0E9
:1007A000F8948C91822B8C939FBFDF91CF91089509
:1007B0000F931F93CF93DF931F92CDB7DEB7282FF0
:1007C00030E0F901E857FF4F8491F901E456FF4FFB
:1007D0001491F901E055FF4F04910023C9F08823DB
:1007E00021F069830E9476036981E02FF0E0EE0F2B
:1007F000FF1FEC53FF4FA591B4919FB7F8948C91D4
:10080000611103C01095812301C0812B8C939FBF80
:100810000F90DF91CF911F910F910895FC01818D71
:10082000228D90E0805C9F4F821B91098F739927E6
:100830000895FC01918D828D981731F0828DE80F1B
:10084000F11D858D90E008958FEF9FEF0895FC01D5
:10085000918D828D981761F0828DDF01A80FB11DF7
:100860005D968C91928D9F5F9F73928F90E008951B
:100870008FEF9FEF089585EA95E0892B49F082E29A
:1008800091E0892B29F00E94A50581110C94220189
:100890000895FC01848DDF01A80FB11DA35ABF4F3D
:1008A0002C91848D90E001968F739927848FA6896F
:1008B000B7892C93A089B1898C9180648C93938D96
:1008C000848D981306C00288F389E02D80818F7D86
:1008D00080830895CF93DF93EC01888D8823C9F03E
:1008E000EA89FB89808185FD05C0A889B9898C9139
:1008F00086FD0FC00FB607FCF5CF808185FFF2CFD4
:10090000A889B9898C9185FFEDCFCE010E94490459
:10091000E7CFDF91CF910895CF92DF92FF920F93AF
:100920001F93CF93DF931F92CDB7DEB76C01DC012D
:100930005B969C915B975C968C915C97981307C033
:100940005096ED91FC915197808185FD32C0F60162
:10095000038D10E00F5F1F4F0F731127F02EF6016C
:10096000848DF81211C00FB607FCF9CFD60150964E
:10097000ED91FC915197808185FFF1CFC60169838C
:100980000E9449046981EBCF838DE80FF11DE35A82
:10099000FF4F6083D6015B960C935B975296ED9167
:1009A000FC91539780818062808381E058968C937C
:1009B0000DC0D6015696ED91FC91579760835096E5
:1009C000ED91FC91519780818064808381E090E07B
:1009D0000F90DF91CF911F910F91FF90DF90CF90FB
:1009E0000895BF92CF92DF92EF92FF92CF93DF9361
:1009F000EC016A017B01B22E60E070E586E490E0D4
:100A0000A70196010E944A0D21503109410951095F
:100A10005695479537952795E889F98982E080832F
:100A2000211580E1380798F0E889F989108260E0A3
:100A300078E283E290E0A70196010E944A0D2150DE
:100A40003109410951095695479537952795EC8508
:100A5000FD853083EE85FF852083188EEC89FD8926
:100A6000B082EA89FB89808180618083EA89FB8981
:100A7000808188608083EA89FB89808180688083A7
:100A8000EA89FB8980818F7D8083DF91CF91FF9000
:100A9000EF90DF90CF90BF9008951F920F920FB606
:100AA0000F9211242F938F939F93EF93FF93E091D5
:100AB000A704F091A8048081E091AD04F091AE0408
:100AC00082FD12C090818091B0048F5F8F7320915E
:100AD000B104821751F0E091B004F0E0E956FB4F09
:100AE000958F8093B00401C08081FF91EF919F9119
:100AF0008F912F910F900FBE0F901F9018951F92FE
:100B00000F920FB60F9211242F933F934F935F9341
:100B10006F937F938F939F93AF93BF93EF93FF93C5
:100B200087E994E00E944904FF91EF91BF91AF9152
:100B30009F918F917F916F915F914F913F912F91F5
:100B40000F900FBE0F901F90189587E994E00E94B8
:100B50000E0421E0892B09F420E0822F08951092E1
:100B60009A041092990488EE93E0A0E0B0E080939C
:100B70009B0490939C04A0939D04B0939E048BEBE4
:100B800091E0909398048093970485EC90E0909383
:100B9000A4048093A30484EC90E09093A604809333
:100BA000A50480EC90E09093A8048093A70481ECC6
:100BB00090E09093AA048093A90482EC90E0909333
:100BC000AC048093AB0486EC90E09093AE048093E9
:100BD000AD041092B0041092B1041092B2041092BD
:100BE000B3040895AF92BF92CF92DF92EF92FF923B
:100BF0000F931F93CF93DF936C017B01C0E0D0E094
:100C000000E010E0F601EC0FFD1F4AE050E06281C9
:100C1000C7010E941E075C016EE2C7010E948B069D
:100C20008A0D9B1D080F191F2196C330D10551F75E
:100C30004AE050E0F6016581C7010E941E07800F5F
:100C4000911FDF91CF911F910F91FF90EF90DF9057
:100C5000CF90BF90AF9008958BEC91E090933505C5
:100C6000809334051092360510923705109238059E
:100C700010923905089508950E94DC020E943B06F7
:100C80000E94C700CBE3D4E00E9445012097E1F326
:100C90000E943B04F9CFCF92DF92EF92FF920F9325
:100CA0001F93CF93DF936C017A01EB01E60EF71EE1
:100CB00000E010E0CE15DF0561F06991D601ED91FD
:100CC000FC910190F081E02DC6010995080F191FD4
:100CD000F1CFC801DF91CF911F910F91FF90EF905D
:100CE000DF90CF9008956115710581F0DB010D90C3
:100CF0000020E9F7AD0141505109461B570BDC01BB
:100D0000ED91FC910280F381E02D099480E090E068
:100D100008950C947306DC01ED91FC910190F08133
:100D2000E02D09940F931F93CF93DF93EC016DE0B7
:100D30000E948B068C016AE0CE010E948B06800F18
:100D4000911FDF91CF911F910F9108950F931F93E2
:100D5000CF93DF93EC010E9473068C01CE010E94B9
:100D60009206800F911FDF91CF911F910F910895EF
:100D70008F929F92AF92BF92CF92DF92EF92FF92AB
:100D80000F931F93CF93DF93CDB7DEB7A1970FB625
:100D9000F894DEBF0FBECDBF7C01C42EE52FCB0182
:100DA000D22E19A221E02D1510F02AE0D22E8E01AC
:100DB0000F5D1F4F8D2C912CA12CB12C6C2D7E2FF3
:100DC000A50194010E944A0D8C2DD29E80191124F8
:100DD000015011098A3014F4805D01C0895CF8016A
:100DE0008083211531054105510521F0C22EE32FE5
:100DF000CA01E4CFB801C7010E947306A1960FB6DD
:100E0000F894DEBF0FBECDBFDF91CF911F910F9140
:100E1000FF90EF90DF90CF90BF90AF909F908F901A
:100E200008952115310541F4DC01ED91FC9101900B
:100E3000F081E02D642F09940C94B8069A01462F96
:100E400050E060E070E00C9411070F931F93CF9374
:100E5000DF93EC019A01462F50E060E070E00E94C1
:100E600011078C01CE010E949206800F911FDF9125
:100E7000CF911F910F9108950F931F93CF93DF93FD
:100E8000EC010E9411078C01CE010E949206800F96
:100E9000911FDF91CF911F910F910895813039F00B
:100EA00018F0823051F0089510926E0008958091EC
:100EB0006F008D7F80936F000895809170008D7F0B
:100EC0008093700081E08093B0008091B100887FB2
:100ED00084608093B1001092B3000895CF93C82F1F
:100EE00080910A018C1307C0E8EDF0E084919FEF38
:100EF00090930A0101C08FEF0E944E0760E08C2F93
:100F0000CF910C94D8031F920F920FB60F92112419
:100F10002F933F934F935F936F937F938F939F9301
:100F2000AF93BF93EF93FF9380913D0590913E0562
:100F3000A0913F05B0914005892B8A2B8B2B51F155
:100F400090913A05E0913B05F0913C05808189271D
:100F5000808380913D0590913E05A0913F05B09121
:100F60004005181619061A061B06C4F480913D05A3
:100F700090913E05A0913F05B09140050197A109D0
:100F8000B10980933D0590933E05A0933F05B09332
:100F9000400504C080910A010E946E07FF91EF9105
:100FA000BF91AF919F918F917F916F915F914F9181
:100FB0003F912F910F900FBE0F901F901895FC013D
:100FC000808191810C94400ECF93DF93EC01888156
:100FD0009981009711F00E94400E198218821D829B
:100FE0001C821B821A82DF91CF9108950F931F9369
:100FF000CF93DF93EC018B016F5F7F4F88819981E5
:101000000E94CF0E009731F0998388831B830A8357
:1010100081E001C080E0DF91CF911F910F91089591
:10102000CF93DF93EC0188819981892B29F08A8104
:101030009B818617970760F4CE010E94F6078823EC
:1010400041F08C819D81892B19F4E881F98110820E
:1010500081E0DF91CF910895EF92FF920F931F935C
:10106000CF93DF93EC017B018A01BA010E94100843
:10107000811104C0CE010E94E40707C01D830C83C8
:10108000B701888199810E94EE0FCE01DF91CF9147
:101090001F910F91FF90EF900895FC011182108233
:1010A00013821282158214826115710559F0FB01B9
:1010B00001900020E9F7AF0141505109461B570B41
:1010C0000C942C080895CF93DF93EC016115710502
:1010D00061F0FB0101900020E9F7AF014150510997
:1010E000461B570B0E942C0802C00E94E407CE0149
:1010F000DF91CF910895EF92FF920F931F93CF93BB
:10110000DF93EC017B010C811D816115710511F4E8
:1011100080E016C04115510591F0040F151FB8016C
:101120000E9410088823A1F3288139818C819D8138
:10113000B701820F931F0E94EE0F1D830C8381E085
:10114000DF91CF911F910F91FF90EF900895CF9372
:10115000DF9300D0CDB7DEB769831A8241E050E05B
:10116000BE016F5F7F4F0E947B080F900F90DF9151
:10117000CF910895FC01848195816817790720F447
:1011800080819181009729F41092410581E495E0D6
:101190000895860F971F0895EF920F93CF93DF93D3
:1011A000EC016A834B832C830D83EE8280E1689F80
:1011B000B001112482E090E00E948C0D9983888315
:1011C000DF91CF910F91EF900895CF93DF93F89433
:1011D0005F985E98EC012A81D0E12D9F9001112447
:1011E00021503109220F331FA1E0B0E02E3FEFEF75
:1011F0003E0701F14BE050E05D98BD01042E02C0B6
:10120000660F771F0A94E2F7EC01E881F981E20F9B
:10121000F31F0190F081E02D6E237F23672B11F0E7
:101220005C9A01C05C985D9A4150510928F72250A0
:101230003109DCCF5D985E9A5E985F9A7894DF9171
:10124000CF9108950F931F93CF93DF93EC0160E04C
:101250008D810E94D80300E610E060E08B810E943F
:10126000D80361E08C810E94D80361E08B810E94E9
:10127000D8030150110989F761E08D810E94D803DC
:1012800060E08D81DF91CF911F910F910C94D80375
:10129000DF92EF92FF920F931F93CF93DF9300D0D3
:1012A000CDB7DEB77C01FC018281262F30E0F0E172
:1012B0008F9FC0011124821793070CF45CC0062F86
:1012C00010E0F8013197E031F10580F5EC5CFF4F5B
:1012D0000C946C0DD12C37C0E8E0DE2E34C07CE0DD
:1012E000D72E31C060E1D62E2EC034E1D32E2BC0D4
:1012F00028E1D22E28C09CE1D92E25C080E2D82E2C
:1013000022C004E2D02E1FC018E2D12E1CC0BCE2C5
:10131000DB2E19C0A0E3DA2E16C0F4E3DF2E13C0D3
:10132000E8E3DE2E10C07CE3D72E0DC06DEC71E03B
:1013300087E994E049835A830E94A60649815A812D
:1013400002C064E0D62E9A01411570E1570710F0F3
:101350002FEF3FE0F70190818181E92FF82FED0D0C
:10136000F11DED0DF11D31832083338322833583FD
:101370002483378326830F900F90DF91CF911F91A5
:101380000F91FF90EF90DF9008951F93CF93DF931D
:10139000EC0111E040E050E0612FCE010E944809CD
:1013A0001F5F1131B9F7DF91CF911F9108951F93FE
:1013B000CF93DF93EC01162F60E08D810E94D8035C
:1013C000113011F460E001C061E08E81DF91CF91B6
:1013D0001F910C94D803CF93DF93EC0188819981FE
:1013E000892B41F464EE71E087E994E00E94A6063F
:1013F00080E040C061E08B810E949F0361E08C81AE
:101400000E949F0361E08D810E949F0361E08E81B5
:101410000E949F0361E088E00E949F0360E08D814D
:101420000E94D80360E0CE010E94D709CE010E943D
:10143000220961E0CE010E94D709CE010E94C509B0
:10144000CE010E94E50861E08B810E94D80360E034
:101450008B810E94D80382E08093B0008093B1001A
:101460001092B20087E08093B30084E08093700014
:10147000789481E0DF91CF910895CF93DF93EC01D1
:1014800064EE73E00E944D081E821F821986188642
:101490001B861A861C861D861E861F86188AFE01DC
:1014A000EF56FF4FCE0141969183808368E873E148
:1014B000CE01DF91CF910C941008EF92FF920F9321
:1014C0001F93CF93DF938C018FE2E82E82E0F82EFA
:1014D000C0E0D0E0BE01C8010E94BA08F701219126
:1014E0007F01FC01808182130DC02196C530D1059A
:1014F00089F764EE73E0C8010E946308F801168260
:1015000081E001C080E0DF91CF911F910F91FF90AA
:10151000EF900895EF92FF920F931F93CF93DF9375
:101520008C0124EFE22E21E0F22EC0E0D0E0BE01DB
:10153000C8010E94BA08F70121917F01FC01808156
:10154000821711F080E01AC02196C330D10579F7D7
:1015500098EFE92E91E0F92EC5E0D0E0BE01C80178
:101560000E94BA08F70121917F01FC01808182135A
:10157000E9CF2196CA30D10589F781E0DF91CF917B
:101580001F910F91FF90EF900895AF92BF92CF926D
:10159000DF92EF92FF920F931F93CF93DF93EC01B3
:1015A0008C010F561F4FF801E080F18063E070E07E
:1015B0000E94BA08FC018081F7018083F801E08075
:1015C000F180C70101969183808364E070E0CE01D1
:1015D0000E94BA08FC018081F7018183F8018081B3
:1015E00091810196918380833AE0E32EF12CF801FA
:1015F000C080D180B701CE010E94BA08FC01808171
:10160000F6018083F8018081918101969183808326
:10161000FFEFEF1AFF0A8EE0E816F10441F75E01D2
:10162000E1E1AE0EB11CC5010E94B70F6B017C0158
:101630006C877D878E879F8720E137E240E050E00E
:101640000E944A0D2F8340EF58ED249FC001259F33
:10165000900D11248C0D9D1D998788872AE030E01C
:10166000B701A60187E994E00E943C07F801B18226
:10167000A08264EE73E0CE010E9463081E8280E8BF
:10168000F50111928A95E9F7DF91CF911F910F91A2
:10169000FF90EF90DF90CF90BF90AF900895EF92C2
:1016A000FF920F931F93CF93DF937C010EEF11E016
:1016B000C0E0D0E0BE01C7010E94BA08F801219144
:1016C0008F01FC018081821306C02196C530D105AF
:1016D00089F781E001C080E0DF91CF911F910F91E8
:1016E000FF90EF900895EF92FF920F931F93CF9387
:1016F000DF937C0104E012E0C0E0D0E0BE01C7014E
:101700000E94BA08F80121918F01FC0180818213A7
:1017100006C02196C530D10589F781E001C080E07F
:10172000DF91CF911F910F91FF90EF900895CF928D
:10173000DF92EF92FF920F931F93CF93DF93EC0111
:1017400045E0E42EF12C8C010F561F4FF801C080AC
:10175000D180B701CE010E94BA08FC018081F60158
:101760008083F80180819181019691838083FFEFCE
:10177000EF1AFF0A88E0E816F10441F77E01E1E183
:10178000EE0EF11CC7010E94B70F6F3F710509F003
:1017900018F47B876A8704C08FEF90E09B878A8765
:1017A000F801F182E08264EE73E0CE010E946308EA
:1017B0001E8280E8F70111928A95E9F7DF91CF91B7
:1017C0001F910F91FF90EF90DF90CF9008956430BC
:1017D000C1F028F4623049F0633069F00895663052
:1017E000E1F0A8F06730F9F00895413011F45A9A09
:1017F00008955A980895413011F45B9A08955B98C2
:101800000895413011F45C9A08955C980895413030
:1018100011F45D9A08955D980895413011F45E9A2F
:1018200008955E980895413011F45F9A08955F9885
:101830000895BF92CF92DF92EF92FF920F931F9382
:10184000CF93DF93EC015AE0E52E52E0F52E00E055
:1018500010E0B801CE010E94BA08F70121917F0182
:10186000FC018081821711F080E044C00F5F1F4FA0
:101870000630110571F77E01F1E9EF0EF11CF70159
:101880000081118166E070E0CE010E94BA08FC017F
:101890008081F80180838E010F5E1F4FC8010E9476
:1018A000990FB82EF701C080D18067E070E0CE01BB
:1018B0000E94BA08FC018081F6018083C8010E9461
:1018C000990FFAE0FB1580F28B3070F6482F6B2DE4
:1018D000CE010E94E70BF7011183008364EE73E0F1
:1018E000CE010E9463081E8280E8F80111928A9559
:1018F000E9F781E0DF91CF911F910F91FF90EF9079
:10190000DF90CF90BF900895EF92FF920F931F93B7
:10191000CF93DF93EC0161E1E62E62E0F62E00E06A
:1019200010E0B801CE010E94BA08F70121917F01B1
:10193000FC01808182136EC00F5F1F4F04301105C0
:1019400081F764EE73E087E994E00E94A60666E101
:1019500072E087E994E00E94A6066BE272E087E9F4
:1019600094E00E94A60665E372E087E994E00E9495
:10197000A60668E472E087E994E00E94A60665E5A1
:1019800072E087E994E00E94A60662E672E087E9C9
:1019900094E00E94A60664EE73E087E994E00E945A
:1019A000A6066FE672E087E994E00E94A60667E863
:1019B00072E087E994E00E94A6066EEB72E087E988
:1019C00094E00E94A60666E073E087E994E00E9436
:1019D000A60661E573E087E994E00E94A6066EEC36
:1019E00073E087E994E00E94A6068E010F5E1F4F08
:1019F000FE01EF56FF4F1183008364EE73E0CE01CA
:101A00000E9463081E8280E8F80111928A95E9F726
:101A100081E001C080E0DF91CF911F910F91FF9095
:101A2000EF900895FC01718360835383428308958E
:101A3000CF93C62F4AE050E087E994E00E94250743
:101A400063EE73E087E994E00E9489066C2F70E0F2
:101A500089E0CF910C941703CF93C62F4AE050E052
:101A600087E994E00E94250763EE73E087E994E03C
:101A70000E9489066C2F70E08AE0CF910C941703C6
:101A800060E070E089E00E94170360E070E08AE0A7
:101A90000C941703A1E21A2EAA1BBB1BFD010DC05B
:101AA000AA1FBB1FEE1FFF1FA217B307E407F5070E
:101AB00020F0A21BB30BE40BF50B661F771F881FEA
:101AC000991F1A9469F760957095809590959B0180
:101AD000AC01BD01CF010895EE0FFF1F0590F491F9
:101AE000E02D09940E947D0DA59F900DB49F900D4F
:101AF000A49F800D911D11240895A29FB001B39F52
:101B0000C001A39F700D811D1124911DB29F700D06
:101B1000811D1124911D08950F931F93CF93DF937F
:101B2000869F8001879F100D969F100D1124C8017C
:101B30000E94A80DEC01009729F0A80160E070E078
:101B40000E94E70FCE01DF91CF911F910F91089571
:101B5000CF93DF938230910510F482E090E0E09122
:101B60004405F091450520E030E0A0E0B0E030977A
:101B700039F14081518148175907B8F04817590782
:101B800071F482819381109729F013969C938E9320
:101B900012972CC0909345058093440527C02115CA
:101BA000310531F04217530718F0A901DB0101C0DC
:101BB000EF019A01BD01DF010280F381E02DD7CF53
:101BC00021153105F9F0281B390B2430310580F43B
:101BD0008A819B816115710521F0FB0193838283CA
:101BE00004C09093450580934405FE01329644C09D
:101BF000FE01E20FF31F8193919322503109398343
:101C000028833AC02091420530914305232B41F4AB
:101C10002091020130910301309343052093420546
:101C200020910001309101012115310541F42DB7BA
:101C30003EB74091040150910501241B350BE09102
:101C40004205F0914305E217F307A0F42E1B3F0B6A
:101C50002817390778F0AC014E5F5F4F241735071E
:101C600048F04E0F5F1F5093430540934205819308
:101C7000919302C0E0E0F0E0CF01DF91CF910895B1
:101C8000CF93DF93009709F487C0FC01329713824A
:101C90001282C0914405D0914505209781F420819E
:101CA0003181280F391F8091420590914305821799
:101CB000930779F5F0934305E09342056DC0DE018B
:101CC00020E030E0AE17BF0750F412964D915C91C2
:101CD00013979D014115510509F1DA01F3CFB38343
:101CE000A28340815181840F951F8A179B0771F44D
:101CF0008D919C911197840F951F029691838083FB
:101D000012968D919C9113979383828321153105AF
:101D100029F4F0934505E09344053EC0D90113969C
:101D2000FC93EE9312974D915D91A40FB51FEA17A6
:101D3000FB0779F480819181840F951F0296D90168
:101D400011969C938E938281938113969C938E938C
:101D50001297E0E0F0E08A819B81009719F0FE0184
:101D6000EC01F9CFCE01029628813981820F931FB1
:101D700020914205309143052817390769F43097BF
:101D800029F4109245051092440502C01382128274
:101D9000D0934305C0934205DF91CF910895A0E011
:101DA000B0E0E5EDFEE00C941610EC01CB012097BD
:101DB00019F40E94A80DB8C0FE01E60FF71F9E019E
:101DC00022503109E217F30708F4ACC0D9010D9194
:101DD0001C91119706171707B8F00530110508F484
:101DE0009FC0A801445051094617570708F498C0EE
:101DF00002501109061B170B019311936D937C93ED
:101E0000CF010E94400E8CC05B01A01AB10A4E01A6
:101E1000800E911EA0914405B0914505612C712C56
:101E200060E070E0109709F449C0A815B905C9F53C
:101E3000ED90FC901197670142E0C40ED11CCA14CA
:101E4000DB0478F147018A189B08640142E0C40E64
:101E5000D11C1296BC9012971396AC91B5E0CB169C
:101E6000D10440F0B282A38391828082D9018D9304
:101E70009C9309C00E5F1F4F0E0D1F1DF9011183AA
:101E80000083EB2DFA2F6115710531F0DB011396FC
:101E9000FC93EE93129744C0F0934505E0934405FC
:101EA0003FC06D917C9111976616770608F43B014F
:101EB000BD0112960D90BC91A02DB4CF609142054A
:101EC0007091430568157905E9F468167906D0F430
:101ED00040910001509101014115510541F44DB768
:101EE0005EB76091040170910501461B570BE41722
:101EF000F507C0F4F0934305E0934205F90191839F
:101F000080830EC00E94A80D7C01009759F0A801A3
:101F1000BE010E94DE0FCE010E94400EC70104C028
:101F2000CE0102C080E090E0CDB7DEB7EEE00C94C9
:101F30003210FC0188279927E89421912032E9F397
:101F4000293010F02E30C8F32B3241F02D3239F405
:101F5000689404C00E940A10820F911D21912053A1
:101F60002A30C0F31EF4909581959F4F08951F93DA
:101F7000FC0199278827BC01E89411911032E9F3FC
:101F8000193010F01E30C8F31B3251F01D3249F4E5
:101F9000689406C00E94F50F610F711D811D911D8F
:101FA000119110531A30B0F33EF4909580957095CE
:101FB00061957F4F8F4F9F4F1F910895FB01DC016B
:101FC00002C001900D9241505040D8F70895DC01B5
:101FD00001C06D9341505040E0F70895FB01DC01D2
:101FE00001900D920020E1F70895592F482F372FC7
:101FF000262F660F771F881F991F660F771F881F70
:10200000991F620F731F841F951F660F771F881F0C
:10201000991F08957AE0979F902D879F802D910DAD
:10202000112408952F923F924F925F926F927F9268
:102030008F929F92AF92BF92CF92DF92EF92FF92D8
:102040000F931F93CF93DF93CDB7DEB7CA1BDB0B84
:102050000FB6F894DEBF0FBECDBF09942A88398829
:1020600048885F846E847D848C849B84AA84B98430
:10207000C884DF80EE80FD800C811B81AA81B9813C
:10208000CE0FD11D0FB6F894DEBF0FBECDBFED0150
:10209000089510E0C0EED0E004C0FE010E946E0D75
:0C20A0002296C23ED107C9F7F894FFCF8A
:1020AC0000004605800001000000FF2D2D2D2D2D78
:1020BC002D2D2D2D2D2D2D2D2D2D2D2D2D2D2D2D44
:1020CC002D2D2D2D2D2D2D2D2D2D2D2D0052696EBF
:1020DC0067206C69676874207265616479210054AB
:1020EC00797065202748454C502720666F72206D0B
:1020FC006F726520696E666F726D6174696F6E2E9A
:10210C0000496E7075742065787065637465643A07
:10211C0000676F7420736F6D657468696E673A2021
:10212C00002B5265736574004E504F4C592000596A
:10213C00504F4C592000546F67676C652070696E66
:10214C0000537472696E6720646F65736E27742018
:10215C006D617463682100000000008C044B060E56
:10216C0004270419046A0400000000F205436861A6
:10217C006E6E656C206E6F7420617661696C616245
:10218C006C65210070776D6275666665722065728C
:10219C00726F72004C45440056414C5545004E50F0
:1021AC004F4C590059504F4C5900544F47474C45D0
:1021BC000048454C50002A2A2A2A2A20436F6D6D6C
:1021CC00616E6473202A2A2A2A2A002831293A525D
:1021DC0045534554002832293A4C454478785641A9
:1021EC004C554578787878002833293A59504F4C1B
:1021FC0059787878002834293A4E504F4C597878D1
:10220C0078002835293A544F47474C4578780028B0
:10221C0031293A526573657420616C6C204C4544CD
:10222C007320746F2030002832293A536574204C87
:10223C00454420312D313620696E646976696475A8
:10224C00616C6C7920776974682076616C75657344
:10225C002066726F6D20302D343039352E002833C6
:10226C00293A5475726E206F6E2038204C45447399
:10227C00207769746820706F6C6172697A61746917
:10228C006F6E2066696C7465722E205365742042E3
:10229C0072696768746E6573732066726F6D203037
:1022AC002D3235352E002834293A5475726E206F34
:1022BC006E2038204C45447320776974686F7574B0
:1022CC0020706F6C6172697A6174696F6E206669D7
:1022DC006C7465722E205365742042726967687441
:1022EC006E6573732066726F6D20302D3235352E0E
:1022FC00002835293A546F67676C652061206D6939
:10230C0063726F20636F6E74726F6C6C6572207089
:10231C00696E2E205468652066697273742076612C
:10232C006C7565207365747320746865206E756DAB
:10233C00626572206F66207468652070696E2C204F
:10234C00746865207365636F6E64202069732075F3
:10235C0073656420666F72204849474820283129EC
:10236C0020616E64204C4F57202830292E002A2AD9
:10237C002A2A2A2A2A2A2A2A2A2A2A2A2A2A2A2AB1
:06238C002A2A000D0000EA
:00000001FF
