:100000000C9444010C9475010C9475010C947501C9
:100010000C9475010C9475010C9475010C94750188
:100020000C9475010C9475010C9475010C94750178
:100030000C9475010C9475010C9475010C94750168
:100040000C9475010C9475010C9475010C94750158
:100050000C9475010C9475010C9475010C94900826
:100060000C9475010C9404060C943A060C947501DA
:100070000C9475010C9475010C9475010C94750128
:100080000C9475010C9475010C9475010C94750118
:100090000C9475010C9475010C9475010C94750108
:1000A0000C9475010C9475010C9475010C947501F8
:1000B0000C9475010C9475010C9475010C947501E8
:1000C0000C9475010C9475010C9475010C947501D8
:1000D0000C9475010C9475010C9475010C947501C8
:1000E0000C947501E603E903D803DC03E203200462
:1000F000ED03F103F703FB03FF03050409040D04FB
:100100002004130417041B040C94C1060C94F70379
:100110000C94A9040C94E2030C940D040C941B049D
:100120000C94DC030C94E6030C9474020C946E069D
:100130000C9417040C941B050C9490040C949B04D1
:100140000C94FB030C9409040C94E9030C943D05F6
:100150000C9405040C94F1030C94ED030C94BD0471
:100160000C9464060C94D8030C9486020C9420041E
:100170000C94FF030C9413040C94820200000A0BED
:1001800002090C0D0E080703040100000000000026
:10019000000000000000000000000000000000005F
:1001A000000000000000000012111000000000001C
:1001B000000000000000000000000000000000003F
:1001C000000001021020200808102040102040806C
:1001D000020102010804020101020408102040800B
:1001E0008040201008040201800402018040201099
:1001F00008040201080402010102040810204080E2
:1002000001020408102040800505050507050808BF
:100210000808020202020A0A080804040404010190
:1002200001010101010103030303030303030407A5
:1002300007070C0C0C0C0C0C0C0C0202020206063C
:100240000606060606060B0B0B0B0B0B0B0B000032
:100250002200250028002B002E003100340002016E
:100260000000050108010B01000021002400270007
:100270002A002D00300033000101000004010701B5
:100280000A0174026E06820211241FBECFEFD1E272
:10029000DEBFCDBF00E00CBF12E0A0E0B2E0E2EFB5
:1002A000F7E100E00BBF02C007900D92A235B10745
:1002B000D9F723E0A2E5B2E001C01D92AB38B20746
:1002C000E1F712E0C6E8D2E000E006C0229701099B
:1002D000FE010BBF0E946409C238D10780E0080705
:1002E000A9F70E94B2060C94E70B0C94000026E0DC
:1002F00040E855E260E070E080EE92E00E94A205E6
:1003000068EC70E083ED92E00E94D30768E072E051
:1003100080EE92E00E942A078AED92E00E942C0370
:1003200065E172E080EE92E00E942A0761E083E0DE
:100330000E94210461E082E00E94210461E082E0E9
:100340000E945A0460E083E00E945A048AED92E021
:100350000C944903CF92DF92EF92FF921F93CF93B9
:10036000DF938091D902882309F4B6C063ED72E06F
:1003700080EE92E00E94FF0682ED92E00E94A803C8
:1003800081119EC082ED92E00E946B03882351F0A0
:1003900067E272E080EE92E00E940D0781E08093B8
:1003A000D20208C069E272E080EE92E00E940D077E
:1003B0001092D2028091D202882309F474C0C091B5
:1003C0000602D091070263E070E083ED92E00E94A4
:1003D0007E08FC0180818883C0910602D0910702CB
:1003E000CE010196909307028093060264E070E0CC
:1003F00083ED92E00E947E08FC01808189838091D8
:1004000006029091070201969093070280930602DC
:10041000CAE0D0E0E0900602F0900702BE0183ED52
:1004200092E00E947E08FC018081F7018083809128
:1004300006029091070201969093070280930602AC
:100440002196CE30D10531F782E592E00E94940BDF
:100450006B017C0120E137E240E050E00E943C0962
:10046000122F80EF98ED289FE001299FD00D1124D5
:10047000CC0DDD1D2AE030E0B701A60180EE92E050
:100480000E94950760E372E080EE92E00E940D0703
:10049000AE01612F8AED92E00E9410038AED92E096
:1004A0000E94B90206C06BE272E080EE92E00E9408
:1004B0000D0782E592E0909307028093060204C044
:1004C0008AED92E00E94490361E372E083ED92E0DD
:1004D0000E9426081092D902DF91CF911F91FF90C0
:1004E000EF90DF90CF9008950F9307E024E045E070
:1004F00061E08AED92E00E94A30282ED92E00F910A
:100500000C945D0383ED92E00C94A207CF93DF93EC
:10051000D1E080EE92E00E949004892B89F080EE79
:1005200092E00E94A904C82F682F83ED92E00E94F8
:100530006A08CA3011F0CD3061F7D093D902E9CF03
:10054000DF91CF9108950F93CF93DF93EC016A83EE
:100550004B832C830D8388E1689FB001112482E0D6
:1005600090E00E94680999838883DF91CF910F9171
:100570000895BF92CF92DF92EF92FF920F931F9355
:10058000CF93DF93EC0160E08D810E945A04BA8022
:1005900088E1B89EB02C1124BA94CC24C394D12CF9
:1005A0001B144CF5EB2CEE0CFF080CE010E060E0A7
:1005B0008B810E945A04C601002E02C0880F991F29
:1005C0000A94E2F7E881F981EE0DFF1D2081318167
:1005D00082239323892B11F061E001C060E08C81BC
:1005E0000E945A0461E08B810E945A040150110953
:1005F000F1F6BA94D5CF60E08B810E945A0461E095
:100600008D810E945A0460E08D81DF91CF911F910E
:100610000F91FF90EF90DF90CF90BF900C945A0411
:10062000DC0112962C9170E0B8E12B9F900111240F
:100630002617370784F0660F771FDC01ED91FC91D8
:10064000E60FF71FCA014115B0E15B0710F08FEF0D
:100650009FE0918380830895CF93DF93EC0188819D
:100660009981892B91F061E08B810E94210461E0E6
:100670008C810E94210461E08D810E94210460E050
:100680008D810E945A0481E001C080E0DF91CF910A
:1006900008951F93CF93DF93EC0110E040E050E00A
:1006A000612FCE010E9410031F5F1831B9F7CE01F0
:1006B000DF91CF911F910C94B902CF93DF93EC019E
:1006C000FC01119261E372E0CF010E9410081F82C9
:1006D000DF91CF910895EF92FF920F931F93CF93E5
:1006E000DF9322E3E22E22E0F22EC0E0D0E08C0184
:1006F0000F5F1F4FBE01C8010E947E08F7012191C4
:100700007F01FC018081821711F080E01AC02196E0
:10071000C330D10579F786E3E82E82E0F82EC5E0F4
:10072000D0E0BE01C8010E947E08F70121917F013F
:10073000FC0180818213E9CF2196CA30D10589F767
:1007400081E0DF91CF911F910F91FF90EF9008957D
:10075000EF92FF920F931F93CF93DF930CE312E07E
:10076000C0E0D0E001967C01BE01C7010E947E0876
:10077000F80121918F01FC018081821306C021962E
:10078000C530D10589F781E001C080E0DF91CF91CC
:100790001F910F91FF90EF90089590E0FC01319729
:1007A000E231F10508F04CC0EE58FF4F0C945E09A1
:1007B000809180008F7703C0809180008F7D80932F
:1007C0008000089580918000877FF9CF84B58F776E
:1007D00002C084B58F7D84BD08958091B0008F776D
:1007E00003C08091B0008F7D8093B0000895809108
:1007F00090008F7707C0809190008F7D03C080911B
:100800009000877F8093900008958091A0008F775B
:1008100007C08091A0008F7D03C08091A000877FDA
:100820008093A0000895809120018F7707C0809168
:1008300020018F7D03C080912001877F809320015C
:100840000895CF93DF9390E0FC01EE53FE4F249187
:10085000FC01E85FFD4F8491882349F190E0880F07
:10086000991FFC01E859FD4FA591B491825B9D4F02
:10087000FC01C591D4919FB7611108C0F8948C9187
:10088000209582238C93888182230AC0623051F4A0
:10089000F8948C91322F309583238C938881822B0E
:1008A000888304C0F8948C91822B8C939FBFDF9136
:1008B000CF9108950F931F93CF93DF931F92CDB7DE
:1008C000DEB7282F30E0F901E458FE4F8491F9019A
:1008D000EE53FE4F1491F901E85FFD4F04910023A0
:1008E000C9F0882321F069830E94CD036981E02F3C
:1008F000F0E0EE0FFF1FE25BFD4FA591B4919FB7B3
:10090000F8948C91611103C01095812301C0812B53
:100910008C939FBF0F90DF91CF911F910F910895FE
:10092000FC01818D228D90E0805C9F4F821B91099C
:100930008F7399270895FC01918D828D981731F05E
:10094000828DE80FF11D858D90E008958FEF9FEF68
:100950000895FC01918D828D981761F0828DDF01E1
:10096000A80FB11D5D968C91928D9F5F9F73928FA2
:1009700090E008958FEF9FEF089584E696E0892B2D
:1009800041F086E892E0892B21F00E9464068111F3
:1009900025C080E090E0892B41F080E090E0892B39
:1009A00021F00E94000081111CC080E090E0892BA2
:1009B00041F080E090E0892B21F00E94000081113D
:1009C00013C080E090E0892BA1F080E090E0892BBB
:1009D00081F00E94000081110AC008950E948602E1
:1009E000D8CF0E940000E1CF0E940000EACF0C9413
:1009F00000000895FC01848DDF01A80FB11DA35AEA
:100A0000BF4F2C91848D90E001968F739927848F2E
:100A1000A689B7892C93A089B1898C9180648C9325
:100A2000938D848D981306C00288F389E02D808110
:100A30008F7D80830895CF93DF93EC01888D882389
:100A4000C9F0EA89FB89808185FD05C0A889B9893B
:100A50008C9186FD0FC00FB607FCF5CF808185FF16
:100A6000F2CFA889B9898C9185FFEDCFCE010E9484
:100A7000FA04E7CFDF91CF910895CF92DF92FF92F2
:100A80000F931F93CF93DF931F92CDB7DEB76C0107
:100A9000DC015B969C915B975C968C915C979813BC
:100AA00007C05096ED91FC915197808185FD32C031
:100AB000F601038D10E00F5F1F4F0F731127F02E0B
:100AC000F601848DF81211C00FB607FCF9CFD601DC
:100AD0005096ED91FC915197808185FFF1CFC60131
:100AE00069830E94FA046981EBCF838DE80FF11DC1
:100AF000E35AFF4F6083D6015B960C935B97529647
:100B0000ED91FC91539780818062808381E05896BB
:100B10008C930DC0D6015696ED91FC91579760834A
:100B20005096ED91FC91519780818064808381E0A3
:100B300090E00F90DF91CF911F910F91FF90DF9088
:100B4000CF900895BF92CF92DF92EF92FF92CF9312
:100B5000DF93EC016A017B01B22EE889F98982E01A
:100B60008083411581EE580761057105A1F060E0B1
:100B700079E08DE390E0A70196010E943C092150A5
:100B80003109410951095695479537952795211502
:100B900080E1380798F0E889F989108260E874E804
:100BA0008EE190E0A70196010E943C092150310995
:100BB000410951095695479537952795EC85FD854F
:100BC0003083EE85FF852083188EEC89FD89B08205
:100BD000EA89FB89808180618083EA89FB89808141
:100BE00088608083EA89FB89808180688083EA89C4
:100BF000FB8980818F7D8083DF91CF91FF90EF9083
:100C0000DF90CF90BF9008951F920F920FB60F9272
:100C100011240BB60F922F938F939F93EF93FF9313
:100C2000E091F002F091F1028081E091F602F09102
:100C3000F70282FD12C090818091F9028F5F8F735D
:100C40002091FA02821751F0E091F902F0E0E052AF
:100C5000FD4F958F8093F90201C08081FF91EF9144
:100C60009F918F912F910F900BBE0F900FBE0F9001
:100C70001F9018951F920F920FB60F9211240BB66A
:100C80000F922F933F934F935F936F937F938F9325
:100C90009F93AF93BF93EF93FF9380EE92E00E94F8
:100CA000FA04FF91EF91BF91AF919F918F917F9146
:100CB0006F915F914F913F912F910F900BBE0F90CD
:100CC0000FBE0F901F90189580EE92E00E94900446
:100CD00021E0892B09F420E0822F08951092E3028D
:100CE0001092E20288EE93E0A0E0B0E08093E4028C
:100CF0009093E502A093E602B093E70286E492E0C7
:100D00009093E1028093E00285EC90E09093ED02F5
:100D10008093EC0284EC90E09093EF028093EE02DB
:100D200080EC90E09093F1028093F00281EC90E0EF
:100D30009093F3028093F20282EC90E09093F5029C
:100D40008093F40286EC90E09093F7028093F60291
:100D50001092F9021092FA021092FB021092FC0219
:100D6000089508950E94DA080E94B1060E94770152
:100D7000CDEBD4E00E94AA012097E1F30E94BD04CC
:100D8000F9CFCF92DF92EF92FF920F931F93CF9301
:100D9000DF936C017A01EB01E60EF71E00E010E034
:100DA000CE15DF0561F06991D601ED91FC910190BE
:100DB000F081E02DC6011995080F191FF1CFC80168
:100DC000DF91CF911F910F91FF90EF90DF90CF9027
:100DD00008956115710581F0DB010D900020E9F7A0
:100DE000AD0141505109461B570BDC01ED91FC91BF
:100DF0000280F381E02D199480E090E00895DC01F9
:100E0000ED91FC91DB0114964D915C9115976D91DC
:100E10007C910280F381E02D19940C94E906DC01A9
:100E2000ED91FC910190F081E02D19940F931F93A7
:100E3000CF93DF93EC016DE00E940F078C016AE015
:100E4000CE010E940F07800F911FDF91CF911F915C
:100E50000F9108950F931F93CF93DF93EC010E949E
:100E6000E9068C01CE010E941607800F911FDF91C9
:100E7000CF911F910F9108958F929F92AF92BF9241
:100E8000CF92DF92EF92FF920F931F93CF93DF9356
:100E9000CDB7DEB7A1970FB6F894DEBF0FBECDBFBA
:100EA0007C01C42EE52FCB01D22E19A221E02D15F5
:100EB00010F02AE0D22E8E010F5D1F4F8D2C912C49
:100EC000A12CB12C6C2D7E2FA50194010E943C0910
:100ED0008C2DD29E80191124015011098A3014F4EE
:100EE000805D01C0895CF8018083211531054105D1
:100EF000510521F0C22EE32FCA01E4CFB801C7018A
:100F00000E94E906A1960FB6F894DEBF0FBECDBFD2
:100F1000DF91CF911F910F91FF90EF90DF90CF90D5
:100F2000BF90AF909F908F9008952115310541F4A7
:100F3000DC01ED91FC910190F081E02D642F19947A
:100F40000C943C07FC01808191810C941C0ACF9386
:100F5000DF93EC0188819981009711F00E941C0AAF
:100F6000198218821D821C821B821A82DF91CF9106
:100F700008950F931F93CF93DF93EC018B016F5F65
:100F80007F4F888199810E94AB0A009731F0998345
:100F900088831B830A8381E001C080E0DF91CF91C9
:100FA0001F910F910895CF93DF93EC018881998170
:100FB000892B29F08A819B818617970760F4CE01DF
:100FC0000E94B907882341F08C819D81892B19F4F7
:100FD000E881F981108281E0DF91CF910895EF924D
:100FE000FF920F931F93CF93DF93EC017B018A0154
:100FF000BA010E94D307811104C0CE010E94A70745
:1010000007C01D830C83B701888199810E94CB0B97
:10101000CE01DF91CF911F910F91FF90EF90089536
:10102000FC011182108213821282158214826115D2
:10103000710559F0FB0101900020E9F7AF01415023
:101040005109461B570B0C94EF070895CF93DF937C
:10105000EC016115710561F0FB0101900020E9F7D9
:10106000AF0141505109461B570B0E94EF0702C0C8
:101070000E94A707CE01DF91CF910895EF92FF92D2
:101080000F931F93CF93DF93EC017B010C811D81A4
:101090006115710511F480E016C04115510591F0FC
:1010A000040F151FB8010E94D3078823A1F32881DC
:1010B00039818C819D81B701820F931F0E94CB0BD8
:1010C0001D830C8381E0DF91CF911F910F91FF90E1
:1010D000EF900895CF93DF931F921F92CDB7DEB7A5
:1010E00069831A8241E050E0BE016F5F7F4F0E942A
:1010F0003E080F900F90DF91CF910895FC018481FD
:1011000095816817790720F480819181009729F4EF
:1011100010927D038DE793E00895860F971F089541
:101120001F920F920FB60F9211242F933F938F931C
:101130009F93AF93BF9380917F0390918003A09181
:101140008103B091820330917E0323E0230F2D377A
:1011500020F40196A11DB11D05C026E8230F0296BB
:10116000A11DB11D20937E0380937F039093800384
:10117000A0938103B09382038091830390918403B1
:10118000A0918503B09186030196A11DB11D8093A6
:10119000830390938403A0938503B0938603BF9148
:1011A000AF919F918F913F912F910F900FBE0F9014
:1011B0001F901895789484B5826084BD84B5816051
:1011C00084BD85B5826085BD85B5816085BDEEE64F
:1011D000F0E0808181608083E1E8F0E0108280812E
:1011E00082608083808181608083E0E8F0E080819C
:1011F00081608083E1EBF0E0808184608083E0EBBC
:10120000F0E0808181608083E1E9F0E080818260AC
:101210008083808181608083E0E9F0E0808181606B
:101220008083E1EAF0E08081826080838081816058
:101230008083E0EAF0E0808181608083E1E2F1E098
:10124000808182608083808181608083E0E2F1E040
:10125000808181608083EAE7F0E080818460808320
:1012600080818260808380818160808380818068CA
:1012700080831092C1000895A1E21A2EAA1BBB1B05
:10128000FD010DC0AA1FBB1FEE1FFF1FA217B30752
:10129000E407F50720F0A21BB30BE40BF50B661F68
:1012A000771F881F991F1A9469F76095709580952C
:1012B00090959B01AC01BD01CF010895EE0FFF1F7A
:1012C0000590F491E02D19940790F691E02D199472
:1012D0000F931F93CF93DF93869F8001879F100DFD
:1012E000969F100D1124C8010E948409EC010097FB
:1012F00029F0A80160E070E00E94C40BCE01DF91EC
:10130000CF911F910F910895CF93DF938230910574
:1013100010F482E090E0E0918903F0918A0320E0EC
:1013200030E0A0E0B0E0309739F1408151814817BA
:101330005907B8F04817590771F4828193811097C3
:1013400029F013969C938E9312972CC090938A0346
:101350008093890327C02115310531F042175307C7
:1013600018F0A901DB0101C0EF019A01BD01DF0105
:101370000280F381E02DD7CF21153105F9F0281B2C
:10138000390B2430310580F48A819B816115710508
:1013900021F0FB019383828304C090938A0380939E
:1013A0008903FE01329644C0FE01E20FF31F8193D0
:1013B000919322503109398328833AC020918703C1
:1013C00030918803232B41F42091020230910302D3
:1013D000309388032093870320910002309101020B
:1013E0002115310541F42DB73EB7409104025091CB
:1013F0000502241B350BE0918703F0918803E21767
:10140000F307A0F42E1B3F0B2817390778F0AC0127
:101410004E5F5F4F2417350748F04E0F5F1F509304
:101420008803409387038193919302C0E0E0F0E04A
:10143000CF01DF91CF910895CF93DF93009709F407
:1014400087C0FC01329713821282C0918903D09128
:101450008A03209781F420813181280F391F8091E0
:101460008703909188038217930779F5F093880397
:10147000E09387036DC0DE0120E030E0AE17BF07C8
:1014800050F412964D915C9113979D0141155105B1
:1014900009F1DA01F3CFB383A28340815181840F34
:1014A000951F8A179B0771F48D919C911197840F5A
:1014B000951F02969183808312968D919C9113972C
:1014C000938382832115310529F4F0938A03E093F5
:1014D00089033EC0D9011396FC93EE9312974D9168
:1014E0005D91A40FB51FEA17FB0779F48081918104
:1014F000840F951F0296D90111969C938E93828139
:10150000938113969C938E931297E0E0F0E08A818A
:101510009B81009719F0FE01EC01F9CFCE010296F4
:1015200028813981820F931F20918703309188038E
:101530002817390769F4309729F410928A0310921A
:10154000890302C013821282D0938803C093870359
:10155000DF91CF9108956F927F928F929F92AF9279
:10156000BF92CF92DF92EF92FF920F931F93CF9390
:10157000DF93EC01CB01209781F4DF91CF911F9194
:101580000F91FF90EF90DF90CF90BF90AF909F9022
:101590008F907F906F900C948409FE01E60FF71FE7
:1015A0009E0122503109E217F30708F4ACC0D901BB
:1015B0000D911C91119706171707B8F0053011050A
:1015C00008F49FC0A801445051094617570708F472
:1015D00098C002501109061B170B019311936D93CC
:1015E0007C93CF010E941C0A8CC05B01A01AB10A37
:1015F0004E01800E911EA0918903B0918A03612C47
:10160000712C60E070E0109709F449C0A815B90585
:10161000C9F5ED90FC901197670142E0C40ED11C12
:10162000CA14DB0478F147018A189B08640142E080
:10163000C40ED11C1296BC9012971396AC91B5E0D3
:10164000CB16D10440F0B282A38391828082D9016B
:101650008D939C9309C00E5F1F4F0E0D1F1DF90146
:1016600011830083EB2DFA2F6115710531F0DB0139
:101670001396FC93EE93129744C0F0938A03E09381
:1016800089033FC06D917C9111976616770608F427
:101690003B01BD0112960D90BC91A02DB4CF60917D
:1016A00087037091880368157905E9F4681679064F
:1016B000D0F440910002509101024115510541F4CE
:1016C0004DB75EB76091040270910502461B570B3F
:1016D000E417F507C0F4F0938803E0938703F9015A
:1016E000918380830EC00E9484097C01009759F089
:1016F000A801BE010E94BB0BCE010E941C0AC701BB
:1017000004C0CE0102C080E090E0DF91CF911F9134
:101710000F91FF90EF90DF90CF90BF90AF909F9090
:101720008F907F906F9008951F93FC0199278827D1
:10173000BC01E89411911032E9F3193010F01E3019
:10174000C8F31B3251F01D3249F4689406C00E9460
:10175000D20B610F711D811D911D119110531A3013
:10176000B0F33EF490958095709561957F4F8F4FC3
:101770009F4F1F910895FB01DC0102C001900D9263
:1017800041505040D8F70895DC0101C06D9341509D
:101790005040E0F70895FB01DC0101900D9200201C
:1017A000E1F70895592F482F372F262F660F771FFF
:1017B000881F991F660F771F881F991F620F731F5D
:1017C000841F951F660F771F881F991F089512E0C9
:1017D000C6E8D2E000E006C022970109FE010BBF77
:1017E0000E946409C838D10780E00807A9F7F89477
:0217F000FFCF29
:1017F20000008B0380005202544C433539373420A9
:10180200746573740045696E67616265204572771D
:1018120061727465743A002B002D006572726F72EA
:101822000D004C45440056414C5545005245534528
:101832005400000000003D05C1069004A9049B0469
:021842001B0584
:00000001FF
