:100000000C9478010C94A0010C94A0010C94A00114
:100010000C94A0010C94A0010C94A0010C94A001DC
:100020000C94A0010C94A0010C94B70B0C94830ABF
:100030000C94A0010C94A0010C94A0010C94A001BC
:100040000C94A0010C94A0010C94A0010C94A001AC
:100050000C94A0010C94A0010C94A0010C941A0D16
:100060000C94A0010C94A0010C94A0010C94A0018C
:100070000C94A0010C94A0010C94A0010C94A0017C
:100080000C94A0010C94A0010C94A0010C94A0016C
:100090000C94A0010C94A0010C94A0010C94A0015C
:1000A0000C94A0010C94A0010C94A00142037903CC
:1000B000440347034A034D035003530356035903B4
:1000C0005C035F036203650368036B0306060906AE
:1000D000F805FC0502062A062A062A060D06110660
:1000E00015061B061F062A06250600000002000949
:1000F0000F0000030401000C0000000000000000DD
:1001000000000000000000000408020110408040D0
:10011000102040804080080204018040201002012D
:10012000108010204040040404040403040502026B
:100130000202040302020202060606060606040480
:100140000202020400000000250028002B002E00FF
:10015000310000000000240027002A002D0030009C
:10016000080B000202020100090400000102020063
:1001700000052400100105240101010424020605E4
:100180002406000107058103100040090401000254
:100190000A00000007050202400000070583024034
:1001A000000000C18081C112010002020000404134
:1001B000233780000101020001120100020000004B
:1001C00040412337800001010200014172647569DA
:1001D0006E6F204C4C430041726475696E6F204D08
:1001E0006963726F0004030904000000000000004E
:1001F000002A2B2800000000000000000000000082
:100200000000000000000000002C9EB4A0A1A2A4E9
:1002100034A6A7A5AE362D3738271E1F202122234E
:10022000242526B333B62EB7B89F84858687888960
:100230008A8B8C8D8E8F90919293949596979899A6
:100240009A9B9C9D2F3130A3AD3504050607080904
:100250000A0B0C0D0E0F1011121314151617181986
:100260001A1B1C1DAFB1B0B5000904020001030048
:1002700000000921010100012265000705840340F7
:10028000000105010902A1010901A100850105097B
:1002900019012903150025019503750181029501B6
:1002A0007505810305010930093109381581257F5C
:1002B000750895038106C0C005010906A1018502E4
:1002C000050719E029E71500250175019508810248
:1002D00095017508810395067508150025650507C4
:1002E000190029658100C000DC016C073B0FF20199
:1002F00011241FBECFEFDAE0DEBFCDBF11E0A0E0DA
:10030000B1E0EAE2F4E202C005900D92A83CB10728
:10031000D9F722E0A8ECB1E001C01D92AB3DB207D5
:10032000E1F712E0CEEED2E004C02297FE010E9477
:100330006D0FC83ED107C9F70E948A070C940812B6
:100340000C94000061E087E00E942B0660E087E0EB
:100350000E94640661E082E00E942B0660E082E079
:100360000E94640681E692E00E949D0381E692E08D
:100370000E94D7038AEC91E00E94CA058AEC91E0C2
:100380000E94C50540E855E260E070E087E692E033
:100390000E94570787E692E00E945D078823D1F309
:1003A00060E171E087E692E00E94F80762E271E0A6
:1003B00087E692E00C94F8070F9306E024E045E00E
:1003C00061E081E692E00E94A3028EEC91E00E943F
:1003D000EB034AE050E069E070E08AEC91E00F91B5
:1003E0000C949B058EEC91E00C942D0CCF93DF9335
:1003F000D1E087E692E00E94C406892BB9F0D09341
:10040000C90187E692E00E94D406C82F682F8EECBF
:1004100091E00E94F50CCA3011F0CD3051F7D09325
:10042000D4011092C8011092C901E3CFDF91CF919E
:100430000895F89487E692E00E94C40618161906FB
:1004400014F40E94F6018091D401882309F479C044
:1004500062E371E087E692E00E94DB078EEC91E0B8
:100460000E940B04882399F060E087E00E946406F4
:1004700081E692E00E94D7038AEC91E00E94C505D4
:1004800062E471E087E692E00E94DB075AC08EECDE
:1004900091E00E9438048823A1F08EEC91E00E9444
:1004A00073044091D6015091D7016091D50181E646
:1004B00092E00E94200381E692E00E94B90261E08E
:1004C0003DC08EEC91E00E940305882389F06AE428
:1004D00071E087E692E00E94DB078EEC91E00E94DB
:1004E0004B056091D8018AEC91E00E94A10529C0DA
:1004F0008EEC91E00E942705882389F061E571E088
:1005000087E692E00E94DB078EEC91E00E944B05AB
:100510006091D8018AEC91E00E94B30512C068E5B1
:1005200071E087E692E00E94DB076CE871E08EECF8
:1005300091E00E94B10C1092D40160E087E00E942B
:100540006406789408950F93CF93DF93EC016A8348
:100550004B832C830D8380E1689FB001112482E0DE
:1005600090E00E94710F99838883DF91CF910F9162
:1005700008958F929F92AF92BF92CF92DF92EF92A7
:10058000FF920F931F93CF93DF93EC0160E08D8177
:100590000E946406AA8080E1A89E50011124850172
:1005A00001501109000F111FC12CD12C88248394F4
:1005B000912CCA14DB0461F18BE0E82EF12C60E091
:1005C0008B810E946406C4010E2C02C0880F991F03
:1005D0000A94E2F7E881F981E00FF11F208131816F
:1005E00082239323892B11F061E001C060E08C81AC
:1005F0000E94640661E08B810E94640681E0E81A33
:10060000F108E8F68FEFC81AD80A02501109D1CFC5
:1006100060E08B810E94640661E08D810E94640627
:1006200060E08D81DF91CF911F910F91FF90EF904E
:10063000DF90CF90BF90AF909F908F900C94640606
:10064000DF92EF92FF920F931F93CF93DF9300D02F
:10065000CDB7DEB77C01FC018281262F30E0F0E1CE
:100660008F9FC0011124821793070CF45CC0062FE2
:1006700010E0F8013197E031F10580F5EA5AFF4FBB
:100680000C946B0FD12C37C078E0D72E34C06CE0BF
:10069000D62E31C030E1D32E2EC024E1D22E2BC075
:1006A00098E1D92E28C08CE1D82E25C000E2D02EAA
:1006B00022C014E2D12E1FC0B8E2DB2E1CC0ACE277
:1006C000DA2E19C0F0E3DF2E16C0E4E3DE2E13C0ED
:1006D00078E3D72E10C06CE3D62E0DC065E771E02D
:1006E00087E692E049835A830E94DB0749815A8159
:1006F00002C034E0D32E9A01411570E1570710F083
:100700002FEF3FE0F70190818181E92FF82FED0D68
:10071000F11DED0DF11D3183208333832283358359
:100720002483378326830F900F90DF91CF911F9101
:100730000F91FF90EF90DF9008950F931F93CF9349
:10074000DF93EC0188819981892B59F161E08B81DC
:100750000E942B0661E08C810E942B0661E08D8156
:100760000E942B0660E08D810E94640600E211E089
:1007700060E08B810E94640661E08C810E946406C7
:1007800060E08B810E9464060150110989F761E0E5
:100790008D810E94640660E08D810E94640681E084
:1007A00001C080E0DF91CF911F910F9108951F93B9
:1007B000CF93DF93EC0111E040E050E0612FCE01D8
:1007C0000E9420031F5F1930B9F7CE01DF91CF914E
:1007D0001F910C94B902CF93DF93EC016CE871E0A8
:1007E0000E949B0C1E821F82198618861B861A8601
:1007F0001C861D861E861F86188AFE01EF56FF4F37
:10080000CE0141969183808368E873E1CE01DF9148
:10081000CF910C945E0CEF92FF920F931F93CF93A6
:10082000DF938C018DE8E82E81E0F82EC0E0D0E067
:10083000BE01C8010E94080DF70121917F01FC0152
:10084000808182130DC02196C530D10589F76CE8EF
:1008500071E0C8010E94B10CF801168281E001C06C
:1008600080E0DF91CF911F910F91FF90EF9008955D
:10087000EF92FF920F931F93CF93DF938C0123E9A5
:10088000E22E21E0F22EC0E0D0E0BE01C8010E94BD
:10089000080DF70121917F01FC018081821711F081
:1008A00080E01AC02196C330D10579F797E9E92E87
:1008B00091E0F92EC5E0D0E0BE01C8010E94080D0C
:1008C000F70121917F01FC0180818213E9CF2196FC
:1008D000CA30D10589F781E0DF91CF911F910F9147
:1008E000FF90EF900895AF92BF92CF92DF92EF9278
:1008F000FF920F931F93CF93DF93EC018C010F5660
:100900001F4FF801E080F18063E070E00E94080D65
:10091000FC018081F7018083F801E080F180C7014C
:1009200001969183808364E070E0CE010E94080DFF
:10093000FC018081F7018183F8018081918101961A
:10094000918380833AE0E32EF12CF801C080D180BE
:10095000B701CE010E94080DFC018081F601808361
:10096000F80180819181019691838083FFEFEF1AD6
:10097000FF0A8EE0E816F10441F75E01E1E1AE0EF8
:10098000B11CC5010E947E116B017C016C877D87C3
:100990008E879F8720E137E240E050E00E94490FB8
:1009A0002F8340EF58ED249FC001259F900D112407
:1009B0008C0D9D1D998788872AE030E0B701A6013C
:1009C00087E692E00E9463086BE871E087E692E0B8
:1009D0000E94DB07F801B182A0826CE871E0CE01D1
:1009E0000E94B10C1E8280E8F50111928A95E9F708
:1009F000DF91CF911F910F91FF90EF90DF90CF90FB
:100A0000BF90AF900895EF92FF920F931F93CF93F3
:100A1000DF937C010DE911E0C0E0D0E0BE01C70129
:100A20000E94080DF80121918F01FC018081821341
:100A300006C02196C530D10589F781E001C080E06C
:100A4000DF91CF911F910F91FF90EF900895EF925A
:100A5000FF920F931F93CF93DF937C0103EA11E082
:100A6000C0E0D0E0BE01C7010E94080DF80121914D
:100A70008F01FC018081821306C02196C530D1050B
:100A800089F781E001C080E0DF91CF911F910F9144
:100A9000FF90EF900895CF92DF92EF92FF920F9325
:100AA0001F93CF93DF93EC0145E0E42EF12C8C01F2
:100AB0000F561F4FF801C080D180B701CE010E94B0
:100AC000080DFC018081F6018083F801808191810D
:100AD000019691838083FFEFEF1AFF0A88E0E81602
:100AE000F10441F77E01E1E1EE0EF11CC7010E9425
:100AF0007E116F3F710509F018F47B876A8704C087
:100B00008FEF90E09B878A87F801F182E0826CE8A2
:100B100071E0CE010E94B10C1E8280E8F7011192B3
:100B20008A95E9F7DF91CF911F910F91FF90EF9098
:100B3000DF90CF900895FC017183608353834283DB
:100B40000895CF93C62F4AE050E087E692E00E94D6
:100B500070086BE871E087E692E00E94DB07C093C3
:100B60008800CF910895CF93C62F4AE050E087E6E2
:100B700092E00E9470086BE871E087E692E00E94C4
:100B8000DB07C0939800CF910895109288001092CF
:100B900098000895CF93DF93EC0161E088810E9473
:100BA0002B0661E08A810E942B06E1E8F0E080815B
:100BB000887F81608083E0E8F0E0808181688083C5
:100BC000E1E9F0E08081887F81608083E0E9F0E006
:100BD000808181688083DF91CF91089590E0FC014E
:100BE0003197EF30F105B0F5EA59FF4F0C946B0FD8
:100BF000809180008F7703C0809180008F7D8093EB
:100C00008000089580918000877FF9CF84B58F7729
:100C100002C084B58F7D84BD0895809190008F7748
:100C200007C0809190008F7D03C080919000877FE6
:100C30008093900008958091C0008F7703C08091C9
:100C4000C0008F7D8093C00008958091C200877F8F
:100C50008093C2000895CF93DF9390E0FC01E85F9A
:100C6000FE4F2491FC01EA5DFE4F8491882349F1F7
:100C700090E0880F991FFC01EE5AFE4FA591B491A8
:100C80008C5B9E4FFC01C591D4919FB7611108C048
:100C9000F8948C91209582238C93888182230AC0BA
:100CA000623051F4F8948C91322F309583238C93D9
:100CB0008881822B888304C0F8948C91822B8C933A
:100CC0009FBFDF91CF9108950F931F93CF93DF9331
:100CD0001F92CDB7DEB7282F30E0F901E651FF4F64
:100CE0008491F901E85FFE4F1491F901EA5DFE4F2E
:100CF00004910023C9F0882321F069830E94EE0546
:100D00006981E02FF0E0EE0FFF1FEC5BFE4FA59135
:100D1000B4919FB7F8948C91611103C01095812311
:100D200001C0812B8C939FBF0F90DF91CF911F91BA
:100D30000F910895CF93DF931F92CDB7DEB76983EC
:100D4000DC01ED91FC910280F381E02D41E050E067
:100D5000BE016F5F7F4F09950F90DF91CF9108958E
:100D6000CF93DF93EC018C859D8597FF05C082E0D2
:100D70000E9458099D878C878C859D85DF91CF9136
:100D8000089583E00C94AD0BFC018485958597FD57
:100D900006C082E00E94000990E00196089582E07A
:100DA0000E94000990E00895FC018485958597FDD7
:100DB00005C02FEF3FEF35872487089582E00C941C
:100DC0005809CF93DF93EC0180910D01882331F016
:100DD00083E00E9489091816190634F081E090E03A
:100DE0009B838A8380E090E0DF91CF910895FC019E
:100DF00020812E5F208342E450E060E671E080E8CD
:100E00000C94240AFC0181819081913A59F4813239
:100E100009F03CC047E050E066E071E080E00E94ED
:100E2000240A43C0913291F5803239F467E070E0D2
:100E300086E091E00E94550A06C0823209F035C072
:100E4000828180930D018091060190910701A0910C
:100E50000801B0910901803B9440A105B105C1F49E
:100E600080910D0180FD14C087E797E790930108FA
:100E7000809300082BE088E190E00FB6F894A895E5
:100E8000809360000FBE209360000FC080E0089543
:100E900088E10FB6F89480936000109260000FBE56
:100EA000A895109201081092000881E008952FEF94
:100EB0003FEFFC01358724870895CF93C0910D0142
:100EC0006AE070E080E090E00E94870D81E0C1114F
:100ED00001C080E0CF91089510926A0210926902D9
:100EE00088EE93E0A0E0B0E080936B0290936C02F8
:100EF000A0936D02B0936E028DEA91E09093680228
:100F0000809367028FEF9FEF909374028093730238
:100F1000089508950E94AF0D0E94890787EB92E023
:100F20000E940D0C0E94A201C0E0D0E00E941902B4
:100F30002097E1F30E940000F9CFCF92DF92EF9269
:100F4000FF920F931F93CF93DF936C017A01EB0114
:100F5000E60EF71E00E010E0CE15DF0561F06991A6
:100F6000D601ED91FC910190F081E02DC60109952B
:100F7000080F191FF1CFC801DF91CF911F910F9179
:100F8000FF90EF90DF90CF9008956115710581F08B
:100F9000DB010D900020E9F7AD0141505109461BDE
:100FA000570BDC01ED91FC910280F381E02D099457
:100FB00080E090E008950C94C507DC01ED91FC9170
:100FC0000190F081E02D09940F931F93CF93DF934D
:100FD000EC016DE00E94DD078C016AE0CE010E9409
:100FE000DD07800F911FDF91CF911F910F91089521
:100FF0000F931F93CF93DF93EC010E94C5078C01E1
:10100000CE010E94E407800F911FDF91CF911F91C5
:101010000F9108958F929F92AF92BF92CF92DF92DD
:10102000EF92FF920F931F93CF93DF93CDB7DEB76D
:10103000A1970FB6F894DEBF0FBECDBF7C01C42EC2
:10104000E52FCB01D22E19A221E02D1510F02AE0B8
:10105000D22E8E010F5D1F4F8D2C912CA12CB12C07
:101060006C2D7E2FA50194010E94490F8C2DD29EDC
:1010700080191124015011098A3014F4805D01C0D7
:10108000895CF8018083211531054105510521F066
:10109000C22EE32FCA01E4CFB801C7010E94C507E1
:1010A000A1960FB6F894DEBF0FBECDBFDF91CF91F2
:1010B0001F910F91FF90EF90DF90CF90BF90AF9076
:1010C0009F908F9008952115310541F4DC01ED9139
:1010D000FC910190F081E02D642F09940C940A0892
:1010E0000F931F93CF93DF93EC019A01462F50E0AB
:1010F00060E070E00E9463088C01CE010E94E4076A
:10110000800F911FDF91CF911F910F910895409112
:10111000BB025091BC022091B9023091BA02421731
:101120005307B4F49091E8009570E1F39091E800D2
:1011300092FD19C08093F1008091BB029091BC0296
:1011400001968F739927892B19F48EEF8093E8000D
:101150008091BB029091BC0201969093BC02809357
:10116000BB0281E0089580E00895CF92DF92FF9264
:101170000F931F93CF93DF931F92CDB7DEB7082F46
:10118000162F862F880F8E5F99830E94870883E031
:101190000E948708F02EC02E9981D92E8C2D8F1990
:1011A000811778F4F60184910E948708082F80E067
:1011B0000E9487088023FFEFCF1ADF0A8111EECF4C
:1011C00001C081E00F90DF91CF911F910F91FF90AF
:1011D000DF90CF900895615030F02091F100FC0134
:1011E00020830196F8CF289A84E68093BE02089562
:1011F0002FB7FC012083F89467706093E90008958D
:10120000CF93DF931F92CDB7DEB7682FCE01019643
:101210000E94F8088091F20099819FBF0F90DF91A2
:10122000CF910895FF920F931F93CF93DF9300D038
:10123000CDB7DEB7F62E8A019091BD02992311F049
:1012400057FF03C08FEF9FEF2BC0682FCE01019691
:101250007A830E94F8088091F20090E0A8017A81D8
:10126000801791070CF4AC01EF2DF72FF40E84E6F4
:10127000FE1639F0289A8093BE029091F100919366
:10128000F7CF4115510521F08091F200882321F01C
:1012900089818FBFCA0104C08BE68093E800F8CF34
:1012A0000F900F90DF91CF911F910F91FF900895B4
:1012B000CF93DF931F92CDB7DEB741E050E0BE0180
:1012C0006F5F7F4F0E941209019719F4898190E0A6
:1012D00002C08FEF9FEF0F90DF91CF910895CF93D2
:1012E000DF931F92CDB7DEB7682FCE0101960E9423
:1012F000F8089091E800892F807295FF04C09091C2
:10130000F20080E4891B99819FBF0F90DF91CF91FC
:1013100008956F927F928F929F92AF92BF92CF92D9
:10132000DF92EF92FF920F931F93CF93DF931F9261
:10133000CDB7DEB7782E7B01C42EB52E8091BD02CD
:10134000882369F0042F152F8AEFD82E872D8072FD
:10135000982E9AE3A92E872D8074882E11C08FEFC6
:101360009FEF57C0872D0E946F09682E81110CC016
:10137000DA94A9F361E070E080E090E00E94870DCC
:101380000115110579F73BC0282F30E0021713072C
:101390000CF4602E672DCE0101960E94F808809112
:1013A000E80085FF29C0262D30E0021B130B992091
:1013B00039F06A948FEF6816B1F01092F100F9CF0E
:1013C000F701862D77FE07C0815058F094919093D5
:1013D000F1003196F9CF815020F091919093F10076
:1013E000FACFE20EF31E8091E80085FF0FC00115D1
:1013F000110511F481100AC089818FBFC1CF5D9A98
:1014000084E68093BF028C2D9B2D03C0A092E80040
:10141000F3CF0F90DF91CF911F910F91FF90EF903D
:10142000DF90CF90BF90AF909F908F907F906F9004
:1014300008951092E9001092BC021092BB029093A2
:10144000BA028093B9020895CF92DF92FF920F9370
:101450001F93CF93DF9300D0CDB7DEB7F82E8A016C
:101460006B0101151105B1F0F601F7FE02C0849180
:1014700001C0808149835A830E9487080150110965
:10148000FFEFCF1ADF0A49815A818111EACF8FEF2E
:101490009FEF01C0CA010F900F90DF91CF911F9174
:1014A0000F91FF90DF90CF9008951F93CF93DF931C
:1014B0001F92CDB7DEB7162F2091E80022FFFCCF98
:1014C000612F79830E94EB088BEF8093E800812FD6
:1014D0007981972F0F90DF91CF911F910895CF932E
:1014E000DF931F92CDB7DEB71982CE0101960E941D
:1014F000F706CE0101960E94230E898190E00F909D
:10150000DF91CF9108951F920F920FB60F92112481
:10151000EF92FF920F931F932F933F934F935F93FD
:101520006F937F938F939F93AF93BF93EF93FF93AB
:10153000CF93DF93CDB7DEB76297DEBFCDBF1092FA
:10154000E9008091E80083FFEBC068E0CE010A96D5
:101550000E94EB0882EF8093E8009A8597FF05C010
:101560008091E80080FFFCCF03C08EEF8093E800FD
:10157000892F807609F0B9C08B85811105C0109242
:10158000F1001092F100C5C0282F2D7F213009F401
:10159000C0C0853049F48091E80080FFFCCF8C8585
:1015A00080688093E300B5C0863009F076C02D8551
:1015B000E888F988223071F580E090E02A8B0E945B
:1015C000190A0E946F0A99E08E010F5F1F4FF80100
:1015D000392F11923A95E9F799832A892A8391E064
:1015E0009E8390E898879AEF99872091BB0230916B
:1015F000BC02275F3F4F3C832B838D83C7010E9432
:10160000190A49E050E0B80180E00E94240A0E94D3
:101610006F0A7FC0C7012A8B0E94190A2A892232C9
:1016200041F482E290E00E942E0E892B09F071C0F5
:1016300074C0213069F488899989089711F420933E
:10164000B8028091B802811118C069EB71E01AC02C
:10165000233009F062C08C85882391F0823021F418
:101660006DE087ED91E006C0813009F056C06BE077
:101670008BEC91E00E94B5084AC067EA71E002C0B5
:1016800065EE71E06115710509F447C0FB014491F5
:1016900050E080E80E94240A3CC0873009F43DC035
:1016A000883021F481E08093F10033C0893089F5DE
:1016B000937099F5E3EAF1E081E021E096E380930D
:1016C000E9002093EB0034913093EC009093ED000F
:1016D0008F5F3196853099F78EE78093EA001092FC
:1016E000EA008C858093BD0214C0888999890E9484
:1016F000190A8E85811105C0CE010A960E94020743
:1017000006C0823051F4CE010A960E94560E8823FC
:1017100021F08EEF8093E80003C081E28093EB001C
:1017200062960FB6F894DEBF0FBECDBFDF91CF91AA
:10173000FF91EF91BF91AF919F918F917F916F91A9
:101740005F914F913F912F911F910F91FF90EF90DB
:101750000F900FBE0F901F9018958093E900809115
:10176000F200882319F08AE38093E80008951F921D
:101770000F920FB60F9211242F933F934F935F93C5
:101780006F937F938F939F93AF93BF93EF93FF9349
:101790008091E1001092E10083FF0FC01092E900F8
:1017A00091E09093EB001092EC0092E39093ED00A7
:1017B0001092BD0298E09093F00082FF1DC083E07C
:1017C0000E94AD0B8091BF02882339F08091BF0247
:1017D00081508093BF02882369F08091BE028823E4
:1017E00059F08091BE0281508093BE02811104C0E5
:1017F000289802C05D98F1CFFF91EF91BF91AF9112
:101800009F918F917F916F915F914F913F912F9118
:101810000F900FBE0F901F9018951092BD0281E09F
:101820008093D70080EA8093D80082E189BD09B413
:1018300000FEFDCF61E070E080E090E00E94870D47
:1018400080E98093D8008CE08093E2001092E00061
:10185000559A209A5D9828980895FC01808191817D
:101860000C942510CF93DF93EC0188819981009728
:1018700011F00E942510198218821D821C821B8281
:101880001A82DF91CF9108950F931F93CF93DF9327
:10189000EC018B016F5F7F4F888199810E94B410AA
:1018A000009731F0998388831B830A8381E001C00C
:1018B00080E0DF91CF911F910F910895CF93DF9337
:1018C000EC0188819981892B29F08A819B81861777
:1018D000970760F4CE010E94440C882341F08C816C
:1018E0009D81892B19F4E881F981108281E0DF91D3
:1018F000CF910895EF92FF920F931F93CF93DF93B1
:10190000EC017B018A01BA010E945E0C811104C0C6
:10191000CE010E94320C07C01D830C83B701888161
:1019200099810E94B511CE01DF91CF911F910F9146
:10193000FF90EF900895FC011182108213821282B1
:10194000158214826115710559F0FB010190002088
:10195000E9F7AF0141505109461B570B0C947A0C23
:101960000895CF93DF93EC016115710561F0FB01E0
:1019700001900020E9F7AF0141505109461B570B78
:101980000E947A0C02C00E94320CCE01DF91CF91EE
:101990000895EF92FF920F931F93CF93DF93EC0183
:1019A0007B010C811D816115710511F480E016C069
:1019B0004115510591F0040F151FB8010E945E0CEE
:1019C0008823A1F3288139818C819D81B701820F01
:1019D000931F0E94B5111D830C8381E0DF91CF918D
:1019E0001F910F91FF90EF900895CF93DF9300D058
:1019F000CDB7DEB769831A8241E050E0BE016F5F68
:101A00007F4F0E94C90C0F900F90DF91CF910895E6
:101A1000FC01848195816817790720F48081918188
:101A2000009729F41092C00280EC92E00895860F8E
:101A3000971F08951F920F920FB60F9211242F93A4
:101A40003F938F939F93AF93BF938091C2029091E6
:101A5000C302A091C402B091C5023091C10223E03B
:101A6000230F2D3720F40196A11DB11D05C026E8D6
:101A7000230F0296A11DB11D2093C1028093C202C3
:101A80009093C302A093C402B093C5028091C60292
:101A90009091C702A091C802B091C9020196A11D00
:101AA000B11D8093C6029093C702A093C802B09361
:101AB000C902BF91AF919F918F913F912F910F904C
:101AC0000FBE0F901F9018953FB7F8948091C602F3
:101AD0009091C702A091C802B091C90226B5A89BF7
:101AE00005C02F3F19F00196A11DB11D3FBF66270C
:101AF000782F892F9A2F620F711D811D911D42E051
:101B0000660F771F881F991F4A95D1F70895CF92C6
:101B1000DF92EF92FF92CF93DF936B017C010E94E3
:101B2000640DEB01C114D104E104F10489F00E94B9
:101B3000480F0E94640D6C1B7D0B683E734090F350
:101B400081E0C81AD108E108F108C851DC4FEACF9A
:101B5000DF91CF91FF90EF90DF90CF900895789430
:101B600084B5826084BD84B5816084BD85B58260A2
:101B700085BD85B5816085BDEEE6F0E08081816040
:101B80008083E1E8F0E01082808182608083808140
:101B900081608083E0E8F0E0808181608083E1E91A
:101BA000F0E0808182608083808181608083E0E9D1
:101BB000F0E0808181608083E1ECF0E080818460EE
:101BC0008083808182608083808181608083E3EC78
:101BD000F0E0808181608083E0ECF0E080818260D1
:101BE0008083E2ECF0E0808181608083EAE7F0E0CE
:101BF0008081846080838081826080838081816035
:101C000080838081806880830895FF920F931F9363
:101C1000CF93DF93EC01F62EE881F9810480F58102
:101C2000E02D09958C01E881F9810680F781E02D8E
:101C30006F2DCE010995C8019927DF91CF911F9192
:101C40000F91FF900895FC0120812F5F208349E1CF
:101C500050E069E672E080E80C94240A45E650E022
:101C600062E872E080E80C94240AEF92FF920F93EE
:101C70001F93CF93DF931F92CDB7DEB789838B017C
:101C80007A0141E050E0BE016F5F7F4F84E00E9427
:101C90008909A701B80184E40E9489090F90DF91A6
:101CA000CF911F910F91FF90EF900895FC019181CA
:101CB0008081813A31F481E0913091F0933089F460
:101CC00011C0813271F49B3021F4828180930F0125
:101CD00005C09A3031F4828180930E0181E008952D
:101CE000089580E0089548E050E082E00C94350EBD
:101CF000CF93DF93DC01683818F0E8E7E60F25C0E2
:101D0000E62FF0E067FF11C0E058F10981E090E0B4
:101D100001C0880FEA95EAF714969C911497982BC6
:101D200014969C931497E0E010C0E751FE4FE491A5
:101D3000EE2309F440C0E7FF08C014968C91149775
:101D4000826014968C931497EF7716968C91169761
:101D50008E1741F117968C9117978E1719F11896D7
:101D60008C9118978E17F1F019968C9119978E1700
:101D7000C9F01A968C911A978E17A1F01B968C9128
:101D80001B978E1779F080E090E0ED01C80FD91F06
:101D90002E81211102C0EE8305C001968630910587
:101DA000A1F709C0BD016C5F7F4FCD010E94730E8A
:101DB00081E090E008C081E090E013969C938E93C0
:101DC000129780E090E0DF91CF910895683818F085
:101DD000E8E7E60F25C0E62FF0E067FF12C0E05805
:101DE000F10921E030E001C0220FEA95EAF72095E1
:101DF000DC0114963C911497322314963C93E0E056
:101E00000FC0E751FE4FE491EE2329F1E7FF08C030
:101E1000DC0114962C9114972D7F14962C93EF7758
:101E200020E030E0EE2351F0DC01A20FB31F169644
:101E30004C9116974E1302C016961C922F5F3F4F7F
:101E40002630310579F7BC016C5F7F4F0E94730E1D
:101E500081E090E0089580E090E00895FC01168212
:101E6000178210861186128613861482BC016C5F5D
:101E70007F4F0C94730E1092D6021092CD021092E6
:101E8000CC028DEB91E09093CB028093CA0208952F
:101E90000895A1E21A2EAA1BBB1BFD010DC0AA1FAB
:101EA000BB1FEE1FFF1FA217B307E407F50720F0C3
:101EB000A21BB30BE40BF50B661F771F881F991F3E
:101EC0001A9469F760957095809590959B01AC0187
:101ED000BD01CF010895EE0FFF1F0590F491E02D95
:101EE00009940F931F93CF93DF93869F8001879F61
:101EF000100D969F100D1124C8010E948D0FEC014A
:101F0000009729F0A80160E070E00E94AE11CE01B8
:101F1000DF91CF911F910F910895CF93DF9382307E
:101F2000910510F482E090E0E091D902F091DA029C
:101F300020E030E0A0E0B0E0309739F140815181FD
:101F400048175907B8F04817590771F482819381EF
:101F5000109729F013969C938E9312972CC0909310
:101F6000DA028093D90227C02115310531F04217DA
:101F7000530718F0A901DB0101C0EF019A01BD016F
:101F8000DF010280F381E02DD7CF21153105F9F073
:101F9000281B390B2430310580F48A819B8161151F
:101FA000710521F0FB019383828304C09093DA02D0
:101FB0008093D902FE01329644C0FE01E20FF31F66
:101FC0008193919322503109398328833AC020911B
:101FD000D7023091D802232B41F420910201309195
:101FE00003013093D8022093D70220910001309151
:101FF00001012115310541F42DB73EB7409104018F
:1020000050910501241B350BE091D702F091D802C5
:10201000E217F307A0F42E1B3F0B2817390778F0BF
:10202000AC014E5F5F4F2417350748F04E0F5F1F1E
:102030005093D8024093D7028193919302C0E0E07D
:10204000F0E0CF01DF91CF910895CF93DF93009718
:1020500009F487C0FC01329713821282C091D90221
:10206000D091DA02209781F420813181280F391F25
:102070008091D7029091D8028217930779F5F09357
:10208000D802E093D7026DC0DE0120E030E0AE1749
:10209000BF0750F412964D915C9113979D01411525
:1020A000510509F1DA01F3CFB383A2834081518155
:1020B000840F951F8A179B0771F48D919C9111973E
:1020C000840F951F02969183808312968D919C9127
:1020D0001397938382832115310529F4F093DA0253
:1020E000E093D9023EC0D9011396FC93EE93129768
:1020F0004D915D91A40FB51FEA17FB0779F480811C
:102100009181840F951F0296D90111969C938E930D
:102110008281938113969C938E931297E0E0F0E076
:102120008A819B81009719F0FE01EC01F9CFCE0165
:10213000029628813981820F931F2091D702309116
:10214000D8022817390769F4309729F41092DA0277
:102150001092D90202C013821282D093D802C09387
:10216000D702DF91CF910895A0E0B0E0EAEBF0E173
:102170000C94D511EC01CB01209719F40E948D0F1E
:10218000B8C0FE01E60FF71F9E0122503109E21789
:10219000F30708F4ACC0D9010D911C9111970617F3
:1021A0001707B8F00530110508F49FC0A801445086
:1021B00051094617570708F498C002501109061B29
:1021C000170B019311936D937C93CF010E942510FF
:1021D0008CC05B01A01AB10A4E01800E911EA09125
:1021E000D902B091DA02612C712C60E070E0109796
:1021F00009F449C0A815B905C9F5ED90FC901197EF
:10220000670142E0C40ED11CCA14DB0478F1470117
:102210008A189B08640142E0C40ED11C1296BC903F
:1022200012971396AC91B5E0CB16D10440F0B28270
:10223000A38391828082D9018D939C9309C00E5F04
:102240001F4F0E0D1F1DF90111830083EB2DFA2F77
:102250006115710531F0DB011396FC93EE93129733
:1022600044C0F093DA02E093D9023FC06D917C91B3
:1022700011976616770608F43B01BD0112960D9082
:10228000BC91A02DB4CF6091D7027091D80268158F
:102290007905E9F468167906D0F44091000150916F
:1022A00001014115510541F44DB75EB7609104013C
:1022B00070910501461B570BE417F507C0F4F09326
:1022C000D802E093D702F901918380830EC00E9467
:1022D0008D0F7C01009759F0A801BE010E94A51145
:1022E000CE010E942510C70104C0CE0102C080E0CB
:1022F00090E0CDB7DEB7EEE00C94F1111F93FC0136
:1023000099278827BC01E89411911032E9F319301C
:1023100010F01E30C8F31B3251F01D3249F468949E
:1023200006C00E94BC11610F711D811D911D11918C
:1023300010531A30B0F33EF49095809570956195E6
:102340007F4F8F4F9F4F1F910895FB01DC0102C00B
:1023500001900D9241505040D8F70895DC0101C022
:102360006D9341505040E0F70895FB01DC0101906E
:102370000D920020E1F70895592F482F372F262F6F
:10238000660F771F881F991F660F771F881F991F79
:10239000620F731F841F951F660F771F881F991F79
:1023A00008952F923F924F925F926F927F928F92F9
:1023B0009F92AF92BF92CF92DF92EF92FF920F93D4
:1023C0001F93CF93DF93CDB7DEB7CA1BDB0B0FB6DE
:1023D000F894DEBF0FBECDBF09942A88398848889B
:1023E0005F846E847D848C849B84AA84B984C88431
:1023F000DF80EE80FD800C811B81AA81B981CE0F28
:10240000D11D0FB6F894DEBF0FBECDBFED0108950C
:1024100012E0CEEED2E004C0FE010E946D0F2296C3
:0A242000C03FD107C9F7F894FFCFC1
:10242A000000DB02800000E1000000000000010162
:10243A0052696E67206C6967687420726561647995
:10244A002100496E707574206578706563746564DF
:10245A003A00676F7420736F6D657468696E673AC6
:10246A0020002B52657365740D004E504F4C592055
:10247A000059504F4C5920005570732E2E2053741A
:10248A0072696E6720646F65736E2774206D61745C
:10249A006368210D004368616E6E656C206E6F740F
:1024AA0020617661696C61626C65210D0052455349
:1024BA004554004C45440056414C5545004E504F3A
:1024CA004C590059504F4C5900000000009A06E13F
:1024DA0006C406D406B006C10600000000050E9D1B
:0824EA0007780EE60E2E0F002C
:00000001FF
