:100000000C947F010C94A7010C94A7010C94A701F8
:100010000C94A7010C94A7010C94A7010C94A701C0
:100020000C94A7010C94A7010C943B0D0C94070CA5
:100030000C94A7010C94A7010C94A7010C94A701A0
:100040000C94A7010C94A7010C94A7010C94A70190
:100050000C94A7010C94A7010C94A7010C94F00533
:100060000C94A7010C94A7010C94A7010C94A70170
:100070000C94A7010C94A7010C94A7010C94A70160
:100080000C94A7010C94A7010C94A7010C94DC011B
:100090000C94A7010C94A7010C94A7010C94A70140
:1000A0000C94A7010C94A7010C94A701720391036F
:1000B000740377037A037D03800383030107060734
:1000C0000B0715071F076907690769072907330722
:1000D0003D074707540769075C078A078D077C07B8
:1000E00080078607AE07AE07AE0791079507990709
:1000F0009F07A307AE07A9070000000200090F0031
:1001000000030401000C00000000000000000000DB
:100110000000000000000408020110408040102090
:1001200040804080080204018040201002011080BD
:1001300010204040040404040403040502020202E7
:100140000403020202020606060606060404020270
:10015000020400000000250028002B002E003100C2
:1001600000000000240027002A002D003000080BAA
:100170000002020201000904000001020200000561
:1001800024001001052401010104240206052406AF
:1001900000010705810310004009040100020A0064
:1001A000000007050202400000070583024000002E
:1001B00000C18081C11201000202000040412337CA
:1001C0008000010102000112010002000000404114
:1001D00023378000010102000141726475696E6F6E
:1001E000204C4C430041726475696E6F204D696309
:1001F000726F000403090400000000000000002AE0
:100200002B2800000000000000000000000000009B
:10021000000000000000002C9EB4A0A1A2A434A6FF
:10022000A7A5AE362D3738271E1F202122232425CF
:1002300026B333B62EB7B89F8485868788898A8B84
:100240008C8D8E8F909192939495969798999A9B76
:100250009C9D2F3130A3AD350405060708090A0B14
:100260000C0D0E0F101112131415161718191A1B56
:100270001C1DAFB1B0B5000904020001030000006D
:1002800009210101000122650007058403400001E6
:1002900005010902A1010901A10085010509190152
:1002A0002903150025019503750181029501750546
:1002B000810305010930093109381581257F750849
:1002C00095038106C0C005010906A1018502050745
:1002D00019E029E7150025017501950881029501AE
:1002E0007508810395067508150025650507190031
:1002F00029658100C0001502F008D50F2B021124DA
:100300001FBECFEFDAE0DEBFCDBF11E0A0E0B1E06D
:10031000ECE5F5E202C005900D92A23EB107D9F7D7
:1003200022E0A2EEB1E001C01D92A53FB207E1F7C5
:1003300012E0CCEFD2E004C02297FE010E9406102A
:10034000C63FD107C9F70E940E090C94A1120C9464
:100350000000E1E9F0E0808187608083E1E7F0E080
:10036000808181608083089540E458E360E070E01C
:100370008AE892E00E94DB088AE892E00E94E108A5
:100380008823D1F30E94A90160E171E08AE892E03C
:100390000E947C098BE792E00E94B30362E271E065
:1003A0008AE892E00E947C098BE792E00E94D003E9
:1003B00084EE91E00C94E1051F920F920FB60F921C
:1003C00011242F933F934F935F936F937F938F935A
:1003D0009F93AF93BF93EF93FF938091E30181309D
:1003E00029F48091E2018F5F8093E2018091E20124
:1003F0008D3350F01092E3011092E20164E371E05A
:100400008AE892E00E945F09FF91EF91BF91AF915E
:100410009F918F917F916F915F914F913F912F911C
:100420000F900FBE0F901F9018950F9308E024E0D7
:1004300046E061E08BE792E00E94D30288EE91E013
:100440000E94E40345E050E063E070E084EE91E058
:100450000F910C94940588EE91E00C94B10DCF931C
:10046000DF93D1E08AE892E00E944808892BB9F036
:10047000D093E3018AE892E00E945808C82F682FC1
:1004800088EE91E00E94790ECA3011F0CD3051F71C
:10049000D093EE011092E2011092E301E3CFDF91DD
:1004A000CF910895F8948AE892E00E9448081816BF
:1004B000190614F40E942F028091EE01882309F49A
:1004C00070C062E471E08AE892E00E945F0988EE01
:1004D00091E00E940404882379F08BE792E00E9467
:1004E000D00384EE91E00E94E1056DE571E08AE8B9
:1004F00092E00E945F0955C088EE91E00E943104AD
:10050000882399F088EE91E00E946C044091F001FC
:100510005091F1016091EF018BE792E00E9450034E
:100520008BE792E00E94E9023CC088EE91E00E94D5
:10053000FC04882389F065E671E08AE892E00E9475
:100540005F0988EE91E00E9444056091F20184EE1B
:1005500091E00E94AF0525C088EE91E00E94200541
:10056000882389F06CE671E08AE892E00E945F09D6
:1005700088EE91E00E9444056091F20184EE91E0E2
:100580000E94C8050EC063E771E08AE892E00E940D
:100590005F0967EA71E088EE91E00E94350E1092E3
:1005A000EE01789408950F93CF93DF93EC016A8363
:1005B0004B832C830D8388E1689FB001112482E076
:1005C00090E00E940A1099838883DF91CF910F9168
:1005D00008958F929F92AF92BF92CF92DF92EF9247
:1005E000FF920F931F93CF93DF93EC0160E08D8117
:1005F0000E94E807AA8088E1A89E50011124850185
:1006000001501109000F111FC12CD12C8824839493
:10061000912CCA14DB0461F18BE0E82EF12C60E030
:100620008B810E94E807C4010E2C02C0880F991F1D
:100630000A94E2F7E881F981E00FF11F208131810E
:1006400082239323892B11F061E001C060E08C814B
:100650000E94E80761E08B810E94E80781E0E81AC8
:10066000F108E8F68FEFC81AD80A02501109D1CF65
:1006700060E08B810E94E80761E08D810E94E807BD
:1006800060E08D81DF91CF911F910F91FF90EF90EE
:10069000DF90CF90BF90AF909F908F900C94E80721
:1006A000CF92DF92FF920F931F93CF93DF9300D0EF
:1006B000CDB7DEB76C01FC018281262F30E0F8E077
:1006C0008F9FC0011124821793070CF442C0062F9C
:1006D00010E0F8013197E830F105C0F4EA5AFF4F15
:1006E0000C940410F12C1FC0B6E0FB2E1CC0A9E036
:1006F000FA2E19C0FCE0FF2E16C0EFE0FE2E13C04C
:1007000072E1F72E10C065E1F62E0DC060E971E0D0
:100710008AE892E049835A830E945F0949815A819D
:1007200002C033E0F32E9A01411570E1570710F033
:100730002FEF3FE0F60190818181E92FF82FEF0D37
:10074000F11DEF0DF11D3183208333832283358327
:1007500024830F900F90DF91CF911F910F91FF9005
:10076000DF90CF900895CF93DF93EC01888199813A
:10077000892B91F061E08B810E94AF0761E08C8151
:100780000E94AF0761E08D810E94AF0760E08D811C
:100790000E94E80781E001C080E0DF91CF910895D9
:1007A0001F93CF93DF93EC0110E040E050E0612F06
:1007B000CE010E9450031F5F1831B9F7CE01DF91BF
:1007C000CF911F910C94E902CF93DF93EC0167EA7C
:1007D00071E00E941F0E1E821F82198618861B86DA
:1007E0001A861C861D861E861F86188AFE01EF56F5
:1007F000FF4FCE0141969183808368E873E1CE017B
:10080000DF91CF910C94E20DEF92FF920F931F9323
:10081000CF93DF938C0188EAE82E81E0F82EC0E0C8
:10082000D0E0BE01C8010E948C0EF70121917F012A
:10083000FC01808182130DC02196C530D10589F756
:1008400067EA71E0C8010E94350EF801168281E066
:1008500001C080E0DF91CF911F910F91FF90EF9049
:100860000895EF92FF920F931F93CF93DF938C0124
:100870002EEAE22E21E0F22EC0E0D0E0BE01C80157
:100880000E948C0EF70121917F01FC01808182176B
:1008900011F080E01AC02196C330D10579F792EBB0
:1008A000E92E91E0F92EC5E0D0E0BE01C8010E941A
:1008B0008C0EF70121917F01FC0180818213E9CF29
:1008C0002196CA30D10589F781E0DF91CF911F9140
:1008D0000F91FF90EF900895AF92BF92CF92DF9269
:1008E000EF92FF920F931F93CF93DF93EC018C0154
:1008F0000F561F4FF801E080F18063E070E00E9426
:100900008C0EFC018081F7018083F801E080F1808A
:10091000C70101969183808364E070E0CE010E945C
:100920008C0EFC018081F7018183F8018081918127
:100930000196918380833AE0E32EF12CF801C08088
:10094000D180B701CE010E948C0EFC018081F6019E
:100950008083F80180819181019691838083FFEFEC
:10096000EF1AFF0A8EE0E816F10441F75E01E1E1BB
:10097000AE0EB11CC5010E9417126B017C016C8781
:100980007D878E879F8720E137E240E050E00E941C
:10099000E20F2F8340EF58ED249FC001259F900D5B
:1009A00011248C0D9D1D998788872AE030E0B701BE
:1009B000A6018AE892E00E94E70966EA71E08AE807
:1009C00092E00E945F09F801B182A08267EA71E0BB
:1009D000CE010E94350E1E8280E8F50111928A95A3
:1009E000E9F7DF91CF911F910F91FF90EF90DF908A
:1009F000CF90BF90AF900895EF92FF920F931F9307
:100A0000CF93DF937C0108EB11E0C0E0D0E0BE01A2
:100A1000C7010E948C0EF80121918F01FC01808199
:100A2000821306C02196C530D10589F781E001C047
:100A300080E0DF91CF911F910F91FF90EF9008958B
:100A4000EF92FF920F931F93CF93DF937C010EEBF6
:100A500011E0C0E0D0E0BE01C7010E948C0EF80199
:100A600021918F01FC018081821306C02196C5303F
:100A7000D10589F781E001C080E0DF91CF911F911E
:100A80000F91FF90EF900895CF92DF92EF92FF9237
:100A90000F931F93CF93DF93EC0145E0E42EF12CED
:100AA0008C010F561F4FF801C080D180B701CE01D5
:100AB0000E948C0EFC018081F6018083F801808108
:100AC0009181019691838083FFEFEF1AFF0A88E0FE
:100AD000E816F10441F77E01E1E1EE0EF11CC701D9
:100AE0000E9417126F3F710509F018F47B876A871F
:100AF00004C08FEF90E09B878A87F801F182E08243
:100B000067EA71E0CE010E94350E1E8280E8F7018F
:100B100011928A95E9F7DF91CF911F910F91FF9084
:100B2000EF90DF90CF900895CF93DF93EC01842F67
:100B3000798368834A835B8361E00E94AF0761E049
:100B400088810E94AF0760E070E088810E94DB0628
:100B500060E070E08A81DF91CF910C94DB061F93F7
:100B6000CF93DF93EC01162F4AE050E08AE892E041
:100B70000E94F40966EA71E08AE892E00E945F0947
:100B8000612F70E08881DF91CF911F910C94DB067B
:100B90001F93CF93DF93EC01162F4AE050E08AE8D1
:100BA00092E00E94F40966EA71E08AE892E00E940D
:100BB0005F09612F70E08A81DF91CF911F910C94C2
:100BC000DB06CF93DF93EC0160E070E08A810E9446
:100BD000DB0660E070E08881DF91CF910C94DB064A
:100BE0001F920F920FB60F9211242F933F938F9362
:100BF0009F93AF93BF938091820290918302A091C3
:100C00008402B09185023091810223E0230F2D37B9
:100C100020F40196A11DB11D05C026E8230F029600
:100C2000A11DB11D209381028093820290938302C3
:100C3000A0938402B09385028091860290918702EE
:100C4000A0918802B09189020196A11DB11D8093E7
:100C5000860290938702A0938802B0938902BF9185
:100C6000AF919F918F913F912F910F900FBE0F9059
:100C70001F9018953FB7F894809186029091870253
:100C8000A0918802B091890226B5A89B05C02F3F8C
:100C900019F00196A11DB11D3FBF6627782F892F3E
:100CA0009A2F620F711D811D911D42E0660F771F03
:100CB000881F991F4A95D1F70895CF92DF92EF923E
:100CC000FF92CF93DF936B017C010E943A06EB0108
:100CD000C114D104E104F10489F00E949E0E0E9427
:100CE0003A066C1B7D0B683E734090F381E0C81A96
:100CF000D108E108F108C851DC4FEACFDF91CF916C
:100D0000FF90EF90DF90CF900895789484B5826043
:100D100084BD84B5816084BD85B5826085BD85B59F
:100D2000816085BDEEE6F0E0808181608083E1E84E
:100D3000F0E0108280818260808380818160808386
:100D4000E0E8F0E0808181608083E1E9F0E080818B
:100D500082608083808181608083E0E9F0E080812F
:100D600081608083E1ECF0E0808184608083808119
:100D700082608083808181608083E3ECF0E0808109
:100D800081608083E0ECF0E0808182608083E2EC2F
:100D9000F0E0808181608083EAE7F0E08081846018
:100DA0008083808182608083808181608083808174
:100DB0008068808308951F93CF93DF93182FEB01F2
:100DC00061E00E94AF07209711F460E004C0CF3FBC
:100DD000D10539F461E0812FDF91CF911F910C94FF
:100DE000E807E12FF0E0E850FF4F449150E0FA01AE
:100DF0003197EF30F10508F06CC0E25AFF4F0C94C8
:100E0000041084B5806884BDC7BD68C084B58062A5
:100E100084BDC8BD63C080918000806880938000DD
:100E2000D0938900C093880059C08091800080626F
:100E300080938000D0938B00C0938A004FC0809134
:100E40008000886080938000D0938D00C0938C00D8
:100E500045C080919000806880939000D093990065
:100E6000C09398003BC08091900080628093900076
:100E7000D0939B00C0939A0031C08091900088600D
:100E800080939000D0939D00C0939C0027C08091D8
:100E9000C00080688093C0008091C0008F7B8093E9
:100EA000C000C093CF001AC08091C00080628093C0
:100EB000C000C093D00012C08091C20088608093AF
:100EC000C2008091C2008B7F8093C200C093D20089
:100ED00005C0C038D1050CF07DCF77CFDF91CF9121
:100EE0001F91089590E0FC013197EF30F105B0F5C6
:100EF000E359FF4F0C940410809180008F7703C05A
:100F0000809180008F7D8093800008958091800083
:100F1000877FF9CF84B58F7702C084B58F7D84BD7C
:100F20000895809190008F7707C0809190008F7D09
:100F300003C080919000877F8093900008958091F6
:100F4000C0008F7703C08091C0008F7D8093C00068
:100F500008958091C200877F8093C2000895CF9347
:100F6000DF9390E0FC01EA5EFE4F2491FC01EC5C13
:100F7000FE4F8491882349F190E0880F991FFC016E
:100F8000E05AFE4FA591B4918E5A9E4FFC01C59137
:100F9000D4919FB7611108C0F8948C912095822359
:100FA0008C93888182230AC0623051F4F8948C912A
:100FB000322F309583238C938881822B888304C0C1
:100FC000F8948C91822B8C939FBFDF91CF910895E1
:100FD0000F931F93CF93DF931F92CDB7DEB7282FC8
:100FE00030E0F901E850FF4F8491F901EA5EFE4FCD
:100FF0001491F901EC5CFE4F04910023C9F08823A1
:1010000021F069830E9472076981E02FF0E0EE0F02
:10101000FF1FEE5AFE4FA591B4919FB7F8948C91A3
:10102000611103C01095812301C0812B8C939FBF58
:101030000F90DF91CF911F910F910895CF93DF9380
:101040001F92CDB7DEB76983DC01ED91FC91028080
:10105000F381E02D41E050E0BE016F5F7F4F0995C5
:101060000F90DF91CF910895CF93DF93EC018C85A2
:101070009D8597FF05C082E00E94DC0A9D878C87D2
:101080008C859D85DF91CF91089583E00C94310D7F
:10109000FC018485958597FD06C082E00E94840A44
:1010A00090E00196089582E00E94840A90E00895FD
:1010B000FC018485958597FD05C02FEF3FEF3587AF
:1010C0002487089582E00C94DC0ACF93DF93EC012F
:1010D00080910D01882331F083E00E940D0B1816DA
:1010E000190634F081E090E09B838A8380E090E0F1
:1010F000DF91CF910895FC0120812E5F208342E48F
:1011000050E06EE671E080E80C94A80BFC01818150
:101110009081913A59F4813209F03CC047E050E0A7
:1011200066E071E080E00E94A80B43C0913291F527
:10113000803239F467E070E086E091E00E94D90BDC
:1011400006C0823209F035C0828180930D01809102
:10115000060190910701A0910801B0910901803B1F
:101160009440A105B105C1F480910D0180FD14C02A
:1011700087E797E790930108809300082BE088E1C8
:1011800090E00FB6F894A895809360000FBE20936E
:1011900060000FC080E0089588E10FB6F894809356
:1011A0006000109260000FBEA89510920108109286
:1011B000000881E008952FEF3FEFFC013587248779
:1011C0000895CF93C0910D016AE070E080E090E057
:1011D0000E945D0681E0C11101C080E0CF910895B9
:1011E00010928D0210928C0288EE93E0A0E0B0E0A5
:1011F00080938E0290938F02A0939002B0939102FD
:1012000088EC91E090938B0280938A028FEF9FEF9E
:101210009093970280939602089508950E94850600
:101220000E940D098AED92E00E94910D0E94B40186
:10123000C0E0D0E00E9452022097E1F30E9400003B
:10124000F9CFCF92DF92EF92FF920F931F93CF933C
:10125000DF936C017A01EB01E60EF71E00E010E06F
:10126000CE15DF0561F06991D601ED91FC910190F9
:10127000F081E02DC6010995080F191FF1CFC801B3
:10128000DF91CF911F910F91FF90EF90DF90CF9062
:1012900008956115710581F0DB010D900020E9F7DB
:1012A000AD0141505109461B570BDC01ED91FC91FA
:1012B0000280F381E02D099480E090E008950C9481
:1012C0004909DC01ED91FC910190F081E02D099438
:1012D0000F931F93CF93DF93EC016DE00E946109A0
:1012E0008C016AE0CE010E946109800F911FDF919D
:1012F000CF911F910F9108950F931F93CF93DF9379
:10130000EC010E9449098C01CE010E946809800FFE
:10131000911FDF91CF911F910F9108958F929F920E
:10132000AF92BF92CF92DF92EF92FF920F931F93F3
:10133000CF93DF93CDB7DEB7A1970FB6F894DEBF9A
:101340000FBECDBF7C01C42EE52FCB01D22E19A23A
:1013500021E02D1510F02AE0D22E8E010F5D1F4FD7
:101360008D2C912CA12CB12C6C2D7E2FA5019401DC
:101370000E94E20F8C2DD29E801911240150110978
:101380008A3014F4805D01C0895CF80180832115E6
:1013900031054105510521F0C22EE32FCA01E4CFEA
:1013A000B801C7010E944909A1960FB6F894DEBFA3
:1013B0000FBECDBFDF91CF911F910F91FF90EF90A6
:1013C000DF90CF90BF90AF909F908F9008952115A0
:1013D000310541F4DC01ED91FC910190F081E02DAB
:1013E000642F09940C948E090F931F93CF93DF936E
:1013F000EC019A01462F50E060E070E00E94E7099E
:101400008C01CE010E946809800F911FDF91CF915E
:101410001F910F9108954091DE025091DF022091BB
:10142000DC023091DD0242175307B4F49091E800DA
:101430009570E1F39091E80092FD19C08093F1005E
:101440008091DE029091DF0201968F739927892B9C
:1014500019F48EEF8093E8008091DE029091DF0214
:1014600001969093DF028093DE0281E0089580E090
:101470000895CF92DF92FF920F931F93CF93DF9344
:101480001F92CDB7DEB7082F162F862F880F8E5FDD
:1014900099830E940B0A83E00E940B0AF02EC02E53
:1014A0009981D92E8C2D8F19811778F4F6018491AA
:1014B0000E940B0A082F80E00E940B0A8023FFEF96
:1014C000CF1ADF0A8111EECF01C081E00F90DF91CA
:1014D000CF911F910F91FF90DF90CF9008956150B1
:1014E00030F02091F100FC0120830196F8CF289A7A
:1014F00084E68093E10208952FB7FC012083F894DD
:1015000067706093E9000895CF93DF931F92CDB782
:10151000DEB7682FCE0101960E947C0A8091F2000E
:1015200099819FBF0F90DF91CF910895FF920F9304
:101530001F93CF93DF9300D0CDB7DEB7F62E8A018D
:101540009091E002992311F057FF03C08FEF9FEFB6
:101550002BC0682FCE0101967A830E947C0A80916D
:10156000F20090E0A8017A81801791070CF4AC0199
:10157000EF2DF72FF40E84E6FE1639F0289A8093AB
:10158000E1029091F1009193F7CF4115510521F0BF
:101590008091F200882321F089818FBFCA0104C0A5
:1015A0008BE68093E800F8CF0F900F90DF91CF91FA
:1015B0001F910F91FF900895CF93DF931F92CDB7A6
:1015C000DEB741E050E0BE016F5F7F4F0E94960A98
:1015D000019719F4898190E002C08FEF9FEF0F907F
:1015E000DF91CF910895CF93DF931F92CDB7DEB7F0
:1015F000682FCE0101960E947C0A9091E800892F05
:10160000807295FF04C09091F20080E4891B99815B
:101610009FBF0F90DF91CF9108956F927F928F922D
:101620009F92AF92BF92CF92DF92EF92FF920F9371
:101630001F93CF93DF931F92CDB7DEB7782E7B0138
:10164000C42EB52E8091E002882369F0042F152F57
:101650008AEFD82E872D8072982E9AE3A92E872D97
:101660008074882E11C08FEF9FEF57C0872D0E9486
:10167000F30A682E81110CC0DA94A9F361E070E0DE
:1016800080E090E00E945D060115110579F73BC0EE
:10169000282F30E0021713070CF4602E672DCE01BF
:1016A00001960E947C0A8091E80085FF29C0262DC2
:1016B00030E0021B130B992039F06A948FEF681603
:1016C000B1F01092F100F9CFF701862D77FE07C037
:1016D000815058F094919093F1003196F9CF815058
:1016E00020F091919093F100FACFE20EF31E8091D9
:1016F000E80085FF0FC00115110511F481100AC023
:1017000089818FBFC1CF5D9A84E68093E2028C2DE0
:101710009B2D03C0A092E800F3CF0F90DF91CF91F3
:101720001F910F91FF90EF90DF90CF90BF90AF90FF
:101730009F908F907F906F9008951092E900109283
:10174000DF021092DE029093DD028093DC020895A6
:10175000CF92DF92FF920F931F93CF93DF9300D02E
:10176000CDB7DEB7F82E8A016B0101151105B1F076
:10177000F601F7FE02C0849101C0808149835A833B
:101780000E940B0A01501109FFEFCF1ADF0A4981AD
:101790005A818111EACF8FEF9FEF01C0CA010F90EC
:1017A0000F90DF91CF911F910F91FF90DF90CF901D
:1017B00008951F93CF93DF931F92CDB7DEB7162FF7
:1017C0002091E80022FFFCCF612F79830E946F0AED
:1017D0008BEF8093E800812F7981972F0F90DF9115
:1017E000CF911F910895CF93DF931F92CDB7DEB7AE
:1017F0001982CE0101960E947B08CE0101960E94BB
:10180000BD0E898190E00F90DF91CF9108951F92D6
:101810000F920FB60F921124EF92FF920F931F9326
:101820002F933F934F935F936F937F938F939F93E8
:10183000AF93BF93EF93FF93CF93DF93CDB7DEB713
:101840006297DEBFCDBF1092E9008091E80083FF70
:10185000EBC068E0CE010A960E946F0A82EF809387
:10186000E8009A8597FF05C08091E80080FFFCCFD3
:1018700003C08EEF8093E800892F807609F0B9C00D
:101880008B85811105C01092F1001092F100C5C046
:10189000282F2D7F213009F4C0C0853049F4809174
:1018A000E80080FFFCCF8C8580688093E300B5C0A2
:1018B000863009F076C02D85E888F988223071F5E8
:1018C00080E090E02A8B0E949D0B0E94F30B99E030
:1018D0008E010F5F1F4FF801392F11923A95E9F7EA
:1018E00099832A892A8391E09E8390E898879AEFCA
:1018F00099872091DE023091DF02275F3F4F3C83C2
:101900002B838D83C7010E949D0B49E050E0B801F5
:1019100080E00E94A80B0E94F30B7FC0C7012A8BB6
:101920000E949D0B2A89223241F482E290E00E94BB
:10193000C80E892B09F071C074C0213069F4888900
:101940009989089711F42093DB028091DB028111C1
:1019500018C067EC71E01AC0233009F062C08C85B2
:10196000882391F0823021F46DE085EE91E006C08D
:10197000813009F056C06BE089ED91E00E94390A90
:101980004AC065EB71E002C063EF71E0611571055B
:1019900009F447C0FB01449150E080E80E94A80B85
:1019A0003CC0873009F43DC0883021F481E0809349
:1019B000F10033C0893089F5937099F5E1EBF1E0DE
:1019C00081E021E096E38093E9002093EB003491DD
:1019D0003093EC009093ED008F5F3196853099F74E
:1019E0008EE78093EA001092EA008C858093E002F3
:1019F00014C0888999890E949D0B8E85811105C02C
:101A0000CE010A960E94860806C0823051F4CE01AB
:101A10000A960E94F00E882321F08EEF8093E80052
:101A200003C081E28093EB0062960FB6F894DEBFAC
:101A30000FBECDBFDF91CF91FF91EF91BF91AF91DD
:101A40009F918F917F916F915F914F913F912F91D6
:101A50001F910F91FF90EF900F900FBE0F901F906E
:101A600018958093E9008091F200882319F08AE3A9
:101A70008093E80008951F920F920FB60F921124E1
:101A80002F933F934F935F936F937F938F939F9386
:101A9000AF93BF93EF93FF938091E1001092E10029
:101AA00083FF0FC01092E90091E09093EB00109239
:101AB000EC0092E39093ED001092E00298E0909396
:101AC000F00082FF1DC083E00E94310D8091E20290
:101AD000882339F08091E20281508093E2028823CA
:101AE00069F08091E102882359F08091E1028150F0
:101AF0008093E102811104C0289802C05D98F1CF63
:101B0000FF91EF91BF91AF919F918F917F916F91D5
:101B10005F914F913F912F910F900FBE0F901F90AB
:101B200018951092E00281E08093D70080EA8093BC
:101B3000D80082E189BD09B400FEFDCF61E070E00C
:101B400080E090E00E945D0680E98093D8008CE000
:101B50008093E2001092E000559A209A5D982898B0
:101B60000895FC01808191810C94BE10CF93DF9386
:101B7000EC0188819981009711F00E94BE101982B2
:101B800018821D821C821B821A82DF91CF910895D8
:101B90000F931F93CF93DF93EC018B016F5F7F4F08
:101BA000888199810E944D11009731F09983888333
:101BB0001B830A8381E001C080E0DF91CF911F91F8
:101BC0000F910895CF93DF93EC0188819981892B40
:101BD00029F08A819B818617970760F4CE010E94C5
:101BE000C80D882341F08C819D81892B19F4E881EF
:101BF000F981108281E0DF91CF910895EF92FF92F9
:101C00000F931F93CF93DF93EC017B018A01BA01FD
:101C10000E94E20D811104C0CE010E94B60D07C0E2
:101C20001D830C83B701888199810E944E12CE01D9
:101C3000DF91CF911F910F91FF90EF900895FC01DC
:101C4000118210821382128215821482611571052D
:101C500059F0FB0101900020E9F7AF014150510913
:101C6000461B570B0C94FE0D0895CF93DF93EC01A8
:101C70006115710561F0FB0101900020E9F7AF01EA
:101C800041505109461B570B0E94FE0D02C00E9495
:101C9000B60DCE01DF91CF910895EF92FF920F9391
:101CA0001F93CF93DF93EC017B010C811D816115A4
:101CB000710511F480E016C04115510591F0040F33
:101CC000151FB8010E94E20D8823A1F328813981F4
:101CD0008C819D81B701820F931F0E944E121D833C
:101CE0000C8381E0DF91CF911F910F91FF90EF90D6
:101CF0000895CF93DF9300D0CDB7DEB769831A8202
:101D000041E050E0BE016F5F7F4F0E944D0E0F908B
:101D10000F90DF91CF910895FC0184819581681720
:101D2000790720F480819181009729F41092E302D1
:101D300083EE92E00895860F971F08950895FF920D
:101D40000F931F93CF93DF93EC01F62EE881F98177
:101D50000480F581E02D09958C01E881F9810680E8
:101D6000F781E02D6F2DCE010995C8019927DF91EC
:101D7000CF911F910F91FF900895FC0120812F5F5B
:101D8000208349E150E067E772E080E80C94A80BFB
:101D900045E650E060E972E080E80C94A80BEF9211
:101DA000FF920F931F93CF93DF931F92CDB7DEB7B0
:101DB00089838B017A0141E050E0BE016F5F7F4F64
:101DC00084E00E940D0BA701B80184E40E940D0B72
:101DD0000F90DF91CF911F910F91FF90EF90089599
:101DE000FC0191818081813A31F481E0913091F060
:101DF000933089F411C0813271F49B3021F48281D7
:101E000080930F0105C09A3031F4828180930E01D6
:101E100081E00895089580E0089548E050E082E070
:101E20000C94CF0ECF93DF93DC01683818F0E8E70D
:101E3000E60F25C0E62FF0E067FF11C0E058F1097A
:101E400081E090E001C0880FEA95EAF714969C9132
:101E50001497982B14969C931497E0E010C0E950C7
:101E6000FE4FE491EE2309F440C0E7FF08C014964A
:101E70008C911497826014968C931497EF77169632
:101E80008C9116978E1741F117968C9117978E1794
:101E900019F118968C9118978E17F1F019968C916C
:101EA00019978E17C9F01A968C911A978E17A1F070
:101EB0001B968C911B978E1779F080E090E0ED01D6
:101EC000C80FD91F2E81211102C0EE8305C00196D3
:101ED00086309105A1F709C0BD016C5F7F4FCD0130
:101EE0000E940D0F81E090E008C081E090E0139621
:101EF0009C938E93129780E090E0DF91CF910895AC
:101F0000683818F0E8E7E60F25C0E62FF0E067FF35
:101F100012C0E058F10921E030E001C0220FEA953B
:101F2000EAF72095DC0114963C911497322314961D
:101F30003C93E0E00FC0E950FE4FE491EE2329F11D
:101F4000E7FF08C0DC0114962C9114972D7F14969E
:101F50002C93EF7720E030E0EE2351F0DC01A20F6C
:101F6000B31F16964C9116974E1302C016961C92EC
:101F70002F5F3F4F2630310579F7BC016C5F7F4FF3
:101F80000E940D0F81E090E0089580E090E00895B8
:101F9000FC0116821782108611861286138614821F
:101FA000BC016C5F7F4F0C940D0F1092F0021092E9
:101FB000E7021092E60288ED91E09093E5028093AB
:101FC000E4020895A1E21A2EAA1BBB1BFD010DC05D
:101FD000AA1FBB1FEE1FFF1FA217B307E407F507D9
:101FE00020F0A21BB30BE40BF50B661F771F881FB5
:101FF000991F1A9469F760957095809590959B014B
:10200000AC01BD01CF010895EE0FFF1F0590F491C3
:10201000E02D09940F931F93CF93DF93869F800148
:10202000879F100D969F100D1124C8010E94261045
:10203000EC01009729F0A80160E070E00E944712CF
:10204000CE01DF91CF911F910F910895CF93DF9330
:102050008230910510F482E090E0E091F302F0917B
:10206000F40220E030E0A0E0B0E0309739F14081A8
:10207000518148175907B8F04817590771F4828100
:102080009381109729F013969C938E9312972CC0EE
:102090009093F4028093F30227C02115310531F0AB
:1020A0004217530718F0A901DB0101C0EF019A01A3
:1020B000BD01DF010280F381E02DD7CF211531056D
:1020C000F9F0281B390B2430310580F48A819B817B
:1020D0006115710521F0FB019383828304C0909305
:1020E000F4028093F302FE01329644C0FE01E20F37
:1020F000F31F8193919322503109398328833AC089
:102100002091F1023091F202232B41F4209102013F
:10211000309103013093F2022093F10220910001EB
:10212000309101012115310541F42DB73EB74091A1
:10213000040150910501241B350BE091F102F0914F
:10214000F202E217F307A0F42E1B3F0B2817390702
:1021500078F0AC014E5F5F4F2417350748F04E0F03
:102160005F1F5093F2024093F1028193919302C05A
:10217000E0E0F0E0CF01DF91CF910895CF93DF93BE
:10218000009709F487C0FC01329713821282C09134
:10219000F302D091F402209781F420813181280F3D
:1021A000391F8091F1029091F2028217930779F51D
:1021B000F093F202E093F1026DC0DE0120E030E026
:1021C000AE17BF0750F412964D915C9113979D0185
:1021D0004115510509F1DA01F3CFB383A2834081A0
:1021E0005181840F951F8A179B0771F48D919C91E3
:1021F0001197840F951F02969183808312968D917B
:102200009C911397938382832115310529F4F093D0
:10221000F402E093F3023EC0D9011396FC93EE93CF
:1022200012974D915D91A40FB51FEA17FB0779F442
:1022300080819181840F951F0296D90111969C93FC
:102240008E938281938113969C938E931297E0E0F4
:10225000F0E08A819B81009719F0FE01EC01F9CF33
:10226000CE01029628813981820F931F2091F102BD
:102270003091F2022817390769F4309729F4109247
:10228000F4021092F30202C013821282D093F2027F
:10229000C093F102DF91CF910895A0E0B0E0E3E5B3
:1022A000F1E10C946E12EC01CB01209719F40E941D
:1022B0002610B8C0FE01E60FF71F9E01225031091B
:1022C000E217F30708F4ACC0D9010D911C911197E6
:1022D00006171707B8F00530110508F49FC0A801CC
:1022E000445051094617570708F498C00250110985
:1022F000061B170B019311936D937C93CF010E94E2
:10230000BE108CC05B01A01AB10A4E01800E911E56
:10231000A091F302B091F402612C712C60E070E0A6
:10232000109709F449C0A815B905C9F5ED90FC90BE
:102330001197670142E0C40ED11CCA14DB0478F186
:1023400047018A189B08640142E0C40ED11C129612
:10235000BC9012971396AC91B5E0CB16D10440F027
:10236000B282A38391828082D9018D939C9309C00C
:102370000E5F1F4F0E0D1F1DF90111830083EB2D02
:10238000FA2F6115710531F0DB011396FC93EE9382
:10239000129744C0F093F402E093F3023FC06D91B2
:1023A0007C9111976616770608F43B01BD011296E1
:1023B0000D90BC91A02DB4CF6091F1027091F2020A
:1023C00068157905E9F468167906D0F440910001A2
:1023D000509101014115510541F44DB75EB760912F
:1023E000040170910501461B570BE417F507C0F473
:1023F000F093F202E093F102F901918380830EC021
:102400000E9426107C01009759F0A801BE010E948D
:102410003E12CE010E94BE10C70104C0CE0102C010
:1024200080E090E0CDB7DEB7EEE00C948A121F9307
:10243000FC0199278827BC01E89411911032E9F337
:10244000193010F01E30C8F31B3251F01D3249F420
:10245000689406C00E945512610F711D811D911D67
:10246000119110531A30B0F33EF490958095709509
:1024700061957F4F8F4F9F4F1F910895FB01DC01A6
:1024800002C001900D9241505040D8F70895DC01F0
:1024900001C06D9341505040E0F70895FB01DC010D
:1024A00001900D920020E1F70895592F482F372F02
:1024B000262F660F771F881F991F660F771F881FAB
:1024C000991F620F731F841F951F660F771F881F48
:1024D000991F08952F923F924F925F926F927F9231
:1024E0008F929F92AF92BF92CF92DF92EF92FF9224
:1024F0000F931F93CF93DF93CDB7DEB7CA1BDB0BD0
:102500000FB6F894DEBF0FBECDBF09942A88398874
:1025100048885F846E847D848C849B84AA84B9847B
:10252000C884DF80EE80FD800C811B81AA81B98187
:10253000CE0FD11D0FB6F894DEBF0FBECDBFED019B
:10254000089512E0CCEFD2E004C0FE010E94061014
:0C2550002296CE3FD107C9F7F894FFCFC8
:10255C000000F502800000E1000000000000010115
:10256C0052696E676C696368742062657265697420
:10257C00210045696E6761626520457277617274EE
:10258C0065743A00554152542054696D656F7574E9
:10259C000D00636F6D706C65746564207374726983
:1025AC006E6720617272697665643A20002B526501
:1025BC007365740D004E504F4C59200059504F4CC0
:1025CC005920005570732E2E20537472696E67203B
:1025DC00646F65736E2774206D61746368210D00E0
:1025EC004368616E6E656C206E6F742061766169F4
:1025FC006C61626C65210D005245534554004C458D
:10260C00440056414C5545004E504F4C59005950C2
:10261C004F4C5900000000001E0865084808580877
:10262C0034084508000000009F0E2109120F800F8E
:02263C00C80FC5
:00000001FF
