:100000000C9490010C94C1010C94C1010C94C10199
:100010000C94C1010C94C1010C94C1010C94C10158
:100020000C94C1010C94C1010C94C1010C94C10148
:100030000C94C1010C94C1010C94C1010C94C10138
:100040000C94C1010C94C1010C94C1010C94C10128
:100050000C94C1010C94C1010C94C1010C940106D3
:100060000C94C1010C94AA090C94E0090C94C101F0
:100070000C94C1010C94C1010C94C1010C94C101F8
:100080000C94C1010C94C1010C94C1010C9469023F
:100090000C94C1010C94C1010C94C1010C94C101D8
:1000A0000C94C1010C94C1010C94C1010C94C101C8
:1000B0000C94C1010C94C1010C94C1010C94C101B8
:1000C0000C94C1010C94C1010C94C1010C94C101A8
:1000D0000C94C1010C94C1010C94C1010C94C10198
:1000E0000C94C1018303A203850388038B038E0351
:1000F00091039403D306D806DD06E706F1066A07E6
:10010000FB0603070B0715071F07290738074207D8
:100110006A074C07560760078C078F077E07820720
:100120008807C607930797079D07A107A507AB0791
:10013000AF07B307C607B907BD07C1070C94C607C9
:100140000C94E3080C9482070C94FB060C94A10712
:100150000C94BD070C949D070C94C1070C94A2034A
:100160000C94670A0C948F070C944F080C94B907F1
:100170000C94C1080C9442070C947E070C946A07F7
:100180000C944C070C9438070C9415070C941F071B
:100190000C9483030C94D8060C94DD060C94C002D6
:1001A0000C948E030C94AF070C9429070C948B03CA
:1001B0000C94B3070C9403070C9456070C94410855
:1001C0000C9497070C9493070C9491030C94F106EC
:1001D0000C9488030C9463080C94D3060C94AB071E
:1001E0000C94A5070C94BC020C9488070C94E706A9
:1001F0000C9494030C9436080C940A0A0C9460072F
:100200000C94140A0C948C070C9485030C940B0723
:100210000C94A60200000A0B02090C0D0E0807033D
:1002200004010000000000000000000000000000C9
:1002300000000000000000000000000000000000BE
:10024000121110000000000000000000000000007B
:100250000000000000000000000001021020200843
:100260000810204010204080020102010804020111
:100270000102040810204080804020100804020180
:1002800080040201804020100804020108040201D9
:100290000102040810204080010204081020408060
:1002A00005050505070508080808020202020A0AF2
:1002B0000808040404040101010101010101030310
:1002C000030303030303040707070C0C0C0C0C0CBB
:1002D0000C0C0202020206060606060606060B0BB8
:1002E0000B0B0B0B0B0B00002200250028002B0032
:1002F0002E003100340002010000050108010B014D
:1003000000002100240027002A002D0030003300C7
:1003100001010000040107010A01A602140ABC023F
:1003200011241FBECFEFD1E2DEBFCDBF00E00CBF76
:1003300012E0A0E0B2E0E8EFFDE100E00BBF02C098
:1003400007900D92AA3CB107D9F724E0AAECB2E0DD
:1003500001C01D92A431B207E1F713E0CEE1D3E072
:1003600000E006C022970109FE010BBF0E94670C46
:10037000CA31D10780E00807A9F70E94580A0C94F7
:10038000EA0E0C940000F8948091D602882309F4B8
:1003900070C066E072E082E793E00E94A50A80EDFB
:1003A00092E00E941504882379F083E693E00E948E
:1003B000E1038CEC92E00E94F20561E272E082E7D8
:1003C00093E00E94A50A55C080ED92E00E9442048D
:1003D000882399F080ED92E00E947D044091D8023C
:1003E0005091D9026091D70283E693E00E946003A6
:1003F00083E693E00E94F9023CC080ED92E00E9407
:100400000D05882389F069E272E082E793E00E949B
:10041000A50A80ED92E00E9455056091DA028CEC0D
:1004200092E00E94C00525C080ED92E00E94310557
:10043000882389F060E372E082E793E00E94A50AD6
:1004400080ED92E00E9455056091DA028CEC92E01A
:100450000E94D9050EC067E372E082E793E00E9434
:10046000A50A6DE972E080ED92E00E94D50B109232
:10047000D60278940895E1E9F0E080818760808376
:10048000E1E7F0E0808181608083089526E040E428
:1004900058E360E070E082E793E00E9448090E9420
:1004A0003B0264E572E082E793E00E94C20A83E6C1
:1004B00093E00E94C40366E672E082E793E00E9444
:1004C000C20A83E693E00E94E1038CEC92E00C9474
:1004D000F2051F920F920FB60F9211240BB60F92D6
:1004E0002F933F934F935F936F937F938F939F933C
:1004F000AF93BF93EF93FF938091CB02813029F4A8
:100500008091CA028F5F8093CA028091CA028D33A4
:1005100050F01092CB021092CA0268E772E082E7B4
:1005200093E00E94A50AFF91EF91BF91AF919F9137
:100530008F917F916F915F914F913F912F910F908C
:100540000BBE0F900FBE0F901F9018950F9308E0F1
:1005500024E046E061E083E693E00E94E30280ED60
:1005600092E00E94F50345E050E063E070E08CEC1F
:1005700092E00F910C94A50580ED92E00C94510B44
:10058000CF93DF93D1E082E793E00E943608892B76
:10059000B9F0D093CB0282E793E00E944F08C82FB6
:1005A000682F80ED92E00E94190CCA3011F0CD3016
:1005B00051F7D093D6021092CA021092CB02E3CF29
:1005C000DF91CF9108950F93CF93DF93EC016A836E
:1005D0004B832C830D8388E1689FB001112482E056
:1005E00090E00E946B0C99838883DF91CF910F91EB
:1005F00008958F929F92AF92BF92CF92DF92EF9227
:10060000FF920F931F93CF93DF93EC0160E08D81F6
:100610000E940008AA8088E1A89E5001112485014B
:1006200001501109000F111FC12CD12C8824839473
:10063000912CCA14DB0461F18BE0E82EF12C60E010
:100640008B810E940008C4010E2C02C0880F991FE4
:100650000A94E2F7E881F981E00FF11F20813181EE
:1006600082239323892B11F061E001C060E08C812B
:100670000E94000861E08B810E94000881E0E81A76
:10068000F108E8F68FEFC81AD80A02501109D1CF45
:1006900060E08B810E94000861E08D810E9400086B
:1006A00060E08D81DF91CF911F910F91FF90EF90CE
:1006B000DF90CF90BF90AF909F908F900C940008E8
:1006C000CF92DF92FF920F931F93CF93DF931F92EE
:1006D0001F92CDB7DEB76C01FC018281262F30E07E
:1006E000F8E08F9FC0011124821793070CF442C0D9
:1006F000062F10E0F8013197E830F105C0F4EE580C
:10070000FF4F0C94610CF12C1FC0B6E0FB2E1CC0F7
:10071000A9E0FA2E19C0FCE0FF2E16C0EFE0FE2E75
:1007200013C072E1F72E10C065E1F62E0DC066E829
:1007300072E082E793E049835A830E94A50A4981C7
:100740005A8102C033E0F32E9A01411570E1570738
:1007500010F02FEF3FE0F60190818181E92FF82F13
:10076000EF0DF11DEF0DF11D3183208333832283C3
:10077000358324830F900F90DF91CF911F910F91BC
:10078000FF90DF90CF900895CF93DF93EC018881A5
:100790009981892B91F061E08B810E94C70761E00C
:1007A0008C810E94C70761E08D810E94C70760E0CD
:1007B0008D810E94000881E001C080E0DF91CF912F
:1007C00008951F93CF93DF93EC0110E040E050E0D9
:1007D000612FCE010E9460031F5F1831B9F7CE016F
:1007E000DF91CF911F910C94F902CF93DF93EC012D
:1007F0006DE972E00E94BF0B1E821F821986188667
:100800001B861A861C861D861E861F86188AFE0178
:10081000EF56FF4FCE0141969183808368E873E1E4
:10082000CE01DF91CF910C94820BEF92FF920F9348
:100830001F93CF93DF938C018EE9E82E82E0F82E90
:10084000C0E0D0E0BE01C8010E942D0CF70121914B
:100850007F01FC01808182130DC02196C530D10536
:1008600089F76DE972E0C8010E94D50BF801168284
:1008700081E001C080E0DF91CF911F910F91FF9047
:10088000EF900895EF92FF920F931F93CF93DF9312
:100890008C0124EAE22E22E0F22EC0E0D0E0BE017C
:1008A000C8010E942D0CF70121917F01FC0180817C
:1008B000821711F080E01AC02196C330D10579F774
:1008C00098EAE92E92E0F92EC5E0D0E0BE01C80119
:1008D0000E942D0CF70121917F01FC018081821380
:1008E000E9CF2196CA30D10589F781E0DF91CF9118
:1008F0001F910F91FF90EF900895AF92BF92CF920A
:10090000DF92EF92FF920F931F93CF93DF93EC014F
:100910008C010F561F4FF801E080F18063E070E01A
:100920000E942D0CFC018081F7018083F801E0809A
:10093000F180C70101969183808364E070E0CE016D
:100940000E942D0CFC018081F7018183F8018081D8
:1009500091810196918380833AE0E32EF12CF80196
:10096000C080D180B701CE010E942D0CFC01808196
:10097000F6018083F80180819181019691838083C3
:10098000FFEFEF1AFF0A8EE0E816F10441F75E016F
:10099000E1E1AE0EB11CC5010E94970E6B017C0116
:1009A0006C877D878E879F8720E137E240E050E0AB
:1009B0000E943F0C2F8340EF58ED249FC001259FDC
:1009C000900D11248C0D9D1D998788872AE030E0B9
:1009D000B701A60182E793E00E942D0B6CE972E05B
:1009E00082E793E00E94A50AF801B182A0826DE936
:1009F00072E0CE010E94D50B1E8280E8F5011192B3
:100A00008A95E9F7DF91CF911F910F91FF90EF90B9
:100A1000DF90CF90BF90AF900895EF92FF920F9329
:100A20001F93CF93DF937C010EEA12E0C0E0D0E089
:100A3000BE01C7010E942D0CF80121918F01FC011C
:100A40008081821306C02196C530D10589F781E0E7
:100A500001C080E0DF91CF911F910F91FF90EF9047
:100A60000895EF92FF920F931F93CF93DF937C0132
:100A700004EB12E0C0E0D0E0BE01C7010E942D0CE3
:100A8000F80121918F01FC018081821306C021961B
:100A9000C530D10589F781E001C080E0DF91CF91B9
:100AA0001F910F91FF90EF900895CF92DF92EF92F8
:100AB000FF920F931F93CF93DF93EC0145E0E42E59
:100AC000F12C8C010F561F4FF801C080D180B70167
:100AD000CE010E942D0CFC018081F6018083F8017B
:100AE00080819181019691838083FFEFEF1AFF0A45
:100AF00088E0E816F10441F77E01E1E1EE0EF11C19
:100B0000C7010E94970E6F3F710509F018F47B87AB
:100B10006A8704C08FEF90E09B878A87F801F18293
:100B2000E0826DE972E0CE010E94D50B1E8280E862
:100B3000F70111928A95E9F7DF91CF911F910F91FB
:100B4000FF90EF90DF90CF900895CF93DF93EC016B
:100B5000842F798368834A835B8361E00E94C7079F
:100B600061E088810E94C70760E070E088810E9490
:100B7000AD0660E070E08A81DF91CF910C94AD0604
:100B80001F93CF93DF93EC01162F4AE050E082E7EA
:100B900093E00E943A0B6CE972E082E793E00E94D6
:100BA000A50A612F70E08881DF91CF911F910C948D
:100BB000AD061F93CF93DF93EC01162F4AE050E070
:100BC00082E793E00E943A0B6CE972E082E793E0DF
:100BD0000E94A50A612F70E08A81DF91CF911F9159
:100BE0000C94AD06CF93DF93EC0160E070E08A8156
:100BF0000E94AD0660E070E08881DF91CF910C9497
:100C0000AD061F920F920FB60F9211242F933F93B0
:100C10008F939F93AF93BF9380916A0390916B03DF
:100C2000A0916C03B0916D033091690323E0230F11
:100C30002D3720F40196A11DB11D05C026E8230F14
:100C40000296A11DB11D2093690380936A039093BE
:100C50006B03A0936C03B0936D0380916E0390912E
:100C60006F03A0917003B09171030196A11DB11D96
:100C700080936E0390936F03A0937003B0937103FE
:100C8000BF91AF919F918F913F912F910F900FBE88
:100C90000F901F901895789484B5826084BD84B5B8
:100CA000816084BD85B5826085BD85B5816085BD67
:100CB000EEE6F0E0808181608083E1E8F0E0108280
:100CC000808182608083808181608083E0E8F0E0C1
:100CD000808181608083E1EBF0E0808184608083AB
:100CE000E0EBF0E0808181608083E1E9F0E08081E9
:100CF00082608083808181608083E0E9F0E0808190
:100D000081608083E1EAF0E080818260808380817D
:100D100081608083E0EAF0E0808181608083E1E2AD
:100D2000F1E0808182608083808181608083E0E265
:100D3000F1E0808181608083EAE7F0E08081846077
:100D400080838081826080838081816080838081D4
:100D5000806880831092C10008951F93CF93DF9322
:100D6000182FEB0161E00E94C707209711F460E0A3
:100D700004C0CF3FD10539F461E0812FDF91CF91DD
:100D80001F910C940008E12FF0E0EC5EFD4F4491C0
:100D900050E0FA013197E231F10508F09BC0E658C6
:100DA000FF4F0C94610C84B5806884BDC7BD97C0AB
:100DB00084B5806284BDC8BD92C080918000806887
:100DC00080938000D0938900C093880088C0809170
:100DD0008000806280938000D0938B00C0938A0053
:100DE0007EC080918000886080938000D0938D00C9
:100DF000C0938C0074C08091B00080688093B00074
:100E0000C093B3006CC08091B00080628093B0004A
:100E1000C093B40064C0809190008068809390007B
:100E2000D0939900C09398005AC08091900080623E
:100E300080939000D0939B00C0939A0050C0809103
:100E40009000886080939000D0939D00C0939C0098
:100E500046C08091A00080688093A0008091A0008F
:100E60008F7B8093A000D093A900C093A80037C0C7
:100E70008091A00080628093A000D093AB00C093CB
:100E8000AA002DC08091A00088608093A000D0931C
:100E9000AD00C093AC0023C0809120018068809396
:100EA0002001D0932901C093280119C0809120010D
:100EB000806280932001D0932B01C0932A010FC040
:100EC00080912001886080932001D0932D01C093F0
:100ED0002C0105C0C038D1050CF04ECF48CFDF91B2
:100EE000CF911F91089590E0FC013197E231F10517
:100EF00008F04CC0E457FF4F0C94610C80918000C7
:100F00008F7703C0809180008F7D8093800008954B
:100F100080918000877FF9CF84B58F7702C084B538
:100F20008F7D84BD08958091B0008F7703C080913C
:100F3000B0008F7D8093B0000895809190008F77EE
:100F400007C0809190008F7D03C080919000877FC3
:100F50008093900008958091A0008F7707C08091C2
:100F6000A0008F7D03C08091A000877F8093A000A8
:100F70000895809120018F7707C0809120018F7D97
:100F800003C080912001877F809320010895CF9333
:100F9000DF9390E0FC01E65AFD4F2491FC01E056FE
:100FA000FD4F8491882349F190E0880F991FFC013F
:100FB000E050FD4FA591B4918A519D4FFC01C59120
:100FC000D4919FB7611108C0F8948C912095822329
:100FD0008C93888182230AC0623051F4F8948C91FA
:100FE000322F309583238C938881822B888304C091
:100FF000F8948C91822B8C939FBFDF91CF910895B1
:101000000F931F93CF93DF931F92CDB7DEB7282F97
:1010100030E0F901EC5EFD4F8491F901E65AFD4F95
:101020001491F901E056FD4F04910023C9F0882383
:1010300021F069830E9473076981E02FF0E0EE0FD1
:10104000FF1FEA51FD4FA591B4919FB7F8948C9181
:10105000611103C01095812301C0812B8C939FBF28
:101060000F90DF91CF911F910F910895FC01818D19
:10107000228D90E0805C9F4F821B91098F7399278E
:101080000895FC01918D828D981731F0828DE80FC3
:10109000F11D858D90E008958FEF9FEF0895FC017D
:1010A000918D828D981761F0828DDF01A80FB11D9F
:1010B0005D968C91928D9F5F9F73928F90E00895C3
:1010C0008FEF9FEF08958AE09AE0892B41F080EC42
:1010D00092E0892B21F00E940A0A811125C080E04C
:1010E00090E0892B41F080E090E0892B21F00E9474
:1010F000000081111CC080E090E0892B41F080E06D
:1011000090E0892B21F00E940000811113C080E043
:1011100090E0892BA1F080E090E0892B81F00E9483
:10112000000081110AC008950E94C002D8CF0E9419
:101130000000E1CF0E940000EACF0C940000089567
:10114000FC01848DDF01A80FB11DA35ABF4F2C9164
:10115000848D90E001968F739927848FA689B78933
:101160002C93A089B1898C9180648C93938D848D0C
:10117000981306C00288F389E02D80818F7D8083DB
:101180000895CF93DF93EC01888D8823C9F0EA8915
:10119000FB89808185FD05C0A889B9898C9186FD70
:1011A0000FC00FB607FCF5CF808185FFF2CFA8896D
:1011B000B9898C9185FFEDCFCE010E94A008E7CFC1
:1011C000DF91CF910895CF92DF92FF920F931F93FB
:1011D000CF93DF931F92CDB7DEB76C01DC015B9636
:1011E0009C915B975C968C915C97981307C0509686
:1011F000ED91FC915197808185FD32C0F601038D00
:1012000010E00F5F1F4F0F731127F02EF601848D32
:10121000F81211C00FB607FCF9CFD6015096ED9128
:10122000FC915197808185FFF1CFC60169830E94AF
:10123000A0086981EBCF838DE80FF11DE35AFF4FC2
:101240006083D6015B960C935B975296ED91FC916F
:10125000539780818062808381E058968C930DC083
:10126000D6015696ED91FC91579760835096ED917B
:10127000FC91519780818064808381E090E00F90A1
:10128000DF91CF911F910F91FF90DF90CF90089544
:10129000BF92CF92DF92EF92FF92CF93DF93EC0158
:1012A0006A017B01B22EE889F98982E080834115C9
:1012B00081EE580761057105A1F060E079E08DE3EA
:1012C00090E0A70196010E943F0C2150310941098D
:1012D00051095695479537952795211580E138078F
:1012E00098F0E889F989108260E874E88EE190E06E
:1012F000A70196010E943F0C215031094109510973
:101300005695479537952795EC85FD853083EE8575
:10131000FF852083188EEC89FD89B082EA89FB89DC
:10132000808180618083EA89FB89808188608083F5
:10133000EA89FB89808180688083EA89FB898081D2
:101340008F7D8083DF91CF91FF90EF90DF90CF90E2
:10135000BF9008951F920F920FB60F9211240BB6F3
:101360000F922F938F939F93EF93FF93E0918203BC
:10137000F09183038081E0918803F091890382FDDD
:1013800012C0908180918B038F5F8F7320918C03AB
:10139000821751F0E0918B03F0E0EE58FC4F958FEF
:1013A00080938B0301C08081FF91EF919F918F917A
:1013B0002F910F900BBE0F900FBE0F901F9018959E
:1013C0001F920F920FB60F9211240BB60F922F930C
:1013D0003F934F935F936F937F938F939F93AF93BD
:1013E000BF93EF93FF9382E793E00E94A008FF91E1
:1013F000EF91BF91AF919F918F917F916F915F918D
:101400004F913F912F910F900BBE0F900FBE0F90F9
:101410001F90189582E793E00E94360821E0892BFF
:1014200009F420E0822F089510927503109274033E
:1014300088EE93E0A0E0B0E080937603909377038A
:10144000A0937803B09379038EEB92E090937303AB
:101450008093720385EC90E090937F0380937E03EA
:1014600084EC90E0909381038093800380EC90E083
:10147000909383038093820381EC90E090938503A3
:101480008093840382EC90E090938703809386039B
:1014900086EC90E0909389038093880310928B03ED
:1014A00010928C0310928D0310928E03089508956C
:1014B0000E944B060E94570A0E944602C3E6D8E0EB
:1014C0000E94C3012097E1F30E946308F9CFCF92F5
:1014D000DF92EF92FF920F931F93CF93DF936C01F4
:1014E0007A01EB01E60EF71E00E010E0CE15DF05F5
:1014F00061F06991D601ED91FC910190F081E02DB0
:10150000C6011995080F191FF1CFC801DF91CF91BE
:101510001F910F91FF90EF90DF90CF90089561158C
:10152000710581F0DB010D900020E9F7AD0141501C
:101530005109461B570BDC01ED91FC910280F381B0
:10154000E02D199480E090E008950C948F0ADC015E
:10155000ED91FC910190F081E02D19940F931F9370
:10156000CF93DF93EC016DE00E94A70A8C016AE043
:10157000CE010E94A70A800F911FDF91CF911F918A
:101580000F9108950F931F93CF93DF93EC010E9467
:101590008F0A8C01CE010E94AE0A800F911FDF914D
:1015A000CF911F910F9108958F929F92AF92BF920A
:1015B000CF92DF92EF92FF920F931F93CF93DF931F
:1015C000CDB7DEB7A1970FB6F894DEBF0FBECDBF83
:1015D0007C01C42EE52FCB01D22E19A221E02D15BE
:1015E00010F02AE0D22E8E010F5D1F4F8D2C912C12
:1015F000A12CB12C6C2D7E2FA50194010E943F0CD3
:101600008C2DD29E80191124015011098A3014F4B6
:10161000805D01C0895CF801808321153105410599
:10162000510521F0C22EE32FCA01E4CFB801C70152
:101630000E948F0AA1960FB6F894DEBF0FBECDBFF1
:10164000DF91CF911F910F91FF90EF90DF90CF909E
:10165000BF90AF909F908F9008952115310541F470
:10166000DC01ED91FC910190F081E02D642F199443
:101670000C94D40A0F931F93CF93DF93EC019A013C
:10168000462F50E060E070E00E942D0B8C01CE01EF
:101690000E94AE0A800F911FDF91CF911F910F9191
:1016A0000895FC01808191810C941F0DCF93DF93ED
:1016B000EC0188819981009711F00E941F0D198219
:1016C00018821D821C821B821A82DF91CF9108959D
:1016D0000F931F93CF93DF93EC018B016F5F7F4FCD
:1016E000888199810E94AE0D009731F0998388839B
:1016F0001B830A8381E001C080E0DF91CF911F91BD
:101700000F910895CF93DF93EC0188819981892B04
:1017100029F08A819B818617970760F4CE010E9489
:10172000680B882341F08C819D81892B19F4E88115
:10173000F981108281E0DF91CF910895EF92FF92BD
:101740000F931F93CF93DF93EC017B018A01BA01C2
:101750000E94820B811104C0CE010E94560B07C06B
:101760001D830C83B701888199810E94CE0ECE0122
:10177000DF91CF911F910F91FF90EF900895FC01A1
:1017800011821082138212821582148261157105F2
:1017900059F0FB0101900020E9F7AF0141505109D8
:1017A000461B570B0C949E0B0895CF93DF93EC01CF
:1017B0006115710561F0FB0101900020E9F7AF01AF
:1017C00041505109461B570B0E949E0B02C00E94BC
:1017D000560BCE01DF91CF910895EF92FF920F93B8
:1017E0001F93CF93DF93EC017B010C811D81611569
:1017F000710511F480E016C04115510591F0040FF8
:10180000151FB8010E94820B8823A1F3288139811A
:101810008C819D81B701820F931F0E94CE0E1D8384
:101820000C8381E0DF91CF911F910F91FF90EF909A
:101830000895CF93DF931F921F92CDB7DEB76983D0
:101840001A8241E050E0BE016F5F7F4F0E94ED0BB6
:101850000F900F90DF91CF910895FC0184819581C5
:101860006817790720F480819181009729F41092FC
:101870000F048FE094E00895860F971F0895A1E26A
:101880001A2EAA1BBB1BFD010DC0AA1FBB1FEE1FFA
:10189000FF1FA217B307E407F50720F0A21BB30B45
:1018A000E40BF50B661F771F881F991F1A9469F7C1
:1018B00060957095809590959B01AC01BD01CF011D
:1018C0000895EE0FFF1F0590F491E02D19940790F5
:1018D000F691E02D19940F931F93CF93DF93869F7A
:1018E0008001879F100D969F100D1124C8010E9442
:1018F000870CEC01009729F0A80160E070E00E94DD
:10190000C70ECE01DF91CF911F910F910895CF9314
:10191000DF938230910510F482E090E0E0911204B0
:10192000F091130420E030E0A0E0B0E0309739F10E
:101930004081518148175907B8F04817590771F489
:1019400082819381109729F013969C938E9312971E
:101950002CC0909313048093120427C021153105E5
:1019600031F04217530718F0A901DB0101C0EF0164
:101970009A01BD01DF010280F381E02DD7CF21154F
:101980003105F9F0281B390B2430310580F48A81A8
:101990009B816115710521F0FB019383828304C053
:1019A0009093130480931204FE01329644C0FE010A
:1019B000E20FF31F819391932250310939832883D9
:1019C0003AC02091100430911104232B41F420914E
:1019D00002023091030230931104209310042091ED
:1019E0000002309101022115310541F42DB73EB7B7
:1019F0004091040250910502241B350BE091100424
:101A0000F0911104E217F307A0F42E1B3F0B2817E7
:101A1000390778F0AC014E5F5F4F2417350748F067
:101A20004E0F5F1F509311044093100481939193C4
:101A300002C0E0E0F0E0CF01DF91CF910895CF93B5
:101A4000DF93009709F487C0FC013297138212825A
:101A5000C0911204D0911304209781F42081318128
:101A6000280F391F80911004909111048217930759
:101A700079F5F0931104E09310046DC0DE0120E0CD
:101A800030E0AE17BF0750F412964D915C9113975A
:101A90009D014115510509F1DA01F3CFB383A2830A
:101AA00040815181840F951F8A179B0771F48D9196
:101AB0009C911197840F951F0296918380831296B3
:101AC0008D919C911397938382832115310529F47D
:101AD000F0931304E09312043EC0D9011396FC93D3
:101AE000EE9312974D915D91A40FB51FEA17FB0776
:101AF00079F480819181840F951F0296D901119606
:101B00009C938E938281938113969C938E931297CC
:101B1000E0E0F0E08A819B81009719F0FE01EC0182
:101B2000F9CFCE01029628813981820F931F20912F
:101B30001004309111042817390769F4309729F4FB
:101B4000109213041092120402C013821282D093D6
:101B50001104C0931004DF91CF9108956F927F928A
:101B60008F929F92AF92BF92CF92DF92EF92FF92AD
:101B70000F931F93CF93DF93EC01CB01209781F458
:101B8000DF91CF911F910F91FF90EF90DF90CF9059
:101B9000BF90AF909F908F907F906F900C94870C28
:101BA000FE01E60FF71F9E0122503109E217F307ED
:101BB00008F4ACC0D9010D911C91119706171707B5
:101BC000B8F00530110508F49FC0A8014450510930
:101BD0004617570708F498C002501109061B170B47
:101BE000019311936D937C93CF010E941F0D8CC0C4
:101BF0005B01A01AB10A4E01800E911EA091120441
:101C0000B0911304612C712C60E070E0109709F41E
:101C100049C0A815B905C9F5ED90FC901197670169
:101C200042E0C40ED11CCA14DB0478F147018A18C3
:101C30009B08640142E0C40ED11C1296BC9012971E
:101C40001396AC91B5E0CB16D10440F0B282A383D9
:101C500091828082D9018D939C9309C00E5F1F4FA2
:101C60000E0D1F1DF90111830083EB2DFA2F611555
:101C7000710531F0DB011396FC93EE93129744C08B
:101C8000F0931304E09312043FC06D917C9111977F
:101C90006616770608F43B01BD0112960D90BC91C3
:101CA000A02DB4CF609110047091110468157905CE
:101CB000E9F468167906D0F44091000250910102CF
:101CC0004115510541F44DB75EB760910402709122
:101CD0000502461B570BE417F507C0F4F0931104F7
:101CE000E0931004F901918380830EC00E94870C59
:101CF0007C01009759F0A801BE010E94BE0ECE01E2
:101D00000E941F0DC70104C0CE0102C080E090E018
:101D1000DF91CF911F910F91FF90EF90DF90CF90C7
:101D2000BF90AF909F908F907F906F9008951F937A
:101D3000FC0199278827BC01E89411911032E9F33E
:101D4000193010F01E30C8F31B3251F01D3249F427
:101D5000689406C00E94D50E610F711D811D911DF2
:101D6000119110531A30B0F33EF490958095709510
:101D700061957F4F8F4F9F4F1F910895FB01DC01AD
:101D800002C001900D9241505040D8F70895DC01F7
:101D900001C06D9341505040E0F70895FB01DC0114
:101DA00001900D920020E1F70895592F482F372F09
:101DB000262F660F771F881F991F660F771F881FB2
:101DC000991F620F731F841F951F660F771F881F4F
:101DD000991F089513E0CEE1D3E000E006C02297FA
:101DE0000109FE010BBF0E94670CC032D10780E0E1
:081DF0000807A9F7F894FFCFE2
:101DF800000014048000636F6D706C657465642066
:101E0800737472696E6720617272697665643A20CC
:101E1800002B52657365740D004E504F4C592000CD
:101E280059504F4C5920005570732E2E2053747200
:101E3800696E6720646F65736E2774206D617463C3
:101E480068210D0052696E676C6963687420626569
:101E580072656974210045696E6761626520457223
:101E68007761727465743A00554152542054696D13
:101E7800656F75740D004368616E6E656C206E6FDA
:101E88007420617661696C61626C65210D00524550
:101E9800534554004C45440056414C5545004E505E
:101EA8004F4C590059504F4C590000000000E308AE
:0A1EB800670A36084F084108C10808
:00000001FF
