:100000000C9490010C94C1010C94C1010C94C10199
:100010000C94C1010C94C1010C94C1010C94C10158
:100020000C94C1010C94C1010C94C1010C94C10148
:100030000C94C1010C94C1010C94C1010C94C10138
:100040000C94C1010C94C1010C94C1010C94C10128
:100050000C94C1010C94C1010C94C1010C945B057A
:100060000C94C1010C9404090C943A090C94C1013C
:100070000C94C1010C94C1010C94C1010C94C101F8
:100080000C94C1010C94C1010C94C1010C94C101E8
:100090000C94C1010C94C1010C94C1010C94C101D8
:1000A0000C94C1010C94C1010C94C1010C94C101C8
:1000B0000C94C1010C94C1010C94C1010C94C101B8
:1000C0000C94C1010C94C1010C94C1010C94C101A8
:1000D0000C94C1010C94C1010C94C1010C94C10198
:1000E0000C94C1012B034A032D0330033303360361
:1000F00039033C032D063206370641064B06C4067B
:1001000055065D0665066F067906830692069C060F
:10011000C406A606B006BA06E606E906D806DC0658
:10012000E2062007ED06F106F706FB06FF060507C7
:1001300009070D072007130717071B070C94FF0675
:100140000C94D8060C94A9070C94BD070C94B00627
:100150000C9430030C9465060C9436030C94E20660
:100160000C9433030C940D070C9439030C94E6069D
:100170000C9479060C94BA060C944A030C949206DB
:100180000C9454020C9490070C94F7060C940507F9
:100190000C946F060C94FB060C9441060C94090712
:1001A0000C9413070C94C4060C9420070C941B08A1
:1001B0000C945D060C94ED060C946E090C942D03C2
:1001C0000C9483060C944B060C94DC060C94E90604
:1001D0000C94C1090C949B070C942B030C946E0295
:1001E0000C9432060C9455060C9417070C94F106E7
:1001F0000C949C060C943C030C9464090C943D08EC
:100200000C94A6060C941B070C9437060C942D0630
:100210000C946A0200000A0B02090C0D0E08070379
:1002200004010000000000000000000000000000C9
:1002300000000000000000000000000000000000BE
:10024000121110000000000000000000000000007B
:100250000000000000000000000001021020200843
:100260000810204010204080020102010804020111
:100270000102040810204080804020100804020180
:1002800080040201804020100804020108040201D9
:100290000102040810204080010204081020408060
:1002A00005050505070508080808020202020A0AF2
:1002B0000808040404040101010101010101030310
:1002C000030303030303040707070C0C0C0C0C0CBB
:1002D0000C0C0202020206060606060606060B0BB8
:1002E0000B0B0B0B0B0B00002200250028002B0032
:1002F0002E003100340002010000050108010B014D
:1003000000002100240027002A002D0030003300C7
:1003100001010000040107010A0154026E096A028A
:1003200011241FBECFEFD1E2DEBFCDBF00E00CBF76
:1003300012E0A0E0B2E0EEE7FCE100E00BBF02C09B
:1003400007900D92A03BB107D9F723E0A0EBB2E0F4
:1003500001C01D92A73FB207E1F713E0CEE1D3E061
:1003600000E006C022970109FE010BBF0E94AA0B04
:10037000CA31D10780E00807A9F70E94B2090C949E
:100380002D0E0C94000026E040E458E360E070E09D
:1003900085E593E00E94A20866E072E085E593E0BF
:1003A0000E941C0A86E493E00E946C0368E172E0FC
:1003B00085E593E00E941C0A86E493E00C9489038F
:1003C0008091BA02882309F46EC06AE272E085E582
:1003D00093E00E94FF0984EB92E00E94B40388231B
:1003E00051F064E472E085E593E00E94FF0986E441
:1003F00093E00C94890384EB92E00E94E10388234C
:10040000C1F06CE472E085E593E00E94FF0984EBA3
:1004100092E00E941C044091BC025091BD02609188
:10042000BB0286E493E00E94080386E493E00C9408
:10043000A10284EB92E00E94A704882381F066E584
:1004400072E085E593E00E94FF0984EB92E00E9450
:10045000EF046091BE0280EB92E00C944B0584EBBC
:1004600092E00E94CB04882381F06DE572E085E57F
:1004700093E00E94FF0984EB92E00E94EF046091F8
:10048000BE0280EB92E00C94530564E672E085E5D1
:1004900093E00E94FF0962E872E084EB92E00E9420
:1004A000180B1092BA0208950F9302E025E044E081
:1004B00061E086E493E00E948B0284EB92E00E946C
:1004C0009D0348E050E067E070E080EB92E00F9120
:1004D0000C94300584EB92E00C94940ACF93DF9354
:1004E000D1E085E593E00E949007892B89F085E5AE
:1004F00093E00E94A907C82F682F84EB92E00E9426
:100500005C0BCA3011F0CD3061F7D093BA02E9CF5D
:10051000DF91CF9108950F93CF93DF93EC016A831E
:100520004B832C830D8388E1689FB001112482E006
:1005300090E00E94AE0B99838883DF91CF910F9159
:1005400008958F929F92AF92BF92CF92DF92EF92D7
:10055000FF920F931F93CF93DF93EC0160E08D81A7
:100560000E945A07AA8088E1A89E500111248501A3
:1005700001501109000F111FC12CD12C8824839424
:10058000912CCA14DB0461F18BE0E82EF12C60E0C1
:100590008B810E945A07C4010E2C02C0880F991F3C
:1005A0000A94E2F7E881F981E00FF11F208131819F
:1005B00082239323892B11F061E001C060E08C81DC
:1005C0000E945A0761E08B810E945A0781E0E81A75
:1005D000F108E8F68FEFC81AD80A02501109D1CFF6
:1005E00060E08B810E945A0761E08D810E945A076A
:1005F00060E08D81DF91CF911F910F91FF90EF907F
:10060000DF90CF90BF90AF909F908F900C945A073F
:10061000CF92DF92FF920F931F93CF93DF931F929E
:100620001F92CDB7DEB76C01FC018281262F30E02E
:10063000F8E08F9FC0011124821793070CF442C089
:10064000062F10E0F8013197E830F105C0F4EE58BC
:10065000FF4F0C94A40BF12C1FC0B6E0FB2E1CC066
:10066000A9E0FA2E19C0FCE0FF2E16C0EFE0FE2E26
:1006700013C072E1F72E10C065E1F62E0DC06BE6D7
:1006800072E085E593E049835A830E94FF0949811E
:100690005A8102C033E0F32E9A01411570E15707E9
:1006A00010F02FEF3FE0F60190818181E92FF82FC4
:1006B000EF0DF11DEF0DF11D318320833383228374
:1006C000358324830F900F90DF91CF911F910F916D
:1006D000FF90DF90CF900895CF93DF93EC01888156
:1006E0009981892B91F061E08B810E94210761E063
:1006F0008C810E94210761E08D810E94210760E0CA
:100700008D810E945A0781E001C080E0DF91CF9186
:1007100008951F93CF93DF93EC0110E040E050E089
:10072000612FCE010E9408031F5F1831B9F7CE0177
:10073000DF91CF911F910C94A102CF93DF93EC0135
:1007400062E872E00E94020B1E821F86FE01E057E3
:10075000FF4FCE0140969183808368E873E1CE011C
:10076000DF91CF910C94C50AEF92FF920F931F93E4
:10077000CF93DF938C0183E8E82E82E0F82EC0E06F
:10078000D0E0BE01C8010E94700BF70121917F01EA
:10079000FC01808182130DC02196C530D10589F7F7
:1007A00062E872E0C8010E94180BF801168281E02D
:1007B00001C080E0DF91CF911F910F91FF90EF90EA
:1007C0000895EF92FF920F931F93CF93DF938C01C5
:1007D00029E8E22E22E0F22EC0E0D0E0BE01C801FE
:1007E0000E94700BF70121917F01FC01808182172B
:1007F00011F080E01AC02196C330D10579F79DE849
:10080000E92E92E0F92EC5E0D0E0BE01C8010E94B9
:10081000700BF70121917F01FC0180818213E9CFE8
:100820002196CA30D10589F781E0DF91CF911F91E0
:100830000F91FF90EF900895AF92BF92CF92DF9209
:10084000EF92FF920F931F93CF93DF93EC018C01F4
:1008500000571F4FF801E080F18063E070E00E94D4
:10086000700BFC018081F7018083F801E080F1804A
:10087000C70101969183808364E070E0CE010E94FD
:10088000700BFC018081F7018183F80180819181E7
:100890000196918380833AE0E32EF12CF801C08029
:1008A000D180B701CE010E94700BFC018081F6015E
:1008B0008083F80180819181019691838083FFEF8D
:1008C000EF1AFF0A8EE0E816F10441F75E01E0E15D
:1008D000AE0EB11CC5010E94DA0D6B017C016B8765
:1008E0007C878D879E8720E137E240E050E00E94C0
:1008F000820B2F8340EF58ED249FC001259F900D60
:1009000011248C0D9D1D998788872AE030E0B7015E
:10091000A60185E593E00E94870A61E872E085E51B
:1009200093E00E94FF09F801B182A08262E872E0C0
:10093000CE010E94180B1E82DF91CF911F910F9163
:10094000FF90EF90DF90CF90BF90AF900895EF921F
:10095000FF920F931F93CF93DF937C0103E912E083
:10096000C0E0D0E0BE01C7010E94700BF8012191E8
:100970008F01FC018081821306C02196C530D1050C
:1009800089F781E001C080E0DF91CF911F910F9145
:10099000FF90EF900895EF92FF920F931F93CF93E4
:1009A000DF937C0109E912E0C0E0D0E0BE01C7019D
:1009B0000E94700BF80121918F01FC01808182134C
:1009C00006C02196C530D10589F781E001C080E0DD
:1009D000DF91CF911F910F91FF90EF900895CF92EB
:1009E000DF92EF92FF920F931F93CF93DF93EC016F
:1009F00045E0E42EF12C8C0100571F4FF801C08018
:100A0000D180B701CE010E94700BFC018081F601FC
:100A10008083F80180819181019691838083FFEF2B
:100A2000EF1AFF0A88E0E816F10441F77E01E0E1E1
:100A3000EE0EF11CC7010E94DA0D6A87F801F182FF
:100A4000E08262E872E0CE010E94180B1E82DF9104
:100A5000CF911F910F91FF90EF90DF90CF9008956D
:100A6000CF93DF93EC01842F798368834A835B8380
:100A700061E00E94210761E088810E94210760E017
:100A800070E088810E94070660E070E08A81DF9153
:100A9000CF910C9407066F3F09F46EEF70E0FC01F4
:100AA00080810C9407066F3F09F46EEF70E0FC0143
:100AB00082810C9407061F920F920FB60F92112499
:100AC0002F933F938F939F93AF93BF9380914D0349
:100AD00090914E03A0914F03B091500330914C037D
:100AE00023E0230F2D3720F40196A11DB11D05C071
:100AF00026E8230F0296A11DB11D20934C0380937D
:100B00004D0390934E03A0934F03B09350038091F5
:100B1000510390915203A0915303B0915403019655
:100B2000A11DB11D8093510390935203A0935303D1
:100B3000B0935403BF91AF919F918F913F912F91AB
:100B40000F900FBE0F901F901895789484B5826017
:100B500084BD84B5816084BD85B5826085BD85B561
:100B6000816085BDEEE6F0E0808181608083E1E810
:100B7000F0E0108280818260808380818160808348
:100B8000E0E8F0E0808181608083E1EBF0E080814B
:100B900084608083E0EBF0E0808181608083E1E924
:100BA000F0E0808182608083808181608083E0E9E1
:100BB000F0E0808181608083E1EAF0E08081826002
:100BC0008083808181608083E0EAF0E080818160C1
:100BD0008083E1E2F1E080818260808380818160B6
:100BE0008083E0E2F1E0808181608083EAE7F0E0E9
:100BF0008081846080838081826080838081816045
:100C000080838081806880831092C10008951F9343
:100C1000CF93DF93182FEB0161E00E94210720970B
:100C200011F460E004C0CF3FD10539F461E0812FB9
:100C3000DF91CF911F910C945A07E12FF0E0EC5E09
:100C4000FD4F449150E0FA013197E231F10508F08F
:100C50009BC0E658FF4F0C94A40B84B5806884BDFC
:100C6000C7BD97C084B5806284BDC8BD92C0809165
:100C70008000806880938000D0938900C0938800B2
:100C800088C080918000806280938000D0938B0028
:100C9000C0938A007EC0809180008860809380002D
:100CA000D0938D00C0938C0074C08091B000806898
:100CB0008093B000C093B3006CC08091B00080629C
:100CC0008093B000C093B40064C0809190008068AD
:100CD00080939000D0939900C09398005AC080915F
:100CE0009000806280939000D0939B00C0939A0004
:100CF00050C080919000886080939000D0939D00B8
:100D0000C0939C0046C08091A00080688093A000A2
:100D10008091A0008F7B8093A000D093A900C09306
:100D2000A80037C08091A00080628093A000D0937B
:100D3000AB00C093AA002DC08091A0008860809372
:100D4000A000D093AD00C093AC0023C080912001DF
:100D5000806880932001D0932901C093280119C095
:100D600080912001806280932001D0932B01C09359
:100D70002A010FC080912001886080932001D093C8
:100D80002D01C0932C0105C0C038D1050CF04ECF09
:100D900048CFDF91CF911F91089590E0FC013197EA
:100DA000E231F10508F04CC0E457FF4F0C94A40B5E
:100DB000809180008F7703C0809180008F7D809329
:100DC0008000089580918000877FF9CF84B58F7768
:100DD00002C084B58F7D84BD08958091B0008F7767
:100DE00003C08091B0008F7D8093B0000895809102
:100DF00090008F7707C0809190008F7D03C0809115
:100E00009000877F8093900008958091A0008F7755
:100E100007C08091A0008F7D03C08091A000877FD4
:100E20008093A0000895809120018F7707C0809162
:100E300020018F7D03C080912001877F8093200156
:100E40000895CF93DF9390E0FC01E65AFD4F249183
:100E5000FC01E056FD4F8491882349F190E0880F12
:100E6000991FFC01E050FD4FA591B4918A519D4F0F
:100E7000FC01C591D4919FB7611108C0F8948C9181
:100E8000209582238C93888182230AC0623051F49A
:100E9000F8948C91322F309583238C938881822B08
:100EA000888304C0F8948C91822B8C939FBFDF9130
:100EB000CF9108950F931F93CF93DF931F92CDB7D8
:100EC000DEB7282F30E0F901EC5EFD4F8491F90187
:100ED000E65AFD4F1491F901E056FD4F04910023AD
:100EE000C9F0882321F069830E94CD066981E02F33
:100EF000F0E0EE0FFF1FEA51FD4FA591B4919FB7AF
:100F0000F8948C91611103C01095812301C0812B4D
:100F10008C939FBF0F90DF91CF911F910F910895F8
:100F2000FC01818D228D90E0805C9F4F821B910996
:100F30008F7399270895FC01918D828D981731F058
:100F4000828DE80FF11D858D90E008958FEF9FEF62
:100F50000895FC01918D828D981761F0828DDF01DB
:100F6000A80FB11D5D968C91928D9F5F9F73928F9C
:100F700090E008958FEF9FEF089584E699E0892B24
:100F800041F08EE692E0892B21F00E9464098111E4
:100F900025C080E090E0892B41F080E090E0892B33
:100FA00021F00E94000081111CC080E090E0892B9C
:100FB00041F080E090E0892B21F00E940000811137
:100FC00013C080E090E0892BA1F080E090E0892BB5
:100FD00081F00E94000081110AC008950E946E02F3
:100FE000D8CF0E940000E1CF0E940000EACF0C940D
:100FF00000000895FC01848DDF01A80FB11DA35AE4
:10100000BF4F2C91848D90E001968F739927848F28
:10101000A689B7892C93A089B1898C9180648C931F
:10102000938D848D981306C00288F389E02D80810A
:101030008F7D80830895CF93DF93EC01888D882383
:10104000C9F0EA89FB89808185FD05C0A889B98935
:101050008C9186FD0FC00FB607FCF5CF808185FF10
:10106000F2CFA889B9898C9185FFEDCFCE010E947E
:10107000FA07E7CFDF91CF910895CF92DF92FF92E9
:101080000F931F93CF93DF931F92CDB7DEB76C0101
:10109000DC015B969C915B975C968C915C979813B6
:1010A00007C05096ED91FC915197808185FD32C02B
:1010B000F601038D10E00F5F1F4F0F731127F02E05
:1010C000F601848DF81211C00FB607FCF9CFD601D6
:1010D0005096ED91FC915197808185FFF1CFC6012B
:1010E00069830E94FA076981EBCF838DE80FF11DB8
:1010F000E35AFF4F6083D6015B960C935B97529641
:10110000ED91FC91539780818062808381E05896B5
:101110008C930DC0D6015696ED91FC915797608344
:101120005096ED91FC91519780818064808381E09D
:1011300090E00F90DF91CF911F910F91FF90DF9082
:10114000CF900895BF92CF92DF92EF92FF92CF930C
:10115000DF93EC016A017B01B22EE889F98982E014
:101160008083411581EE580761057105A1F060E0AB
:1011700079E08DE390E0A70196010E94820B215057
:1011800031094109510956954795379527952115FC
:1011900080E1380798F0E889F989108260E874E8FE
:1011A0008EE190E0A70196010E94820B2150310947
:1011B000410951095695479537952795EC85FD8549
:1011C0003083EE85FF852083188EEC89FD89B082FF
:1011D000EA89FB89808180618083EA89FB8980813B
:1011E00088608083EA89FB89808180688083EA89BE
:1011F000FB8980818F7D8083DF91CF91FF90EF907D
:10120000DF90CF90BF9008951F920F920FB60F926C
:1012100011240BB60F922F938F939F93EF93FF930D
:10122000E0916503F09166038081E0916B03F0919A
:101230006C0382FD12C0908180916E038F5F8F736B
:1012400020916F03821751F0E0916E03F0E0EB5AAA
:10125000FC4F958F80936E0301C08081FF91EF91C9
:101260009F918F912F910F900BBE0F900FBE0F90FB
:101270001F9018951F920F920FB60F9211240BB664
:101280000F922F933F934F935F936F937F938F931F
:101290009F93AF93BF93EF93FF9385E593E00E94F5
:1012A000FA07FF91EF91BF91AF919F918F917F913D
:1012B0006F915F914F913F912F910F900BBE0F90C7
:1012C0000FBE0F901F90189585E593E00E94900740
:1012D00021E0892B09F420E0822F08951092580311
:1012E0001092570388EE93E0A0E0B0E0809359039A
:1012F00090935A03A0935B03B0935C0383EA92E05C
:10130000909356038093550385EC90E0909362038D
:101310008093610384EC90E0909364038093630373
:1013200080EC90E0909366038093650381EC90E0FD
:10133000909368038093670382EC90E090936A0334
:101340008093690386EC90E090936C0380936B0329
:1013500010926E0310926F0310927003109271033B
:10136000089508950E94A5050E94B1090E94C30135
:10137000CDEBD7E00E94E0012097E1F30E94BD078A
:10138000F9CFCF92DF92EF92FF920F931F93CF93FB
:10139000DF936C017A01EB01E60EF71E00E010E02E
:1013A000CE15DF0561F06991D601ED91FC910190B8
:1013B000F081E02DC6011995080F191FF1CFC80162
:1013C000DF91CF911F910F91FF90EF90DF90CF9021
:1013D00008956115710581F0DB010D900020E9F79A
:1013E000AD0141505109461B570BDC01ED91FC91B9
:1013F0000280F381E02D199480E090E008950C9430
:10140000E909DC01ED91FC910190F081E02D199446
:101410000F931F93CF93DF93EC016DE00E94010ABD
:101420008C016AE0CE010E94010A800F911FDF91BA
:10143000CF911F910F9108950F931F93CF93DF9337
:10144000EC010E94E9098C01CE010E94080A800F7C
:10145000911FDF91CF911F910F9108958F929F92CD
:10146000AF92BF92CF92DF92EF92FF920F931F93B2
:10147000CF93DF93CDB7DEB7A1970FB6F894DEBF59
:101480000FBECDBF7C01C42EE52FCB01D22E19A2F9
:1014900021E02D1510F02AE0D22E8E010F5D1F4F96
:1014A0008D2C912CA12CB12C6C2D7E2FA50194019B
:1014B0000E94820B8C2DD29E80191124015011099B
:1014C0008A3014F4805D01C0895CF80180832115A5
:1014D00031054105510521F0C22EE32FCA01E4CFA9
:1014E000B801C7010E94E909A1960FB6F894DEBFC2
:1014F0000FBECDBFDF91CF911F910F91FF90EF9065
:10150000DF90CF90BF90AF909F908F90089521155E
:10151000310541F4DC01ED91FC910190F081E02D69
:10152000642F19940C942E0AFC01808191810C94F3
:10153000620CCF93DF93EC0188819981009711F0C1
:101540000E94620C198218821D821C821B821A82E0
:10155000DF91CF9108950F931F93CF93DF93EC0109
:101560008B016F5F7F4F888199810E94F10C0097FA
:1015700031F0998388831B830A8381E001C080E076
:10158000DF91CF911F910F910895CF93DF93EC01DD
:1015900088819981892B29F08A819B8186179707F9
:1015A00060F4CE010E94AB0A882341F08C819D81BA
:1015B000892B19F4E881F981108281E0DF91CF91C4
:1015C0000895EF92FF920F931F93CF93DF93EC0157
:1015D0007B018A01BA010E94C50A811104C0CE01B3
:1015E0000E94990A07C01D830C83B70188819981E5
:1015F0000E94110ECE01DF91CF911F910F91FF90AC
:10160000EF900895FC0111821082138212821582DC
:1016100014826115710559F0FB0101900020E9F772
:10162000AF0141505109461B570B0C94E10A089534
:10163000CF93DF93EC016115710561F0FB0101901F
:101640000020E9F7AF0141505109461B570B0E949A
:10165000E10A02C00E94990ACE01DF91CF9108955C
:10166000EF92FF920F931F93CF93DF93EC017B01D7
:101670000C811D816115710511F480E016C04115C2
:10168000510591F0040F151FB8010E94C50A882367
:10169000A1F3288139818C819D81B701820F931F2D
:1016A0000E94110E1D830C8381E0DF91CF911F9169
:1016B0000F91FF90EF900895CF93DF931F921F92A9
:1016C000CDB7DEB769831A8241E050E0BE016F5F9B
:1016D0007F4F0E94300B0F900F90DF91CF910895B4
:1016E000FC01848195816817790720F480819181BC
:1016F000009729F41092F20382EF93E00895860F89
:10170000971F0895A1E21A2EAA1BBB1BFD010DC055
:10171000AA1FBB1FEE1FFF1FA217B307E407F507A1
:1017200020F0A21BB30BE40BF50B661F771F881F7D
:10173000991F1A9469F760957095809590959B0113
:10174000AC01BD01CF010895EE0FFF1F0590F4918C
:10175000E02D19940790F691E02D19940F931F93A3
:10176000CF93DF93869F8001879F100D969F100D6A
:101770001124C8010E94CA0BEC01009729F0A801AE
:1017800060E070E00E940A0ECE01DF91CF911F91C0
:101790000F910895CF93DF938230910510F482E08A
:1017A00090E0E091F503F091F60320E030E0A0E056
:1017B000B0E0309739F14081518148175907B8F0AE
:1017C0004817590771F482819381109729F0139675
:1017D0009C938E9312972CC09093F6038093F503FD
:1017E00027C02115310531F04217530718F0A90120
:1017F000DB0101C0EF019A01BD01DF010280F3812D
:10180000E02DD7CF21153105F9F0281B390B2430F5
:10181000310580F48A819B816115710521F0FB01FE
:101820009383828304C09093F6038093F503FE01B3
:10183000329644C0FE01E20FF31F81939193225030
:101840003109398328833AC02091F3033091F4039E
:10185000232B41F420910202309103023093F403D0
:101860002093F303209100023091010221153105EC
:1018700041F42DB73EB74091040250910502241B5C
:10188000350BE091F303F091F403E217F307A0F4B2
:101890002E1B3F0B2817390778F0AC014E5F5F4FC6
:1018A0002417350748F04E0F5F1F5093F403409301
:1018B000F3038193919302C0E0E0F0E0CF01DF9168
:1018C000CF910895CF93DF93009709F487C0FC016F
:1018D000329713821282C091F503D091F6032097BC
:1018E00081F420813181280F391F8091F303909179
:1018F000F4038217930779F5F093F403E093F3036D
:101900006DC0DE0120E030E0AE17BF0750F4129644
:101910004D915C9113979D014115510509F1DA0133
:10192000F3CFB383A28340815181840F951F8A171F
:101930009B0771F48D919C911197840F951F0296CE
:101940009183808312968D919C91139793838283C8
:101950002115310529F4F093F603E093F5033EC019
:10196000D9011396FC93EE9312974D915D91A40FBC
:10197000B51FEA17FB0779F480819181840F951FC9
:101980000296D90111969C938E938281938113962E
:101990009C938E931297E0E0F0E08A819B81009700
:1019A00019F0FE01EC01F9CFCE01029628813981B0
:1019B000820F931F2091F3033091F4032817390706
:1019C00069F4309729F41092F6031092F50302C0DF
:1019D00013821282D093F403C093F303DF91CF916B
:1019E00008956F927F928F929F92AF92BF92CF9203
:1019F000DF92EF92FF920F931F93CF93DF93EC014F
:101A0000CB01209781F4DF91CF911F910F91FF902F
:101A1000EF90DF90CF90BF90AF909F908F907F908E
:101A20006F900C94CA0BFE01E60FF71F9E01225027
:101A30003109E217F30708F4ACC0D9010D911C91EC
:101A4000119706171707B8F00530110508F49FC065
:101A5000A801445051094617570708F498C002508E
:101A60001109061B170B019311936D937C93CF0102
:101A70000E94620C8CC05B01A01AB10A4E01800E5C
:101A8000911EA091F503B091F603612C712C60E0DA
:101A900070E0109709F449C0A815B905C9F5ED9093
:101AA000FC901197670142E0C40ED11CCA14DB04FC
:101AB00078F147018A189B08640142E0C40ED11CEA
:101AC0001296BC9012971396AC91B5E0CB16D10448
:101AD00040F0B282A38391828082D9018D939C933E
:101AE00009C00E5F1F4F0E0D1F1DF90111830083EA
:101AF000EB2DFA2F6115710531F0DB011396FC9384
:101B0000EE93129744C0F093F603E093F5033FC0C1
:101B10006D917C9111976616770608F43B01BD0123
:101B200012960D90BC91A02DB4CF6091F3037091EB
:101B3000F40368157905E9F468167906D0F4409144
:101B40000002509101024115510541F44DB75EB7B5
:101B50006091040270910502461B570BE417F507CC
:101B6000C0F4F093F403E093F303F90191838083CD
:101B70000EC00E94CA0B7C01009759F0A801BE015B
:101B80000E94010ECE010E94620CC70104C0CE016A
:101B900002C080E090E0DF91CF911F910F91FF9004
:101BA000EF90DF90CF90BF90AF909F908F907F90FD
:101BB0006F9008951F93FC0199278827BC01E89432
:101BC00011911032E9F3193010F01E30C8F31B32B6
:101BD00051F01D3249F4689406C00E94180E610F3E
:101BE000711D811D911D119110531A30B0F33EF4F7
:101BF00090958095709561957F4F8F4F9F4F1F9166
:101C00000895FB01DC0102C001900D92415050404B
:101C1000D8F70895DC0101C06D9341505040E0F7C2
:101C20000895FB01DC0101900D920020E1F7089579
:101C3000592F482F372F262F660F771F881F991F80
:101C4000660F771F881F991F620F731F841F951FD0
:101C5000660F771F881F991F089513E0CEE1D3E028
:101C600000E006C022970109FE010BBF0E94AA0BEB
:0E1C7000C032D10780E00807A9F7F894FFCF33
:101C7E000000F703800052696E676C696368742018
:101C8E00626572656974210045696E6761626520DF
:101C9E0045727761727465743A00636F6D706C652E
:101CAE0074656420737472696E67206172726976EE
:101CBE00656420002B52657365740D006E6F2052A3
:101CCE0065736574200059504F4C590D004E504F9E
:101CDE004C590D004572726F720D004368616E6E45
:101CEE00656C206E6F7420617661696C61626C65E3
:101CFE00210D005245534554004C45440056414C6D
:101D0E0055450059504F4C59004E504F4C590000FC
:101D1E000000003D08C1099007A9079B071B08009A
:00000001FF
