:100000000C945C010C948D010C948D010C948D0169
:100010000C948D010C948D010C948D010C948D0128
:100020000C948D010C948D010C948D010C948D0118
:100030000C948D010C948D010C948D010C948D0108
:100040000C948D010C948D010C948D010C948D01F8
:100050000C948D010C948D010C948D010C9448042A
:100060000C948D010C942B070C9461070C948D015A
:100070000C948D010C948D010C948D010C948D01C8
:100080000C948D010C948D010C948D010C948D01B8
:100090000C948D010C948D010C948D010C948D01A8
:1000A0000C948D010C948D010C948D010C948D0198
:1000B0000C948D010C948D010C948D010C948D0188
:1000C0000C948D010C948D010C948D010C948D0178
:1000D0000C948D010C948D010C948D010C948D0168
:1000E0000C948D01B402D302B602B902BC02BF0265
:1000F000C202C5020D051005FF04030509054705E9
:10010000140518051E05220526052C0530053405A5
:1001100047053A053E0542050C942C050C948B07C7
:100120000C9414050C9495070C94FF040C94B902DC
:100130000C94C2050C94BF020C9426050C94E8079D
:100140000C94BC020C94C2020C9403050C94D302D0
:100150000C94DF010C94E4050C941E050C9422050C
:100160000C9442050C943E050C9464060C94100506
:100170000C94B6020C9434050C9409050C944705B4
:100180000C9418050C94D0050C94B4020C94F7014F
:100190000C943A050C94C5020C940D050C94300592
:1001A0000C94B7050C9442060C94F30100000A0B62
:1001B00002090C0D0E0807030401000000000000F6
:1001C000000000000000000000000000000000002F
:1001D00000000000000000001211100000000000EC
:1001E000000000000000000000000000000000000F
:1001F000000001021020200808102040102040803C
:1002000002010201080402010102040810204080DA
:100210008040201008040201800402018040201068
:1002200008040201080402010102040810204080B1
:10023000010204081020408005050505070508088F
:100240000808020202020A0A080804040404010160
:100250000101010101010303030303030303040775
:1002600007070C0C0C0C0C0C0C0C0202020206060C
:100270000606060606060B0B0B0B0B0B0B0B000002
:100280002200250028002B002E003100340002013E
:100290000000050108010B010000210024002700D7
:1002A0002A002D0030003300010100000401070185
:1002B0000A01DF019507F30111241FBECFEFD1E240
:1002C000DEBFCDBF00E00CBF12E0A0E0B2E0ECEC7E
:1002D000F8E100E00BBF02C007900D92AA39B10708
:1002E000D9F723E0AAE9B2E001C01D92AD3DB20703
:1002F000E1F712E0C6EBD2E000E006C02297010968
:10030000FE010BBF0E94D109C23BD10780E0080764
:10031000A9F70E94D9070C94540C0C94000026E015
:1003200040E458E360E070E08BE393E00E94C9068C
:1003300066E072E08BE393E00E9443088CE293E076
:100340000E94F50268E172E08BE393E00E944308AB
:100350008CE293E00C9412038091A102882371F146
:100360006AE272E08BE393E00E9426088BE992E058
:100370000E941A04882351F064E472E08BE393E056
:100380000E9426088CE293E00C9412036CE472E065
:100390008BE393E00E9426088BE992E00E947803A9
:1003A0004091A3025091A4026091A2028CE293E0DA
:1003B0000E9491028CE293E00C942A0208950F931C
:1003C00002E025E044E061E08CE293E00E94140248
:1003D0008BE992E00E94260367E070E08AE992E0F0
:1003E0000F910C9447048BE992E00C94BB08CF93D7
:1003F000DF93D1E08BE393E00E94B705892B89F06E
:100400008BE393E00E94D005C82F682F8BE992E020
:100410000E948309CA3011F0CD3061F7D093A10258
:10042000E9CFDF91CF9108950F93CF93DF93EC0144
:100430006A834B832C830D8388E1689FB00111246C
:1004400082E090E00E94D50999838883DF91CF9163
:100450000F9108958F929F92AF92BF92CF92DF92A9
:10046000EF92FF920F931F93CF93DF93EC0160E025
:100470008D810E948105AA8088E1A89E50011124E7
:10048000850101501109000F111FC12CD12C8824A6
:100490008394912CCA14DB0461F18BE0E82EF12CDB
:1004A00060E08B810E948105C4010E2C02C0880F80
:1004B000991F0A94E2F7E881F981E00FF11F20818A
:1004C000318182239323892B11F061E001C060E028
:1004D0008C810E94810561E08B810E94810581E011
:1004E000E81AF108E8F68FEFC81AD80A0250110985
:1004F000D1CF60E08B810E94810561E08D810E94F7
:10050000810560E08D81DF91CF911F910F91FF9068
:10051000EF90DF90CF90BF90AF909F908F900C9412
:100520008105CF92DF92FF920F931F93CF93DF93BA
:100530001F921F92CDB7DEB76C01FC018281262F7E
:1005400030E0F8E08F9FC0011124821793070CF46C
:1005500042C0062F10E0F8013197E830F105C0F4F1
:10056000EE58FF4F0C94CB09F12C1FC0B6E0FB2EC8
:100570001CC0A9E0FA2E19C0FCE0FF2E16C0EFE067
:10058000FE2E13C072E1F72E10C065E1F62E0DC0ED
:1005900066E572E08BE393E049835A830E94260864
:1005A00049815A8102C033E0F32E9A01411570E16E
:1005B000570710F02FEF3FE0F60190818181E92F7E
:1005C000F82FEF0DF11DEF0DF11D318320833383E3
:1005D0002283358324830F900F90DF91CF911F9159
:1005E0000F91FF90DF90CF900895CF93DF93EC01B0
:1005F00088819981892B91F061E08B810E94480567
:1006000061E08C810E94480561E08D810E9448056F
:1006100060E08D810E94810581E001C080E0DF9172
:10062000CF9108951F93CF93DF93EC0110E040E04A
:1006300050E0612FCE010E9491021F5F1831B9F77F
:10064000CE01DF91CF911F910C942A02CF93DF93BB
:10065000EC016DE672E00E9429091E821E86FE01F1
:10066000E157FF4FCE010F969183808368E873E1D5
:10067000CE01DF91CF910C94EC08EF92FF920F9393
:100680001F93CF93DF938C019EE6E92E92E0F92E23
:10069000C0E0D0E0BE01C8010E949709F701219196
:1006A0007F01FC018081821711F080E01AC0219641
:1006B000C330D10579F782E7E82E82E0F82EC5E055
:1006C000D0E0BE01C8010E949709F70121917F0186
:1006D000FC0180818213E9CF2196CA30D10589F7C8
:1006E00081E0DF91CF911F910F91FF90EF900895DE
:1006F000CF92DF92EF92FF920F931F93CF93DF93EE
:10070000EC010E943D03882349F068E772E08BE327
:1007100093E00E94260881E08E8707C06AE772E0B6
:100720008BE393E00E9426081E868E858E0101577A
:100730001F4F882309F464C0F801E080F18063E072
:1007400070E0CE010E949709FC018081F70180834F
:10075000F801E080F180C70101969183808364E015
:1007600070E0CE010E949709FC018081F70181832E
:10077000F801808191810196918380832AE0E22EA5
:10078000F12CF801C080D180B701CE010E949709F9
:10079000FC018081F6018083F801808191810196BE
:1007A00091838083FFEFEF1AFF0A8EE0E816F104D1
:1007B00041F7CE010F960E94010C6B017C016A8704
:1007C0007B878C879D8720E137E240E050E00E94E4
:1007D000A9092F8340EF58ED249FC001259F900D5C
:1007E00011248C0D9D1D998788872AE030E0B70180
:1007F000A6018BE393E00E94AE086CE672E002C0B3
:100800006CE772E08BE393E00E942608CE010F961E
:10081000F801918380836DE672E0CE010E943F096A
:100820001E82DF91CF911F910F91FF90EF90DF908B
:10083000CF900895EF92FF920F931F93CF93DF9382
:100840008C0133E8E32E32E0F32EC0E0D0E0BE01AD
:10085000C8010E949709F70121917F01FC01808165
:1008600082130DC02196C530D10589F76DE672E07F
:10087000C8010E943F09F801168281E001C080E0B2
:10088000DF91CF911F910F91FF90EF900895089500
:100890001F920F920FB60F9211242F933F938F93B5
:1008A0009F93AF93BF938091330390913403A091B2
:1008B0003503B09136033091320323E0230F2D37F7
:1008C00020F40196A11DB11D05C026E8230F029654
:1008D000A11DB11D20933203809333039093340301
:1008E000A0933503B093360380913703909138037A
:1008F000A0913903B0913A030196A11DB11D8093D7
:10090000370390933803A0933903B0933A03BF9110
:10091000AF919F918F913F912F910F900FBE0F90AC
:100920001F901895789484B5826084BD84B58160E9
:1009300084BD85B5826085BD85B5816085BDEEE6E7
:10094000F0E0808181608083E1E8F0E010828081C6
:1009500082608083808181608083E0E8F0E0808134
:1009600081608083E1EBF0E0808184608083E0EB54
:10097000F0E0808181608083E1E9F0E08081826045
:100980008083808181608083E0E9F0E08081816004
:100990008083E1EAF0E080818260808380818160F1
:1009A0008083E0EAF0E0808181608083E1E2F1E031
:1009B000808182608083808181608083E0E2F1E0D9
:1009C000808181608083EAE7F0E0808184608083B9
:1009D0008081826080838081816080838081806863
:1009E00080831092C100089590E0FC013197E231BC
:1009F000F10508F04CC0E658FF4F0C94CB098091EC
:100A000080008F7703C0809180008F7D809380006D
:100A1000089580918000877FF9CF84B58F7702C0D9
:100A200084B58F7D84BD08958091B0008F7703C019
:100A30008091B0008F7D8093B000089580919000E8
:100A40008F7707C0809190008F7D03C080919000C8
:100A5000877F8093900008958091A0008F7707C0D2
:100A60008091A0008F7D03C08091A000877F80933C
:100A7000A0000895809120018F7707C08091200108
:100A80008F7D03C080912001877F8093200108958E
:100A9000CF93DF9390E0FC01EE50FE4F2491FC01D8
:100AA000E85CFD4F8491882349F190E0880F991FFD
:100AB000FC01E856FD4FA591B49182589D4FFC0171
:100AC000C591D4919FB7611108C0F8948C9120957D
:100AD00082238C93888182230AC0623051F4F89477
:100AE0008C91322F309583238C938881822B88833D
:100AF00004C0F8948C91822B8C939FBFDF91CF918F
:100B000008950F931F93CF93DF931F92CDB7DEB756
:100B1000282F30E0F901E455FE4F8491F901EE50A1
:100B2000FE4F1491F901E85CFD4F04910023C9F0D8
:100B3000882321F069830E94F4046981E02FF0E0AA
:100B4000EE0FFF1FE258FD4FA591B4919FB7F894A7
:100B50008C91611103C01095812301C0812B8C936E
:100B60009FBF0F90DF91CF911F910F910895FC01CE
:100B7000818D228D90E0805C9F4F821B91098F7345
:100B800099270895FC01918D828D981731F0828DFF
:100B9000E80FF11D858D90E008958FEF9FEF089588
:100BA000FC01918D828D981761F0828DDF01A80F75
:100BB000B11D5D968C91928D9F5F9F73928F90E097
:100BC00008958FEF9FEF08958BE897E0892B41F010
:100BD00087EF91E0892B21F00E948B07811125C0BE
:100BE00080E090E0892B41F080E090E0892B21F0BB
:100BF0000E94000081111CC080E090E0892B41F030
:100C000080E090E0892B21F00E940000811113C048
:100C100080E090E0892BA1F080E090E0892B81F0CA
:100C20000E94000081110AC008950E94F701D8CFE8
:100C30000E940000E1CF0E940000EACF0C94000067
:100C40000895FC01848DDF01A80FB11DA35ABF4F89
:100C50002C91848D90E001968F739927848FA689BB
:100C6000B7892C93A089B1898C9180648C93938DE2
:100C7000848D981306C00288F389E02D80818F7DD2
:100C800080830895CF93DF93EC01888D8823C9F08A
:100C9000EA89FB89808185FD05C0A889B9898C9185
:100CA00086FD0FC00FB607FCF5CF808185FFF2CF20
:100CB000A889B9898C9185FFEDCFCE010E942106CC
:100CC000E7CFDF91CF910895CF92DF92FF920F93FC
:100CD0001F93CF93DF931F92CDB7DEB76C01DC017A
:100CE0005B969C915B975C968C915C97981307C080
:100CF0005096ED91FC915197808185FD32C0F601AF
:100D0000038D10E00F5F1F4F0F731127F02EF601B8
:100D1000848DF81211C00FB607FCF9CFD60150969A
:100D2000ED91FC915197808185FFF1CFC6016983D8
:100D30000E9421066981EBCF838DE80FF11DE35AF4
:100D4000FF4F6083D6015B960C935B975296ED91B3
:100D5000FC91539780818062808381E058968C93C8
:100D60000DC0D6015696ED91FC9157976083509631
:100D7000ED91FC91519780818064808381E090E0C7
:100D80000F90DF91CF911F910F91FF90DF90CF9047
:100D90000895BF92CF92DF92EF92FF92CF93DF93AD
:100DA000EC016A017B01B22EE889F98982E0808337
:100DB000411581EE580761057105A1F060E079E009
:100DC0008DE390E0A70196010E94A9092150310905
:100DD000410951095695479537952795211580E189
:100DE000380798F0E889F989108260E874E88EE1A4
:100DF00090E0A70196010E94A909215031094109FB
:100E000051095695479537952795EC85FD85308393
:100E1000EE85FF852083188EEC89FD89B082EA89F2
:100E2000FB89808180618083EA89FB898081886079
:100E30008083EA89FB89808180688083EA89FB89D5
:100E400080818F7D8083DF91CF91FF90EF90DF9045
:100E5000CF90BF9008951F920F920FB60F9211245A
:100E60000BB60F922F938F939F93EF93FF93E09185
:100E70004B03F0914C038081E0915103F0915203B8
:100E800082FD12C09081809154038F5F8F732091F7
:100E90005503821751F0E0915403F0E0E55CFC4FFC
:100EA000958F8093540301C08081FF91EF919F91B2
:100EB0008F912F910F900BBE0F900FBE0F901F9030
:100EC00018951F920F920FB60F9211240BB60F9226
:100ED0002F933F934F935F936F937F938F939F9342
:100EE000AF93BF93EF93FF938BE393E00E942106B0
:100EF000FF91EF91BF91AF919F918F917F916F91F2
:100F00005F914F913F912F910F900BBE0F900FBEAD
:100F10000F901F9018958BE393E00E94B70521E096
:100F2000892B09F420E0822F089510923E0310923D
:100F30003D0388EE93E0A0E0B0E080933F03909300
:100F40004003A0934103B09342038DE892E0909355
:100F50003C0380933B0385EC90E09093480380939F
:100F6000470384EC90E090934A038093490380EC1C
:100F700090E090934C0380934B0381EC90E090932E
:100F80004E0380934D0382EC90E090935003809346
:100F90004F0386EC90E0909352038093510310929C
:100FA000540310925503109256031092570308955C
:100FB00008950E9492040E94D8070E948F01C4EEF7
:100FC000D5E00E94AC012097E1F30E94E405F9CF3F
:100FD000CF92DF92EF92FF920F931F93CF93DF9305
:100FE0006C017A01EB01E60EF71E00E010E0CE1571
:100FF000DF0561F06991D601ED91FC910190F081DE
:10100000E02DC6011995080F191FF1CFC801DF9116
:10101000CF911F910F91FF90EF90DF90CF900895A7
:101020006115710581F0DB010D900020E9F7AD013C
:1010300041505109461B570BDC01ED91FC91028098
:10104000F381E02D199480E090E008950C9410084D
:10105000DC01ED91FC910190F081E02D19940F934A
:101060001F93CF93DF93EC016DE00E9428088C0161
:101070006AE0CE010E942808800F911FDF91CF9176
:101080001F910F9108950F931F93CF93DF93EC015E
:101090000E9410088C01CE010E942F08800F911F22
:1010A000DF91CF911F910F9108958F929F92AF92F0
:1010B000BF92CF92DF92EF92FF920F931F93CF9345
:1010C000DF93CDB7DEB7A1970FB6F894DEBF0FBEA2
:1010D000CDBF7C01C42EE52FCB01D22E19A221E079
:1010E0002D1510F02AE0D22E8E010F5D1F4F8D2C92
:1010F000912CA12CB12C6C2D7E2FA50194010E9466
:10110000A9098C2DD29E80191124015011098A3011
:1011100014F4805D01C0895CF801808321153105DC
:101120004105510521F0C22EE32FCA01E4CFB801D9
:10113000C7010E941008A1960FB6F894DEBF0FBE3B
:10114000CDBFDF91CF911F910F91FF90EF90DF9076
:10115000CF90BF90AF909F908F900895211531054B
:1011600041F4DC01ED91FC910190F081E02D642FC0
:1011700019940C945508FC01808191810C94890A82
:10118000CF93DF93EC0188819981009711F00E9441
:10119000890A198218821D821C821B821A82DF91A1
:1011A000CF9108950F931F93CF93DF93EC018B01A1
:1011B0006F5F7F4F888199810E94180B009731F0F3
:1011C000998388831B830A8381E001C080E0DF91DB
:1011D000CF911F910F910895CF93DF93EC018881F8
:1011E0009981892B29F08A819B818617970760F462
:1011F000CE010E94D208882341F08C819D81892BE9
:1012000019F4E881F981108281E0DF91CF9108958E
:10121000EF92FF920F931F93CF93DF93EC017B012B
:101220008A01BA010E94EC08811104C0CE010E941B
:10123000C00807C01D830C83B701888199810E9473
:10124000380CCE01DF91CF911F910F91FF90EF905D
:101250000895FC0111821082138212821582148279
:101260006115710559F0FB0101900020E9F7AF010C
:1012700041505109461B570B0C9408090895CF9310
:10128000DF93EC016115710561F0FB010190002015
:10129000E9F7AF0141505109461B570B0E9408095D
:1012A00002C00E94C008CE01DF91CF910895EF9255
:1012B000FF920F931F93CF93DF93EC017B010C817F
:1012C0001D816115710511F480E016C041155105AD
:1012D00091F0040F151FB8010E94EC088823A1F3B8
:1012E000288139818C819D81B701820F931F0E94D3
:1012F000380C1D830C8381E0DF91CF911F910F91FA
:10130000FF90EF900895CF93DF931F921F92CDB778
:10131000DEB769831A8241E050E0BE016F5F7F4F04
:101320000E9457090F900F90DF91CF910895FC0113
:10133000848195816817790720F4808191810097D5
:1013400029F41092D80388ED93E00895860F971F33
:101350000895A1E21A2EAA1BBB1BFD010DC0AA1FF6
:10136000BB1FEE1FFF1FA217B307E407F50720F00E
:10137000A21BB30BE40BF50B661F771F881F991F89
:101380001A9469F760957095809590959B01AC01D2
:10139000BD01CF010895EE0FFF1F0590F491E02DE0
:1013A00019940790F691E02D19940F931F93CF9302
:1013B000DF93869F8001879F100D969F100D11244B
:1013C000C8010E94F109EC01009729F0A80160E032
:1013D00070E00E94310CCE01DF91CF911F910F91EF
:1013E0000895CF93DF938230910510F482E090E06E
:1013F000E091DB03F091DC0320E030E0A0E0B0E01E
:10140000309739F14081518148175907B8F0481792
:10141000590771F482819381109729F013969C9358
:101420008E9312972CC09093DC038093DB0327C02C
:101430002115310531F04217530718F0A901DB01DE
:1014400001C0EF019A01BD01DF010280F381E02DAF
:10145000D7CF21153105F9F0281B390B2430310580
:1014600080F48A819B816115710521F0FB019383D2
:10147000828304C09093DC038093DB03FE013296E9
:1014800044C0FE01E20FF31F819391932250310972
:10149000398328833AC02091D9033091DA03232B72
:1014A00041F420910202309103023093DA03209339
:1014B000D90320910002309101022115310541F438
:1014C0002DB73EB74091040250910502241B350B05
:1014D000E091D903F091DA03E217F307A0F42E1B91
:1014E0003F0B2817390778F0AC014E5F5F4F241788
:1014F000350748F04E0F5F1F5093DA034093D9032E
:101500008193919302C0E0E0F0E0CF01DF91CF91B1
:101510000895CF93DF93009709F487C0FC013297B9
:1015200013821282C091DB03D091DC03209781F4F7
:1015300020813181280F391F8091D9039091DA03DE
:101540008217930779F5F093DA03E093D9036DC01E
:10155000DE0120E030E0AE17BF0750F412964D9147
:101560005C9113979D014115510509F1DA01F3CF03
:10157000B383A28340815181840F951F8A179B07F3
:1015800071F48D919C911197840F951F0296918310
:10159000808312968D919C9113979383828321155A
:1015A000310529F4F093DC03E093DB033EC0D9015D
:1015B0001396FC93EE9312974D915D91A40FB51F76
:1015C000EA17FB0779F480819181840F951F0296B9
:1015D000D90111969C938E938281938113969C934B
:1015E0008E931297E0E0F0E08A819B81009719F0DA
:1015F000FE01EC01F9CFCE01029628813981820FDC
:10160000931F2091D9033091DA032817390769F421
:10161000309729F41092DC031092DB0302C013828E
:101620001282D093DA03C093D903DF91CF9108954A
:101630006F927F928F929F92AF92BF92CF92DF92E2
:10164000EF92FF920F931F93CF93DF93EC01CB01A7
:10165000209781F4DF91CF911F910F91FF90EF9030
:10166000DF90CF90BF90AF909F908F907F906F90C2
:101670000C94F109FE01E60FF71F9E01225031097B
:10168000E217F30708F4ACC0D9010D911C91119732
:1016900006171707B8F00530110508F49FC0A80118
:1016A000445051094617570708F498C002501109D1
:1016B000061B170B019311936D937C93CF010E942E
:1016C000890A8CC05B01A01AB10A4E01800E911EDE
:1016D000A091DB03B091DC03612C712C60E070E021
:1016E000109709F449C0A815B905C9F5ED90FC900B
:1016F0001197670142E0C40ED11CCA14DB0478F1D3
:1017000047018A189B08640142E0C40ED11C12965E
:10171000BC9012971396AC91B5E0CB16D10440F073
:10172000B282A38391828082D9018D939C9309C058
:101730000E5F1F4F0E0D1F1DF90111830083EB2D4E
:10174000FA2F6115710531F0DB011396FC93EE93CE
:10175000129744C0F093DC03E093DB033FC06D912C
:101760007C9111976616770608F43B01BD0112962D
:101770000D90BC91A02DB4CF6091D9037091DA0384
:1017800068157905E9F468167906D0F440910002ED
:10179000509101024115510541F44DB75EB760917A
:1017A000040270910502461B570BE417F507C0F4BD
:1017B000F093DA03E093D903F901918380830EC09B
:1017C0000E94F1097C01009759F0A801BE010E9416
:1017D000280CCE010E94890AC70104C0CE0102C0B4
:1017E00080E090E0DF91CF911F910F91FF90EF90FB
:1017F000DF90CF90BF90AF909F908F907F906F9031
:1018000008951F93FC0199278827BC01E894119142
:101810001032E9F3193010F01E30C8F31B3251F0CA
:101820001D3249F4689406C00E943F0C610F711D7F
:10183000811D911D119110531A30B0F33EF4909513
:101840008095709561957F4F8F4F9F4F1F910895A1
:10185000FB01DC0102C001900D9241505040D8F7CD
:101860000895DC0101C06D9341505040E0F70895A8
:10187000FB01DC0101900D920020E1F70895592F42
:10188000482F372F262F660F771F881F991F660F47
:10189000771F881F991F620F731F841F951F660F84
:1018A000771F881F991F089512E0C6EBD2E000E071
:1018B00006C022970109FE010BBF0E94D109C83B57
:0C18C000D10780E00807A9F7F894FFCFDB
:1018CC000000DD03800052696E676C6963687420E8
:1018DC00626572656974210045696E676162652095
:1018EC0045727761727465743A00636F6D706C65E4
:1018FC0074656420737472696E67206172726976A4
:10190C00656420002B52657365740D006E6F205258
:10191C006573657420004368616E6E656C206E6F34
:10192C007420617661696C61626C65210D004C45B7
:10193C00440056414C5545002B002D006572726FCA
:10194C00720D00524553455400000000006406E837
:0A195C0007B705D005C205420600DA
:00000001FF
