:100000000C945C010C948D010C948D010C948D0169
:100010000C948D010C948D010C948D010C948D0128
:100020000C948D010C948D010C948D010C948D0118
:100030000C948D010C948D010C948D010C948D0108
:100040000C948D010C948D010C948D010C948D01F8
:100050000C948D010C948D010C948D010C94410431
:100060000C948D010C9424070C945A070C948D0168
:100070000C948D010C948D010C948D010C948D01C8
:100080000C948D010C948D010C948D010C948D01B8
:100090000C948D010C948D010C948D010C948D01A8
:1000A0000C948D010C948D010C948D010C948D0198
:1000B0000C948D010C948D010C948D010C948D0188
:1000C0000C948D010C948D010C948D010C948D0178
:1000D0000C948D010C948D010C948D010C948D0168
:1000E0000C948D01AE02CD02B002B302B602B90289
:1000F000BC02BF0206050905F804FC040205400520
:100100000D05110517051B051F05250529052D05DD
:100110004005330537053B050C9425050C948407F1
:100120000C940D050C948E070C94F8040C94BB05EC
:100130000C941F050C94E1070C94B3020C94FC047E
:100140000C94AE020C94DF010C94DD050C941705A1
:100150000C94CD020C941B050C943B050C943705B4
:100160000C94B0020C945D060C9409050C942D05BA
:100170000C9402050C9440050C9411050C94B902E2
:100180000C94C9050C94B6020C94F1010C94BC02B9
:100190000C94BF020C9433050C9406050C942905AD
:1001A0000C94B0050C943B060C94ED0100000A0B76
:1001B00002090C0D0E0807030401000000000000F6
:1001C000000000000000000000000000000000002F
:1001D00000000000000000001211100000000000EC
:1001E000000000000000000000000000000000000F
:1001F000000001021020200808102040102040803C
:1002000002010201080402010102040810204080DA
:100210008040201008040201800402018040201068
:1002200008040201080402010102040810204080B1
:10023000010204081020408005050505070508088F
:100240000808020202020A0A080804040404010160
:100250000101010101010303030303030303040775
:1002600007070C0C0C0C0C0C0C0C0202020206060C
:100270000606060606060B0B0B0B0B0B0B0B000002
:100280002200250028002B002E003100340002013E
:100290000000050108010B010000210024002700D7
:1002A0002A002D0030003300010100000401070185
:1002B0000A01DF018E07ED0111241FBECFEFD1E24D
:1002C000DEBFCDBF00E00CBF12E0A0E0B2E0EEEB7D
:1002D000F8E100E00BBF02C007900D92AA39B10708
:1002E000D9F723E0AAE9B2E001C01D92AC3DB20704
:1002F000E1F712E0C6EBD2E000E006C02297010968
:10030000FE010BBF0E94CA09C23BD10780E008076B
:10031000A9F70E94D2070C944D0C0C94000026E023
:1003200040E458E360E070E08AE393E00E94C20694
:1003300066E072E08AE393E00E943C088BE293E07F
:100340000E94EF0268E172E08AE393E00E943C08B9
:100350008BE293E00C940C038091A002882371F14E
:100360006AE272E08AE393E00E941F088AE992E061
:100370000E941404882351F064E472E08AE393E05D
:100380000E941F088BE293E00C940C036CE472E073
:100390008AE393E00E941F088AE992E00E947203B8
:1003A0004091A2025091A3026091A1028BE293E0DE
:1003B0000E948B028BE293E00C94240208950F9329
:1003C00002E025E044E061E08BE293E00E940E024F
:1003D0008AE992E00F910C9420038AE992E00C9450
:1003E000B408CF93DF93D1E08AE393E00E94B00595
:1003F000892B89F08AE393E00E94C905C82F682FF2
:100400008AE992E00E947C09CA3011F0CD3061F790
:10041000D093A002E9CFDF91CF9108950F93CF93AE
:10042000DF93EC016A834B832C830D8388E1689F03
:10043000B001112482E090E00E94CE099983888364
:10044000DF91CF910F9108958F929F92AF92BF92BB
:10045000CF92DF92EF92FF920F931F93CF93DF9390
:10046000EC0160E08D810E947A05AA8088E1A89E57
:1004700050011124850101501109000F111FC12CD9
:10048000D12C88248394912CCA14DB0461F18BE075
:10049000E82EF12C60E08B810E947A05C4010E2CBD
:1004A00002C0880F991F0A94E2F7E881F981E00FF2
:1004B000F11F2081318182239323892B11F061E088
:1004C00001C060E08C810E947A0561E08B810E940E
:1004D0007A0581E0E81AF108E8F68FEFC81AD80A21
:1004E00002501109D1CF60E08B810E947A0561E052
:1004F0008D810E947A0560E08D81DF91CF911F91FF
:100500000F91FF90EF90DF90CF90BF90AF909F90B2
:100510008F900C947A05CF92DF92FF920F931F93E6
:10052000CF93DF931F921F92CDB7DEB76C01FC0112
:100530008281262F30E0F8E08F9FC00111248217BE
:1005400093070CF442C0062F10E0F8013197E83011
:10055000F105C0F4EE58FF4F0C94C409F12C1FC0F4
:10056000B6E0FB2E1CC0A9E0FA2E19C0FCE0FF2E5D
:1005700016C0EFE0FE2E13C072E1F72E10C065E149
:10058000F62E0DC066E572E08AE393E049835A8354
:100590000E941F0849815A8102C033E0F32E9A015C
:1005A000411570E1570710F02FEF3FE0F601908101
:1005B0008181E92FF82FEF0DF11DEF0DF11D318332
:1005C000208333832283358324830F900F90DF9120
:1005D000CF911F910F91FF90DF90CF900895CF930F
:1005E000DF93EC0188819981892B91F061E08B8107
:1005F0000E94410561E08C810E94410561E08D818E
:100600000E94410560E08D810E947A0581E001C071
:1006100080E0DF91CF9108951F93CF93DF93EC019A
:1006200010E040E050E0612FCE010E948B021F5F7E
:100630001831B9F7CE01DF91CF911F910C942402AC
:10064000CF93DF93EC016DE672E00E9422091E82D7
:100650001E86FE01E157FF4FCE010F9691838083E6
:1006600068E873E1CE01DF91CF910C94E508EF9239
:10067000FF920F931F93CF93DF938C019EE6E92E99
:1006800092E0F92EC0E0D0E0BE01C8010E949009BE
:10069000F70121917F01FC018081821711F080E038
:1006A0001AC02196C330D10579F782E7E82E82E09F
:1006B000F82EC5E0D0E0BE01C8010E949009F70104
:1006C00021917F01FC0180818213E9CF2196CA30FC
:1006D000D10589F781E0DF91CF911F910F91FF90B4
:1006E000EF900895CF92DF92EF92FF920F931F93B6
:1006F000CF93DF93EC010E943703882349F068E72A
:1007000072E08AE393E00E941F0881E08E8707C0B1
:100710006AE772E08AE393E00E941F081E868E85D6
:100720008E0101571F4F882309F464C0F801E0804F
:10073000F18063E070E0CE010E949009FC018081AD
:10074000F7018083F801E080F180C7010196918371
:10075000808364E070E0CE010E949009FC018081FA
:10076000F7018183F80180819181019691838083D3
:100770002AE0E22EF12CF801C080D180B701CE0131
:100780000E949009FC018081F6018083F80180813C
:100790009181019691838083FFEFEF1AFF0A8EE02B
:1007A000E816F10441F7CE010F960E94FA0B6B0197
:1007B0007C016A877B878C879D8720E137E240E058
:1007C00050E00E94A2092F8340EF58ED249FC00102
:1007D000259F900D11248C0D9D1D998788872AE0F7
:1007E00030E0B701A6018AE393E00E94A7086CE617
:1007F00072E002C06CE772E08AE393E00E941F0897
:10080000CE010F96F801918380836DE672E0CE01F0
:100810000E9438091E82DF91CF911F910F91FF90A6
:10082000EF90DF90CF900895EF92FF920F931F9378
:10083000CF93DF938C0133E8E32E32E0F32EC0E058
:10084000D0E0BE01C8010E949009F70121917F010B
:10085000FC01808182130DC02196C530D10589F736
:100860006DE672E0C8010E943809F801168281E045
:1008700001C080E0DF91CF911F910F91FF90EF9029
:1008800008951F920F920FB60F9211242F933F934A
:100890008F939F93AF93BF938091320390913303D3
:1008A000A0913403B09135033091310323E0230F3D
:1008B0002D3720F40196A11DB11D05C026E8230F98
:1008C0000296A11DB11D20933103809332039093B2
:1008D0003303A0933403B093350380913603909192
:1008E0003703A0913803B09139030196A11DB11DC2
:1008F0008093360390933703A0933803B093390362
:10090000BF91AF919F918F913F912F910F900FBE0B
:100910000F901F901895789484B5826084BD84B53B
:10092000816084BD85B5826085BD85B5816085BDEA
:10093000EEE6F0E0808181608083E1E8F0E0108203
:10094000808182608083808181608083E0E8F0E044
:10095000808181608083E1EBF0E08081846080832E
:10096000E0EBF0E0808181608083E1E9F0E080816C
:1009700082608083808181608083E0E9F0E0808113
:1009800081608083E1EAF0E0808182608083808101
:1009900081608083E0EAF0E0808181608083E1E231
:1009A000F1E0808182608083808181608083E0E2E9
:1009B000F1E0808181608083EAE7F0E080818460FB
:1009C0008083808182608083808181608083808158
:1009D000806880831092C100089590E0FC013197F7
:1009E000E231F10508F04CC0E658FF4F0C94C40901
:1009F000809180008F7703C0809180008F7D8093ED
:100A00008000089580918000877FF9CF84B58F772B
:100A100002C084B58F7D84BD08958091B0008F772A
:100A200003C08091B0008F7D8093B00008958091C5
:100A300090008F7707C0809190008F7D03C08091D8
:100A40009000877F8093900008958091A0008F7719
:100A500007C08091A0008F7D03C08091A000877F98
:100A60008093A0000895809120018F7707C0809126
:100A700020018F7D03C080912001877F809320011A
:100A80000895CF93DF9390E0FC01EE50FE4F249148
:100A9000FC01E85CFD4F8491882349F190E0880FC8
:100AA000991FFC01E856FD4FA591B49182589D4FC6
:100AB000FC01C591D4919FB7611108C0F8948C9145
:100AC000209582238C93888182230AC0623051F45E
:100AD000F8948C91322F309583238C938881822BCC
:100AE000888304C0F8948C91822B8C939FBFDF91F4
:100AF000CF9108950F931F93CF93DF931F92CDB79C
:100B0000DEB7282F30E0F901E455FE4F8491F9015A
:100B1000EE50FE4F1491F901E85CFD4F0491002363
:100B2000C9F0882321F069830E94ED046981E02FD8
:100B3000F0E0EE0FFF1FE258FD4FA591B4919FB773
:100B4000F8948C91611103C01095812301C0812B11
:100B50008C939FBF0F90DF91CF911F910F910895BC
:100B6000FC01818D228D90E0805C9F4F821B91095A
:100B70008F7399270895FC01918D828D981731F01C
:100B8000828DE80FF11D858D90E008958FEF9FEF26
:100B90000895FC01918D828D981761F0828DDF019F
:100BA000A80FB11D5D968C91928D9F5F9F73928F60
:100BB00090E008958FEF9FEF089584E897E0892BE8
:100BC00041F081EF91E0892B21F00E94840781118F
:100BD00025C080E090E0892B41F080E090E0892BF7
:100BE00021F00E94000081111CC080E090E0892B60
:100BF00041F080E090E0892B21F00E9400008111FB
:100C000013C080E090E0892BA1F080E090E0892B78
:100C100081F00E94000081110AC008950E94F10134
:100C2000D8CF0E940000E1CF0E940000EACF0C94D0
:100C300000000895FC01848DDF01A80FB11DA35AA7
:100C4000BF4F2C91848D90E001968F739927848FEC
:100C5000A689B7892C93A089B1898C9180648C93E3
:100C6000938D848D981306C00288F389E02D8081CE
:100C70008F7D80830895CF93DF93EC01888D882347
:100C8000C9F0EA89FB89808185FD05C0A889B989F9
:100C90008C9186FD0FC00FB607FCF5CF808185FFD4
:100CA000F2CFA889B9898C9185FFEDCFCE010E9442
:100CB0001A06E7CFDF91CF910895CF92DF92FF928E
:100CC0000F931F93CF93DF931F92CDB7DEB76C01C5
:100CD000DC015B969C915B975C968C915C9798137A
:100CE00007C05096ED91FC915197808185FD32C0EF
:100CF000F601038D10E00F5F1F4F0F731127F02EC9
:100D0000F601848DF81211C00FB607FCF9CFD60199
:100D10005096ED91FC915197808185FFF1CFC601EE
:100D200069830E941A066981EBCF838DE80FF11D5C
:100D3000E35AFF4F6083D6015B960C935B97529604
:100D4000ED91FC91539780818062808381E0589679
:100D50008C930DC0D6015696ED91FC915797608308
:100D60005096ED91FC91519780818064808381E061
:100D700090E00F90DF91CF911F910F91FF90DF9046
:100D8000CF900895BF92CF92DF92EF92FF92CF93D0
:100D9000DF93EC016A017B01B22EE889F98982E0D8
:100DA0008083411581EE580761057105A1F060E06F
:100DB00079E08DE390E0A70196010E94A2092150FD
:100DC00031094109510956954795379527952115C0
:100DD00080E1380798F0E889F989108260E874E8C2
:100DE0008EE190E0A70196010E94A20921503109ED
:100DF000410951095695479537952795EC85FD850D
:100E00003083EE85FF852083188EEC89FD89B082C2
:100E1000EA89FB89808180618083EA89FB898081FE
:100E200088608083EA89FB89808180688083EA8981
:100E3000FB8980818F7D8083DF91CF91FF90EF9040
:100E4000DF90CF90BF9008951F920F920FB60F9230
:100E500011240BB60F922F938F939F93EF93FF93D1
:100E6000E0914A03F0914B038081E0915003F091AF
:100E7000510382FD12C09081809153038F5F8F7365
:100E800020915403821751F0E0915303F0E0E65CA7
:100E9000FC4F958F8093530301C08081FF91EF91A8
:100EA0009F918F912F910F900BBE0F900FBE0F90BF
:100EB0001F9018951F920F920FB60F9211240BB628
:100EC0000F922F933F934F935F936F937F938F93E3
:100ED0009F93AF93BF93EF93FF938AE393E00E94B6
:100EE0001A06FF91EF91BF91AF919F918F917F91E2
:100EF0006F915F914F913F912F910F900BBE0F908B
:100F00000FBE0F901F9018958AE393E00E94B005E2
:100F100021E0892B09F420E0822F089510923D03EF
:100F200010923C0388EE93E0A0E0B0E080933E0393
:100F300090933F03A0934003B09341038DE892E068
:100F400090933B0380933A0385EC90E090934703A2
:100F50008093460384EC90E0909349038093480388
:100F600080EC90E090934B0380934A0381EC90E0F7
:100F700090934D0380934C0382EC90E090934F0349
:100F800080934E0386EC90E090935103809350033E
:100F9000109253031092540310925503109256036B
:100FA000089508950E948B040E94D1070E948F012A
:100FB000CDEDD5E00E94AC012097E1F30E94DD0564
:100FC000F9CFCF92DF92EF92FF920F931F93CF93BF
:100FD000DF936C017A01EB01E60EF71E00E010E0F2
:100FE000CE15DF0561F06991D601ED91FC9101907C
:100FF000F081E02DC6011995080F191FF1CFC80126
:10100000DF91CF911F910F91FF90EF90DF90CF90E4
:1010100008956115710581F0DB010D900020E9F75D
:10102000AD0141505109461B570BDC01ED91FC917C
:101030000280F381E02D199480E090E008950C94F3
:101040000908DC01ED91FC910190F081E02D1994EB
:101050000F931F93CF93DF93EC016DE00E94210863
:101060008C016AE0CE010E942108800F911FDF9160
:10107000CF911F910F9108950F931F93CF93DF93FB
:10108000EC010E9409088C01CE010E942808800F03
:10109000911FDF91CF911F910F9108958F929F9291
:1010A000AF92BF92CF92DF92EF92FF920F931F9376
:1010B000CF93DF93CDB7DEB7A1970FB6F894DEBF1D
:1010C0000FBECDBF7C01C42EE52FCB01D22E19A2BD
:1010D00021E02D1510F02AE0D22E8E010F5D1F4F5A
:1010E0008D2C912CA12CB12C6C2D7E2FA50194015F
:1010F0000E94A2098C2DD29E801911240150110941
:101100008A3014F4805D01C0895CF8018083211568
:1011100031054105510521F0C22EE32FCA01E4CF6C
:10112000B801C7010E940908A1960FB6F894DEBF66
:101130000FBECDBFDF91CF911F910F91FF90EF9028
:10114000DF90CF90BF90AF909F908F900895211522
:10115000310541F4DC01ED91FC910190F081E02D2D
:10116000642F19940C944E08FC01808191810C9499
:10117000820ACF93DF93EC0188819981009711F067
:101180000E94820A198218821D821C821B821A8286
:10119000DF91CF9108950F931F93CF93DF93EC01CD
:1011A0008B016F5F7F4F888199810E94110B00979F
:1011B00031F0998388831B830A8381E001C080E03A
:1011C000DF91CF911F910F910895CF93DF93EC01A1
:1011D00088819981892B29F08A819B8186179707BD
:1011E00060F4CE010E94CB08882341F08C819D8160
:1011F000892B19F4E881F981108281E0DF91CF9188
:101200000895EF92FF920F931F93CF93DF93EC011A
:101210007B018A01BA010E94E508811104C0CE0158
:101220000E94B90807C01D830C83B701888199818A
:101230000E94310CCE01DF91CF911F910F91FF9051
:10124000EF900895FC0111821082138212821582A0
:1012500014826115710559F0FB0101900020E9F736
:10126000AF0141505109461B570B0C9401090895D9
:10127000CF93DF93EC016115710561F0FB010190E3
:101280000020E9F7AF0141505109461B570B0E945E
:10129000010902C00E94B908CE01DF91CF910895E3
:1012A000EF92FF920F931F93CF93DF93EC017B019B
:1012B0000C811D816115710511F480E016C0411586
:1012C000510591F0040F151FB8010E94E50888230D
:1012D000A1F3288139818C819D81B701820F931FF1
:1012E0000E94310C1D830C8381E0DF91CF911F910F
:1012F0000F91FF90EF900895CF93DF931F921F926D
:10130000CDB7DEB769831A8241E050E0BE016F5F5E
:101310007F4F0E9450090F900F90DF91CF91089559
:10132000FC01848195816817790720F4808191817F
:10133000009729F41092D70387ED93E00895860F64
:10134000971F0895A1E21A2EAA1BBB1BFD010DC019
:10135000AA1FBB1FEE1FFF1FA217B307E407F50765
:1013600020F0A21BB30BE40BF50B661F771F881F41
:10137000991F1A9469F760957095809590959B01D7
:10138000AC01BD01CF010895EE0FFF1F0590F49150
:10139000E02D19940790F691E02D19940F931F9367
:1013A000CF93DF93869F8001879F100D969F100D2E
:1013B0001124C8010E94EA09EC01009729F0A80154
:1013C00060E070E00E942A0CCE01DF91CF911F9166
:1013D0000F910895CF93DF938230910510F482E04E
:1013E00090E0E091DA03F091DB0320E030E0A0E050
:1013F000B0E0309739F14081518148175907B8F072
:101400004817590771F482819381109729F0139638
:101410009C938E9312972CC09093DB038093DA03F6
:1014200027C02115310531F04217530718F0A901E3
:10143000DB0101C0EF019A01BD01DF010280F381F0
:10144000E02DD7CF21153105F9F0281B390B2430B9
:10145000310580F48A819B816115710521F0FB01C2
:101460009383828304C09093DB038093DA03FE01AD
:10147000329644C0FE01E20FF31F819391932250F4
:101480003109398328833AC02091D8033091D90398
:10149000232B41F420910202309103023093D903AF
:1014A0002093D803209100023091010221153105CB
:1014B00041F42DB73EB74091040250910502241B20
:1014C000350BE091D803F091D903E217F307A0F4AC
:1014D0002E1B3F0B2817390778F0AC014E5F5F4F8A
:1014E0002417350748F04E0F5F1F5093D9034093E0
:1014F000D8038193919302C0E0E0F0E0CF01DF9147
:10150000CF910895CF93DF93009709F487C0FC0132
:10151000329713821282C091DA03D091DB032097B5
:1015200081F420813181280F391F8091D803909157
:10153000D9038217930779F5F093D903E093D80381
:101540006DC0DE0120E030E0AE17BF0750F4129608
:101550004D915C9113979D014115510509F1DA01F7
:10156000F3CFB383A28340815181840F951F8A17E3
:101570009B0771F48D919C911197840F951F029692
:101580009183808312968D919C911397938382838C
:101590002115310529F4F093DB03E093DA033EC013
:1015A000D9011396FC93EE9312974D915D91A40F80
:1015B000B51FEA17FB0779F480819181840F951F8D
:1015C0000296D90111969C938E93828193811396F2
:1015D0009C938E931297E0E0F0E08A819B810097C4
:1015E00019F0FE01EC01F9CFCE0102962881398174
:1015F000820F931F2091D8033091D9032817390700
:1016000069F4309729F41092DB031092DA0302C0D8
:1016100013821282D093D903C093D803DF91CF9164
:1016200008956F927F928F929F92AF92BF92CF92C6
:10163000DF92EF92FF920F931F93CF93DF93EC0112
:10164000CB01209781F4DF91CF911F910F91FF90F3
:10165000EF90DF90CF90BF90AF909F908F907F9052
:101660006F900C94EA09FE01E60FF71F9E012250CD
:101670003109E217F30708F4ACC0D9010D911C91B0
:10168000119706171707B8F00530110508F49FC029
:10169000A801445051094617570708F498C0025052
:1016A0001109061B170B019311936D937C93CF01C6
:1016B0000E94820A8CC05B01A01AB10A4E01800E02
:1016C000911EA091DA03B091DB03612C712C60E0D4
:1016D00070E0109709F449C0A815B905C9F5ED9057
:1016E000FC901197670142E0C40ED11CCA14DB04C0
:1016F00078F147018A189B08640142E0C40ED11CAE
:101700001296BC9012971396AC91B5E0CB16D1040B
:1017100040F0B282A38391828082D9018D939C9301
:1017200009C00E5F1F4F0E0D1F1DF90111830083AD
:10173000EB2DFA2F6115710531F0DB011396FC9347
:10174000EE93129744C0F093DB03E093DA033FC0BB
:101750006D917C9111976616770608F43B01BD01E7
:1017600012960D90BC91A02DB4CF6091D8037091CA
:10177000D90368157905E9F468167906D0F4409123
:101780000002509101024115510541F44DB75EB779
:101790006091040270910502461B570BE417F50790
:1017A000C0F4F093D903E093D803F90191838083C7
:1017B0000EC00E94EA097C01009759F0A801BE0101
:1017C0000E94210CCE010E94820AC70104C0CE01F2
:1017D00002C080E090E0DF91CF911F910F91FF90C8
:1017E000EF90DF90CF90BF90AF909F908F907F90C1
:1017F0006F9008951F93FC0199278827BC01E894F6
:1018000011911032E9F3193010F01E30C8F31B3279
:1018100051F01D3249F4689406C00E94380C610FE3
:10182000711D811D911D119110531A30B0F33EF4BA
:1018300090958095709561957F4F8F4F9F4F1F9129
:101840000895FB01DC0102C001900D92415050400F
:10185000D8F70895DC0101C06D9341505040E0F786
:101860000895FB01DC0101900D920020E1F708953D
:10187000592F482F372F262F660F771F881F991F44
:10188000660F771F881F991F620F731F841F951F94
:10189000660F771F881F991F089512E0C6EBD2E0EC
:1018A00000E006C022970109FE010BBF0E94CA0991
:0E18B000C83BD10780E00807A9F7F894FFCFE6
:1018BE000000DC03800052696E676C6963687420F7
:1018CE00626572656974210045696E6761626520A3
:1018DE0045727761727465743A00636F6D706C65F2
:1018EE0074656420737472696E67206172726976B2
:1018FE00656420002B52657365740D006E6F205267
:10190E006573657420004368616E6E656C206E6F42
:10191E007420617661696C61626C65210D004C45C5
:10192E00440056414C5545002B002D006572726FD8
:10193E00720D00524553455400000000005D06E153
:0A194E0007B005C905BB053B060004
:00000001FF
