:100000000C9444010C9475010C9475010C947501C9
:100010000C9475010C9475010C9475010C94750188
:100020000C9475010C9475010C9475010C94750178
:100030000C9475010C9475010C9475010C94750168
:100040000C9475010C9475010C9475010C94750158
:100050000C9475010C9475010C9475010C94720844
:100060000C9475010C94E6050C941C060C94750117
:100070000C9475010C9475010C9475010C94750128
:100080000C9475010C9475010C9475010C94750118
:100090000C9475010C9475010C9475010C94750108
:1000A0000C9475010C9475010C9475010C947501F8
:1000B0000C9475010C9475010C9475010C947501E8
:1000C0000C9475010C9475010C9475010C947501D8
:1000D0000C9475010C9475010C9475010C947501C8
:1000E0000C947501C803CB03BA03BE03C403020416
:1000F000CF03D303D903DD03E103E703EB03EF03EE
:100100000204F503F903FD030C94C4030C94DD030E
:100110000C9450060C9402040C94D3030C94BE036C
:100120000C94E7030C94CF030C9472040C94FD031D
:100130000C947D040C948B040C94FD040C94EC0240
:100140000C94E8020C949F040C94EF030C94F903B4
:100150000C94CB030C94D9030C94A3060C94D802F2
:100160000C94E1030C9446060C94F5030C94EB03F9
:100170000C94C8030C941F050C94BA0300000A0BDE
:1001800002090C0D0E080703040100000000000026
:10019000000000000000000000000000000000005F
:1001A000000000000000000012111000000000001C
:1001B000000000000000000000000000000000003F
:1001C000000001021020200808102040102040806C
:1001D000020102010804020101020408102040800B
:1001E0008040201008040201800402018040201099
:1001F00008040201080402010102040810204080E2
:1002000001020408102040800505050507050808BF
:100210000808020202020A0A080804040404010190
:1002200001010101010103030303030303030407A5
:1002300007070C0C0C0C0C0C0C0C0202020206063C
:100240000606060606060B0B0B0B0B0B0B0B000032
:100250002200250028002B002E003100340002016E
:100260000000050108010B01000021002400270007
:100270002A002D00300033000101000004010701B5
:100280000A01D8025006E80211241FBECFEFD1E2C6
:10029000DEBFCDBF00E00CBF12E0A0E0B2E0E6EBB5
:1002A000F7E100E00BBF02C007900D92A235B10745
:1002B000D9F723E0A2E5B2E001C01D92AB38B20746
:1002C000E1F712E0C6E8D2E000E006C0229701099B
:1002D000FE010BBF0E944609C238D10780E0080723
:1002E000A9F70E9494060C94C90B0C9400000F937C
:1002F0001F93CF93DF9308E012E0C0E0D0E0BE018F
:1003000084ED92E00E946008F80121918F01FC01C8
:100310008081821711F080E019C02196C330D10589
:1003200071F70CE012E0C5E0D0E0BE0184ED92E090
:100330000E946008F80121918F01FC0180818213E5
:10034000EACF2196CA30D10581F781E0DF91CF91C4
:100350001F910F9108950F931F93CF93DF9302E1A5
:1003600012E0C0E0D0E0BE0184ED92E00E9460089F
:10037000F80121918F01FC018081821306C0219632
:10038000C530D10581F781E001C080E0DF91CF91D8
:100390001F910F910895CF93C0E040E050E06C2F83
:1003A0008AED92E00E947603CF5FC831B1F78AED03
:1003B00092E0CF910C941F0326E040E855E260E004
:1003C00070E080EE92E00E94840568EC70E084EDBD
:1003D00092E00E94B50768E172E080EE92E00E9430
:1003E0000C078AED92E00E94920365E272E080EED3
:1003F00092E00E940C0761E083E00E94030461E048
:1004000082E00E94030461E082E00E943C0460E01C
:1004100083E00E943C040C94CB01CF92DF92EF92D8
:10042000FF921F93CF93DF938091D302882309F427
:10043000B5C064ED72E080EE92E00E94E1060E9499
:10044000AB01882351F00E94CB0161E472E084ED9E
:1004500092E00E9408081092D3020E94770188233C
:1004600051F067E372E080EE92E00E94EF0681E0D7
:100470008093520206C069E372E080EE92E00E942F
:10048000EF0680915202882309F474C0C0910602DD
:10049000D091070263E070E084ED92E00E94600872
:1004A000FC0180818883C0910602D0910702CE01B1
:1004B0000196909307028093060264E070E084ED59
:1004C00092E00E946008FC0180818983809106028D
:1004D0009091070201969093070280930602CAE06A
:1004E000D0E0E0900602F0900702BE0184ED92E0B9
:1004F0000E946008FC018081F701808380910602E0
:10050000909107020196909307028093060221962C
:10051000CE30D10531F783E592E00E94760B6B0176
:100520007C0120E137E240E050E00E941E09122FDA
:1005300080EF98ED289FE001299FD00D1124CC0D6C
:10054000DD1D2AE030E0B701A60180EE92E00E94B6
:10055000770760E472E080EE92E00E94EF06AE0161
:10056000612F8AED92E00E9476038AED92E00E946C
:100570001F0306C06BE372E080EE92E00E94EF067C
:1005800083E592E0909307028093060261E472E0B3
:1005900084ED92E00E9408081092D302DF91CF917F
:1005A0001F91FF90EF90DF90CF9008950C940D0273
:1005B0000F9307E024E045E061E08AED92E00E94BD
:1005C000090361E472E084ED92E00F910C94F2076C
:1005D00084ED92E00C948407CF93DF93D1E080EE1A
:1005E00092E00E947204892B89F080EE92E00E94D2
:1005F0008B04C82F682F84ED92E00E944C08CA300B
:1006000011F0CD3061F7D093D302E9CFDF91CF91D4
:1006100008950F93CF93DF93EC016A834B832C8370
:100620000D8388E1689FB001112482E090E00E9470
:100630004A0999838883DF91CF910F910895BF92E2
:10064000CF92DF92EF92FF920F931F93CF93DF939E
:10065000EC0160E08D810E943C04BA8088E1B89E84
:10066000B02C1124BA94CC24C394D12C1B144CF577
:10067000EB2CEE0CFF080CE010E060E08B810E9498
:100680003C04C601002E02C0880F991F0A94E2F7AD
:10069000E881F981EE0DFF1D2081318182239323B2
:1006A000892B11F061E001C060E08C810E943C0464
:1006B00061E08B810E943C0401501109F1F6BA946B
:1006C000D5CF60E08B810E943C0461E08D810E9467
:1006D0003C0460E08D81DF91CF911F910F91FF90DD
:1006E000EF90DF90CF90BF900C943C04DC01129609
:1006F0002C9170E0B8E12B9F900111242617370749
:1007000084F0660F771FDC01ED91FC91E60FF71F77
:10071000CA014115B0E15B0710F08FEF9FE09183B4
:1007200080830895CF93DF93EC0188819981892B91
:1007300091F061E08B810E94030461E08C810E9452
:10074000030461E08D810E94030460E08D810E94BA
:100750003C0481E001C080E0DF91CF91089590E0FA
:10076000FC013197E231F10508F04CC0EE58FF4F23
:100770000C944009809180008F7703C080918000A5
:100780008F7D80938000089580918000877FF9CFCE
:1007900084B58F7702C084B58F7D84BD0895809124
:1007A000B0008F7703C08091B0008F7D8093B00040
:1007B0000895809190008F7707C0809190008F7D81
:1007C00003C080919000877F80939000089580916E
:1007D000A0008F7707C08091A0008F7D03C080911B
:1007E000A000877F8093A0000895809120018F77DB
:1007F00007C0809120018F7D03C080912001877FF9
:10080000809320010895CF93DF9390E0FC01EE5395
:10081000FE4F2491FC01E85FFD4F8491882349F14C
:1008200090E0880F991FFC01E859FD4FA591B49104
:10083000825B9D4FFC01C591D4919FB7611108C0A7
:10084000F8948C91209582238C93888182230AC00E
:10085000623051F4F8948C91322F309583238C932D
:100860008881822B888304C0F8948C91822B8C938E
:100870009FBFDF91CF9108950F931F93CF93DF9385
:100880001F92CDB7DEB7282F30E0F901E458FE4FB4
:100890008491F901EE53FE4F1491F901E85FFD4F89
:1008A00004910023C9F0882321F069830E94AF03DB
:1008B0006981E02FF0E0EE0FFF1FE25BFD4FA59195
:1008C000B4919FB7F8948C91611103C01095812366
:1008D00001C0812B8C939FBF0F90DF91CF911F910F
:1008E0000F910895FC01818D228D90E0805C9F4FD7
:1008F000821B91098F7399270895FC01918D828D38
:10090000981731F0828DE80FF11D858D90E00895E4
:100910008FEF9FEF0895FC01918D828D981761F004
:10092000828DDF01A80FB11D5D968C91928D9F5F26
:100930009F73928F90E008958FEF9FEF089586E464
:1009400096E0892B41F08CEE92E0892B21F00E94F9
:100950004606811125C080E090E0892B41F080E0BF
:1009600090E0892B21F00E94000081111CC080E0E2
:1009700090E0892B41F080E090E0892B21F00E94EB
:100980000000811113C080E090E0892BA1F080E08D
:1009900090E0892B81F00E94000081110AC0089527
:1009A0000E94EC02D8CF0E940000E1CF0E9400001C
:1009B000EACF0C9400000895FC01848DDF01A80F9C
:1009C000B11DA35ABF4F2C91848D90E001968F7377
:1009D0009927848FA689B7892C93A089B1898C9196
:1009E00080648C93938D848D981306C00288F3895C
:1009F000E02D80818F7D80830895CF93DF93EC017C
:100A0000888D8823C9F0EA89FB89808185FD05C02E
:100A1000A889B9898C9186FD0FC00FB607FCF5CF68
:100A2000808185FFF2CFA889B9898C9185FFEDCFB0
:100A3000CE010E94DC04E7CFDF91CF910895CF92E1
:100A4000DF92FF920F931F93CF93DF931F92CDB747
:100A5000DEB76C01DC015B969C915B975C968C9198
:100A60005C97981307C05096ED91FC915197808147
:100A700085FD32C0F601038D10E00F5F1F4F0F732D
:100A80001127F02EF601848DF81211C00FB607FC65
:100A9000F9CFD6015096ED91FC915197808185FF59
:100AA000F1CFC60169830E94DC046981EBCF838D9D
:100AB000E80FF11DE35AFF4F6083D6015B960C935C
:100AC0005B975296ED91FC91539780818062808371
:100AD00081E058968C930DC0D6015696ED91FC910D
:100AE000579760835096ED91FC9151978081806477
:100AF000808381E090E00F90DF91CF911F910F9163
:100B0000FF90DF90CF900895BF92CF92DF92EF9247
:100B1000FF92CF93DF93EC016A017B01B22EE8894B
:100B2000F98982E08083411581EE580761057105DE
:100B3000A1F060E079E08DE390E0A70196010E94CA
:100B40001E0921503109410951095695479537959C
:100B50002795211580E1380798F0E889F9891082F6
:100B600060E874E88EE190E0A70196010E941E09FA
:100B700021503109410951095695479537952795D7
:100B8000EC85FD853083EE85FF852083188EEC890A
:100B9000FD89B082EA89FB89808180618083EA894E
:100BA000FB89808188608083EA89FB8980818068F5
:100BB0008083EA89FB8980818F7D8083DF91CF915B
:100BC000FF90EF90DF90CF90BF9008951F920F920B
:100BD0000FB60F9211240BB60F922F938F939F9302
:100BE000EF93FF93E091F002F091F1028081E091A8
:100BF000F602F091F70282FD12C090818091F90215
:100C00008F5F8F732091FA02821751F0E091F90201
:100C1000F0E0E052FD4F958F8093F90201C0808192
:100C2000FF91EF919F918F912F910F900BBE0F909D
:100C30000FBE0F901F9018951F920F920FB60F9234
:100C400011240BB60F922F933F934F935F936F93A3
:100C50007F938F939F93AF93BF93EF93FF9380EE18
:100C600092E00E94DC04FF91EF91BF91AF919F91C0
:100C70008F917F916F915F914F913F912F910F9045
:100C80000BBE0F900FBE0F901F90189580EE92E054
:100C90000E94720421E0892B09F420E0822F08953C
:100CA0001092E3021092E20288EE93E0A0E0B0E03E
:100CB0008093E4029093E502A093E602B093E702EA
:100CC00086E492E09093E1028093E00285EC90E06C
:100CD0009093ED028093EC0284EC90E09093EF020D
:100CE0008093EE0280EC90E09093F1028093F0020A
:100CF00081EC90E09093F3028093F20282EC90E01A
:100D00009093F5028093F40286EC90E09093F702C2
:100D10008093F6021092F9021092FA021092FB02EE
:100D20001092FC02089508950E94BC080E94930648
:100D30000E94DC01CFE9D4E00E94D6022097E1F3C3
:100D40000E949F04F9CFCF92DF92EF92FF920F9310
:100D50001F93CF93DF936C017A01EB01E60EF71E30
:100D600000E010E0CE15DF0561F06991D601ED914C
:100D7000FC910190F081E02DC6011995080F191F13
:100D8000F1CFC801DF91CF911F910F91FF90EF90AC
:100D9000DF90CF9008956115710581F0DB010D9012
:100DA0000020E9F7AD0141505109461B570BDC010A
:100DB000ED91FC910280F381E02D199480E090E0A8
:100DC0000895DC01ED91FC91DB0114964D915C914D
:100DD00015976D917C910280F381E02D19940C940C
:100DE000CB06DC01ED91FC910190F081E02D19948E
:100DF0000F931F93CF93DF93EC016DE00E94F106F8
:100E00008C016AE0CE010E94F106800F911FDF91F4
:100E1000CF911F910F9108950F931F93CF93DF935D
:100E2000EC010E94CB068C01CE010E94F806800FD7
:100E3000911FDF91CF911F910F9108958F929F92F3
:100E4000AF92BF92CF92DF92EF92FF920F931F93D8
:100E5000CF93DF93CDB7DEB7A1970FB6F894DEBF7F
:100E60000FBECDBF7C01C42EE52FCB01D22E19A21F
:100E700021E02D1510F02AE0D22E8E010F5D1F4FBC
:100E80008D2C912CA12CB12C6C2D7E2FA5019401C1
:100E90000E941E098C2DD29E801911240150110927
:100EA0008A3014F4805D01C0895CF80180832115CB
:100EB00031054105510521F0C22EE32FCA01E4CFCF
:100EC000B801C7010E94CB06A1960FB6F894DEBF09
:100ED0000FBECDBFDF91CF911F910F91FF90EF908B
:100EE000DF90CF90BF90AF909F908F900895211585
:100EF000310541F4DC01ED91FC910190F081E02D90
:100F0000642F19940C941E07FC01808191810C942C
:100F1000FE09CF93DF93EC0188819981009711F04E
:100F20000E94FE09198218821D821C821B821A826D
:100F3000DF91CF9108950F931F93CF93DF93EC012F
:100F40008B016F5F7F4F888199810E948D0A009786
:100F500031F0998388831B830A8381E001C080E09C
:100F6000DF91CF911F910F910895CF93DF93EC0103
:100F700088819981892B29F08A819B81861797071F
:100F800060F4CE010E949B07882341F08C819D81F3
:100F9000892B19F4E881F981108281E0DF91CF91EA
:100FA0000895EF92FF920F931F93CF93DF93EC017D
:100FB0007B018A01BA010E94B507811104C0CE01EC
:100FC0000E94890707C01D830C83B701888199811E
:100FD0000E94AD0BCE01DF91CF911F910F91FF9039
:100FE000EF900895FC011182108213821282158203
:100FF00014826115710559F0FB0101900020E9F799
:10100000AF0141505109461B570B0C94D10708956D
:10101000CF93DF93EC016115710561F0FB01019045
:101020000020E9F7AF0141505109461B570B0E94C0
:10103000D10702C00E948907CE01DF91CF910895A8
:10104000EF92FF920F931F93CF93DF93EC017B01FD
:101050000C811D816115710511F480E016C04115E8
:10106000510591F0040F151FB8010E94B5078823A0
:10107000A1F3288139818C819D81B701820F931F53
:101080000E94AD0B1D830C8381E0DF91CF911F91F6
:101090000F91FF90EF900895CF93DF931F921F92CF
:1010A000CDB7DEB769831A8241E050E0BE016F5FC1
:1010B0007F4F0E9420080F900F90DF91CF910895ED
:1010C000FC01848195816817790720F480819181E2
:1010D000009729F410927D038DE793E00895860F21
:1010E000971F08951F920F920FB60F9211242F93FE
:1010F0003F938F939F93AF93BF9380917F03909182
:101100008003A0918103B091820330917E0323E09C
:10111000230F2D3720F40196A11DB11D05C026E82F
:10112000230F0296A11DB11D20937E0380937F03A0
:1011300090938003A0938103B093820380918303F3
:1011400090918403A0918503B09186030196A11D1F
:10115000B11D8093830390938403A0938503B09380
:101160008603BF91AF919F918F913F912F910F90E7
:101170000FBE0F901F901895789484B5826084BD3F
:1011800084B5816084BD85B5826085BD85B581608B
:1011900085BDEEE6F0E0808181608083E1E8F0E0EB
:1011A0001082808182608083808181608083E0E81A
:1011B000F0E0808181608083E1EBF0E080818460F9
:1011C0008083E0EBF0E0808181608083E1E9F0E002
:1011D000808182608083808181608083E0E9F0E0AB
:1011E000808181608083E1EAF0E080818260808399
:1011F000808181608083E0EAF0E08081816080838B
:10120000E1E2F1E08081826080838081816080837F
:10121000E0E2F1E0808181608083EAE7F0E08081B4
:10122000846080838081826080838081816080830C
:101230008081806880831092C1000895A1E21A2EF7
:10124000AA1BBB1BFD010DC0AA1FBB1FEE1FFF1F6A
:10125000A217B307E407F50720F0A21BB30BE40BBA
:10126000F50B661F771F881F991F1A9469F7609501
:101270007095809590959B01AC01BD01CF010895BB
:10128000EE0FFF1F0590F491E02D19940790F69151
:10129000E02D19940F931F93CF93DF93869F8001C6
:1012A000879F100D969F100D1124C8010E9466099A
:1012B000EC01009729F0A80160E070E00E94A60B05
:1012C000CE01DF91CF911F910F910895CF93DF93BE
:1012D0008230910510F482E090E0E0918903F09172
:1012E0008A0320E030E0A0E0B0E0309739F140819F
:1012F000518148175907B8F04817590771F482818E
:101300009381109729F013969C938E9312972CC07B
:1013100090938A038093890327C02115310531F00A
:101320004217530718F0A901DB0101C0EF019A0130
:10133000BD01DF010280F381E02DD7CF21153105FA
:10134000F9F0281B390B2430310580F48A819B8108
:101350006115710521F0FB019383828304C0909392
:101360008A0380938903FE01329644C0FE01E20F96
:10137000F31F8193919322503109398328833AC016
:101380002091870330918803232B41F4209102029E
:101390003091030230938803209387032091000249
:1013A000309101022115310541F42DB73EB740912E
:1013B000040250910502241B350BE0918703F09144
:1013C0008803E217F307A0F42E1B3F0B28173907F9
:1013D00078F0AC014E5F5F4F2417350748F04E0F91
:1013E0005F1F50938803409387038193919302C0BA
:1013F000E0E0F0E0CF01DF91CF910895CF93DF934C
:10140000009709F487C0FC01329713821282C091C1
:101410008903D0918A03209781F420813181280F9C
:10142000391F80918703909188038217930779F57C
:10143000F0938803E09387036DC0DE0120E030E085
:10144000AE17BF0750F412964D915C9113979D0112
:101450004115510509F1DA01F3CFB383A28340812D
:101460005181840F951F8A179B0771F48D919C9170
:101470001197840F951F02969183808312968D9108
:101480009C911397938382832115310529F4F0935E
:101490008A03E09389033EC0D9011396FC93EE932F
:1014A00012974D915D91A40FB51FEA17FB0779F4D0
:1014B00080819181840F951F0296D90111969C938A
:1014C0008E938281938113969C938E931297E0E082
:1014D000F0E08A819B81009719F0FE01EC01F9CFC1
:1014E000CE01029628813981820F931F20918703B4
:1014F000309188032817390769F4309729F410923E
:101500008A031092890302C013821282D093880347
:10151000C0938703DF91CF9108956F927F928F924E
:101520009F92AF92BF92CF92DF92EF92FF920F9372
:101530001F93CF93DF93EC01CB01209781F4DF91D0
:10154000CF911F910F91FF90EF90DF90CF90BF90C0
:10155000AF909F908F907F906F900C946609FE01E2
:10156000E60FF71F9E0122503109E217F30708F436
:10157000ACC0D9010D911C91119706171707B8F04F
:101580000530110508F49FC0A801445051094617C1
:10159000570708F498C002501109061B170B019356
:1015A00011936D937C93CF010E94FE098CC05B0167
:1015B000A01AB10A4E01800E911EA0918903B0912C
:1015C0008A03612C712C60E070E0109709F449C027
:1015D000A815B905C9F5ED90FC901197670142E097
:1015E000C40ED11CCA14DB0478F147018A189B0889
:1015F000640142E0C40ED11C1296BC90129713965F
:10160000AC91B5E0CB16D10440F0B282A3839182B5
:101610008082D9018D939C9309C00E5F1F4F0E0DE0
:101620001F1DF90111830083EB2DFA2F6115710540
:1016300031F0DB011396FC93EE93129744C0F093C4
:101640008A03E09389033FC06D917C9111976616E0
:10165000770608F43B01BD0112960D90BC91A02DB8
:10166000B4CF609187037091880368157905E9F418
:1016700068167906D0F4409100025091010241159C
:10168000510541F44DB75EB76091040270910502B7
:10169000461B570BE417F507C0F4F0938803E0935B
:1016A0008703F901918380830EC00E9466097C0143
:1016B000009759F0A801BE010E949D0BCE010E9427
:1016C000FE09C70104C0CE0102C080E090E0DF91B6
:1016D000CF911F910F91FF90EF90DF90CF90BF902F
:1016E000AF909F908F907F906F9008951F93FC0113
:1016F00099278827BC01E89411911032E9F3193039
:1017000010F01E30C8F31B3251F01D3249F46894BA
:1017100006C00E94B40B610F711D811D911D1191B6
:1017200010531A30B0F33EF4909580957095619502
:101730007F4F8F4F9F4F1F910895FB01DC0102C027
:1017400001900D9241505040D8F70895DC0101C03E
:101750006D9341505040E0F70895FB01DC0101908A
:101760000D920020E1F70895592F482F372F262F8B
:10177000660F771F881F991F660F771F881F991F95
:10178000620F731F841F951F660F771F881F991F95
:10179000089512E0C6E8D2E000E006C022970109F1
:1017A000FE010BBF0E944609C838D10780E0080738
:0617B000A9F7F894FFCF39
:1017B60000008B03800053024C45440056414C55B3
:1017C6004500524553455400544C4335393734206F
:1017D600746573740045696E67616265204572774A
:1017E60061727465743A002B002D006572726F7217
:1017F6000D00000000001F05A30672048B047D0483
:02180600FD04DF
:00000001FF
