:100000000C9470010C9498010C9498010C94980134
:100010000C9498010C9498010C9498010C949801FC
:100020000C9498010C9498010C945D0B0C94290A83
:100030000C9498010C9498010C9498010C949801DC
:100040000C9498010C9498010C9498010C949801CC
:100050000C9498010C9498010C9498010C94C00C89
:100060000C9498010C9498010C9498010C949801AC
:100070000C9498010C9498010C9498010C9498019C
:100080000C9498010C9498010C9498010C9498018C
:100090000C9498010C9498010C9498010C9498017C
:1000A0000C9498010C9498010C9498012403430338
:1000B000260329032C032F0332033503AC05AF05B8
:1000C0009E05A205A805D005D005D005B305B70546
:1000D000BB05C105C505D005CB0500000002000920
:1000E0000F0000030401000C0000000000000000ED
:1000F00000000000000000000408020110408040E1
:10010000102040804080080204018040201002013D
:10011000108010204040040404040403040502027B
:100120000202040302020202060606060606040490
:100130000202020400000000250028002B002E000F
:10014000310000000000240027002A002D003000AC
:10015000080B000202020100090400000102020073
:1001600000052400100105240101010424020605F4
:100170002406000107058103100040090401000264
:100180000A00000007050202400000070583024044
:10019000000000C18081C112010002020000404144
:1001A000233780000101020001120100020000005B
:1001B00040412337800001010200014172647569EA
:1001C0006E6F204C4C430041726475696E6F204D18
:1001D0006963726F0004030904000000000000005E
:1001E000002A2B2800000000000000000000000092
:1001F0000000000000000000002C9EB4A0A1A2A4FA
:1002000034A6A7A5AE362D3738271E1F202122235E
:10021000242526B333B62EB7B89F84858687888970
:100220008A8B8C8D8E8F90919293949596979899B6
:100230009A9B9C9D2F3130A3AD3504050607080914
:100240000A0B0C0D0E0F1011121314151617181996
:100250001A1B1C1DAFB1B0B5000904020001030058
:100260000000092101010001226500070584034007
:10027000000105010902A1010901A100850105098B
:1002800019012903150025019503750181029501C6
:100290007505810305010930093109381581257F6C
:1002A000750895038106C0C005010906A1018502F4
:1002B000050719E029E71500250175019508810258
:1002C00095017508810395067508150025650507D4
:1002D000190029658100C000C7011207E10EDD0188
:1002E00011241FBECFEFDAE0DEBFCDBF11E0A0E0EA
:1002F000B1E0E6E7F3E202C005900D92A43DB1073C
:10030000D9F722E0A4EDB1E001C01D92A73EB207EB
:10031000E1F712E0CEEDD2E004C02297FE010E9488
:10032000130FC83DD107C9F70E9430070C94AE11D6
:100330000C940000849A40E458E360E070E083E7A6
:1003400092E00E94FD0683E792E00E940307882363
:10035000D1F360E171E083E792E00E949E078DE6B1
:1003600092E00E94650362E271E083E792E00E94FE
:100370009E0786ED91E00E94750586ED91E00E9452
:1003800070058DE692E00E9482038C9808950F9389
:1003900004E127E146E161E08DE692E00E948502FA
:1003A0008AED91E00E94960345E050E069E070E03C
:1003B00086ED91E00F910C9446058AED91E00C9446
:1003C000D30BCF93DF93D1E083E792E00E946A06DC
:1003D000892BB9F0D093D50183E792E00E947A0689
:1003E000C82F682F8AED91E00E949B0CCA3011F053
:1003F000CD3051F7D093E0011092D4011092D50185
:10040000E3CFDF91CF910895F89483E792E00E94C3
:100410006A061816190614F40E94E1018091E001A1
:10042000882309F470C064E371E083E792E00E94DE
:1004300081078AED91E00E94B603882379F08DE66A
:1004400092E00E94820386ED91E00E9470056FE4C5
:1004500071E083E792E00E94810755C08AED91E048
:100460000E94E303882399F08AED91E00E941E0424
:100470004091E2015091E3016091E1018DE692E04B
:100480000E9402038DE692E00E949B023CC08AED2E
:1004900091E00E94AE04882389F067E571E083E76C
:1004A00092E00E9481078AED91E00E94F60460913B
:1004B000E40186ED91E00E944C0525C08AED91E0B3
:1004C0000E94D204882389F06EE571E083E792E010
:1004D0000E9481078AED91E00E94F6046091E40198
:1004E00086ED91E00E945E050EC065E671E083E74F
:1004F00092E00E94810769E971E08AED91E00E9433
:10050000570C1092E001789408950F93CF93DF93E6
:10051000EC016A834B832C830D8388E1689FB001D3
:10052000112482E090E00E94170F99838883DF9165
:10053000CF910F9108958F929F92AF92BF92CF92D9
:10054000DF92EF92FF920F931F93CF93DF93EC0113
:1005500060E08D810E940A06AA8088E1A89E500171
:100560001124850101501109000F111FC12CD12C3C
:1005700088248394912CCA14DB0461F18BE0E82E6B
:10058000F12C60E08B810E940A06C4010E2C02C08F
:10059000880F991F0A94E2F7E881F981E00FF11FB3
:1005A0002081318182239323892B11F061E001C0E6
:1005B00060E08C810E940A0661E08B810E940A063D
:1005C00081E0E81AF108E8F68FEFC81AD80A02505D
:1005D0001109D1CF60E08B810E940A0661E08D8114
:1005E0000E940A0660E08D81DF91CF911F910F91EB
:1005F000FF90EF90DF90CF90BF90AF909F908F9043
:100600000C940A06CF92DF92FF920F931F93CF9321
:10061000DF9300D0CDB7DEB76C01FC018281262FBD
:1006200030E0F8E08F9FC0011124821793070CF48B
:1006300042C0062F10E0F8013197E830F105C0F410
:10064000EA5AFF4F0C94110FF12C1FC0B6E0FB2E9D
:100650001CC0A9E0FA2E19C0FCE0FF2E16C0EFE086
:10066000FE2E13C072E1F72E10C065E1F62E0DC00C
:1006700062E871E083E792E049835A830E94810730
:1006800049815A8102C033E0F32E9A01411570E18D
:10069000570710F02FEF3FE0F60190818181E92F9D
:1006A000F82FEF0DF11DEF0DF11D31832083338302
:1006B0002283358324830F900F90DF91CF911F9178
:1006C0000F91FF90DF90CF900895CF93DF93EC01CF
:1006D00088819981892B91F061E08B810E94D105FD
:1006E00061E08C810E94D10561E08D810E94D1057D
:1006F00060E08D810E940A0681E001C080E0DF9108
:10070000CF9108951F93CF93DF93EC0111E040E068
:1007100050E0612FCE010E9402031F5F1930B9F72C
:10072000CE01DF91CF911F910C949B02CF93DF9369
:10073000EC0169E971E00E94410C1E821F8219865A
:1007400018861B861A861C861D861E861F86188A9A
:10075000FE01EF56FF4FCE0141969183808368E8FA
:1007600073E1CE01DF91CF910C94040CEF92FF92D4
:100770000F931F93CF93DF938C018AE9E82E81E0DA
:10078000F82EC0E0D0E0BE01C8010E94AE0CF70117
:1007900021917F01FC01808182130DC02196C5301B
:1007A000D10589F769E971E0C8010E94570CF80189
:1007B000168281E001C080E0DF91CF911F910F91FF
:1007C000FF90EF900895EF92FF920F931F93CF93B6
:1007D000DF938C0120EAE22E21E0F22EC0E0D0E08F
:1007E000BE01C8010E94AE0CF70121917F01FC01FE
:1007F0008081821711F080E01AC02196C330D105A4
:1008000079F794EAE92E91E0F92EC5E0D0E0BE0137
:10081000C8010E94AE0CF70121917F01FC0180818B
:100820008213E9CF2196CA30D10589F781E0DF91A3
:10083000CF911F910F91FF90EF900895AF92BF92CB
:10084000CF92DF92EF92FF920F931F93CF93DF939C
:10085000EC018C010F561F4FF801E080F18063E03E
:1008600070E00E94AE0CFC018081F7018083F801EA
:10087000E080F180C70101969183808364E070E09D
:10088000CE010E94AE0CFC018081F7018183F8014A
:10089000808191810196918380833AE0E32EF12C4F
:1008A000F801C080D180B701CE010E94AE0CFC01DE
:1008B0008081F6018083F801808191810196918386
:1008C0008083FFEFEF1AFF0A8EE0E816F10441F78C
:1008D0005E01E1E1AE0EB11CC5010E9424116B0165
:1008E0007C016C877D878E879F8720E137E240E01F
:1008F00050E00E94EF0E2F8340EF58ED249FC0017F
:10090000259F900D11248C0D9D1D998788872AE0C5
:1009100030E0B701A60183E792E00E94090868E988
:1009200071E083E792E00E948107F801B182A08222
:1009300069E971E0CE010E94570C1E8280E8F50142
:1009400011928A95E9F7DF91CF911F910F91FF9056
:10095000EF90DF90CF90BF90AF900895EF92FF920D
:100960000F931F93CF93DF937C010AEA11E0C0E05D
:10097000D0E0BE01C7010E94AE0CF80121918F01A9
:10098000FC018081821306C02196C530D10589F70C
:1009900081E001C080E0DF91CF911F910F91FF9026
:1009A000EF900895EF92FF920F931F93CF93DF93F1
:1009B0007C0100EB11E0C0E0D0E0BE01C7010E9465
:1009C000AE0CF80121918F01FC018081821306C0D9
:1009D0002196C530D10589F781E001C080E0DF9123
:1009E000CF911F910F91FF90EF900895CF92DF92DA
:1009F000EF92FF920F931F93CF93DF93EC0145E0AB
:100A0000E42EF12C8C010F561F4FF801C080D180CD
:100A1000B701CE010E94AE0CFC018081F6018083FB
:100A2000F80180819181019691838083FFEFEF1A15
:100A3000FF0A88E0E816F10441F77E01E1E1EE0EDD
:100A4000F11CC7010E9424116F3F710509F018F4D1
:100A50007B876A8704C08FEF90E09B878A87F801C5
:100A6000F182E08269E971E0CE010E94570C1E829A
:100A700080E8F70111928A95E9F7DF91CF911F91F4
:100A80000F91FF90EF90DF90CF900895FC0171835C
:100A90006083538342830895CF93C62F4AE050E08A
:100AA00083E792E00E94160868E971E083E792E02C
:100AB0000E948107C0938800CF910895CF93C62FDD
:100AC0004AE050E083E792E00E94160868E971E08E
:100AD00083E792E00E948107C0939800CF91089528
:100AE0001092880010929800089561E085E00E94BD
:100AF000D10561E089E00E94D105E1E8F0E0808164
:100B0000887F81608083E0E8F0E080818168808375
:100B1000E1E9F0E08081887F81608083E0E9F0E0B6
:100B2000808181688083089590E0FC013197EF30E7
:100B3000F105B0F5E25AFF4F0C94110F809180003F
:100B40008F7703C0809180008F7D8093800008950F
:100B500080918000877FF9CF84B58F7702C084B5FC
:100B60008F7D84BD0895809190008F7707C080911C
:100B700090008F7D03C080919000877F80939000CC
:100B800008958091C0008F7703C08091C0008F7D51
:100B90008093C00008958091C200877F8093C20037
:100BA0000895CF93DF9390E0FC01E850FF4F24912C
:100BB000FC01EA5EFE4F8491882349F190E0880FA2
:100BC000991FFC01EE5BFE4FA591B4918C5C9E4F8A
:100BD000FC01C591D4919FB7611108C0F8948C9124
:100BE000209582238C93888182230AC0623051F43D
:100BF000F8948C91322F309583238C938881822BAB
:100C0000888304C0F8948C91822B8C939FBFDF91D2
:100C1000CF9108950F931F93CF93DF931F92CDB77A
:100C2000DEB7282F30E0F901E652FF4F8491F90139
:100C3000E850FF4F1491F901EA5EFE4F0491002342
:100C4000C9F0882321F069830E9494056981E02F0F
:100C5000F0E0EE0FFF1FEC5CFE4FA591B4919FB743
:100C6000F8948C91611103C01095812301C0812BF0
:100C70008C939FBF0F90DF91CF911F910F9108959B
:100C8000CF93DF931F92CDB7DEB76983DC01ED917F
:100C9000FC910280F381E02D41E050E0BE016F5FE6
:100CA0007F4F09950F90DF91CF910895CF93DF93F8
:100CB000EC018C859D8597FF05C082E00E94FE08AF
:100CC0009D878C878C859D85DF91CF91089583E0EA
:100CD0000C94530BFC018485958597FD06C082E03A
:100CE0000E94A60890E00196089582E00E94A6085E
:100CF00090E00895FC018485958597FD05C02FEF50
:100D00003FEF35872487089582E00C94FE08CF9347
:100D1000DF93EC0180910D01882331F083E00E9484
:100D20002F091816190634F081E090E09B838A831E
:100D300080E090E0DF91CF910895FC0120812E5F4B
:100D4000208342E450E060E571E080E80C94CA0939
:100D5000FC0181819081913A59F4813209F03CC0C3
:100D600047E050E066E071E080E00E94CA0943C0BD
:100D7000913291F5803239F467E070E086E091E0DD
:100D80000E94FB0906C0823209F035C0828180933F
:100D90000D018091060190910701A0910801B09189
:100DA0000901803B9440A105B105C1F480910D017A
:100DB00080FD14C087E797E79093010880930008AF
:100DC0002BE088E190E00FB6F894A895809360003E
:100DD0000FBE209360000FC080E0089588E10FB639
:100DE000F89480936000109260000FBEA895109256
:100DF00001081092000881E008952FEF3FEFFC01F9
:100E0000358724870895CF93C0910D016AE070E083
:100E100080E090E00E942D0D81E0C11101C080E0D2
:100E2000CF910895109276021092750288EE93E0A9
:100E3000A0E0B0E08093770290937802A0937902CB
:100E4000B0937A028AEB91E09093740280937302DC
:100E50008FEF9FEF9093800280937F020895089513
:100E60000E94550D0E942F0783EC92E00E94B30B65
:100E70000E949A01C0E0D0E00E9404022097E1F3B2
:100E80000E940000F9CFCF92DF92EF92FF920F9372
:100E90001F93CF93DF936C017A01EB01E60EF71EEF
:100EA00000E010E0CE15DF0561F06991D601ED910B
:100EB000FC910190F081E02DC6010995080F191FE2
:100EC000F1CFC801DF91CF911F910F91FF90EF906B
:100ED000DF90CF9008956115710581F0DB010D90D1
:100EE0000020E9F7AD0141505109461B570BDC01C9
:100EF000ED91FC910280F381E02D099480E090E077
:100F000008950C946B07DC01ED91FC910190F08148
:100F1000E02D09940F931F93CF93DF93EC016DE0C5
:100F20000E9483078C016AE0CE010E948307800F34
:100F3000911FDF91CF911F910F9108950F931F93F0
:100F4000CF93DF93EC010E946B078C01CE010E94CE
:100F50008A07800F911FDF91CF911F910F91089504
:100F60008F929F92AF92BF92CF92DF92EF92FF92B9
:100F70000F931F93CF93DF93CDB7DEB7A1970FB633
:100F8000F894DEBF0FBECDBF7C01C42EE52FCB0190
:100F9000D22E19A221E02D1510F02AE0D22E8E01BA
:100FA0000F5D1F4F8D2C912CA12CB12C6C2D7E2F01
:100FB000A50194010E94EF0E8C2DD29E8019112460
:100FC000015011098A3014F4805D01C0895CF80178
:100FD0008083211531054105510521F0C22EE32FF3
:100FE000CA01E4CFB801C7010E946B07A1960FB6F2
:100FF000F894DEBF0FBECDBFDF91CF911F910F914F
:10100000FF90EF90DF90CF90BF90AF909F908F9028
:1010100008952115310541F4DC01ED91FC91019019
:10102000F081E02D642F09940C94B0070F931F9367
:10103000CF93DF93EC019A01462F50E060E070E01F
:101040000E9409088C01CE010E948A07800F911F1F
:10105000DF91CF911F910F9108954091C702509158
:10106000C8022091C5023091C60242175307B4F45A
:101070009091E8009570E1F39091E80092FD19C01D
:101080008093F1008091C7029091C80201968F73FE
:101090009927892B19F48EEF8093E8008091C7027D
:1010A0009091C80201969093C8028093C70281E094
:1010B000089580E00895CF92DF92FF920F931F93DF
:1010C000CF93DF931F92CDB7DEB7082F162F862F51
:1010D000880F8E5F99830E942D0883E00E942D085F
:1010E000F02EC02E9981D92E8C2D8F19811778F46E
:1010F000F60184910E942D08082F80E00E942D089F
:101100008023FFEFCF1ADF0A8111EECF01C081E00B
:101110000F90DF91CF911F910F91FF90DF90CF90B3
:101120000895615030F02091F100FC012083019678
:10113000F8CF289A84E68093CA0208952FB7FC015D
:101140002083F89467706093E9000895CF93DF934C
:101150001F92CDB7DEB7682FCE0101960E949E0880
:101160008091F20099819FBF0F90DF91CF910895F8
:10117000FF920F931F93CF93DF9300D0CDB7DEB7CD
:10118000F62E8A019091C902992311F057FF03C0EE
:101190008FEF9FEF2BC0682FCE0101967A830E94BC
:1011A0009E088091F20090E0A8017A818017910753
:1011B0000CF4AC01EF2DF72FF40E84E6FE1639F097
:1011C000289A8093CA029091F1009193F7CF41152C
:1011D000510521F08091F200882321F089818FBF91
:1011E000CA0104C08BE68093E800F8CF0F900F90FF
:1011F000DF91CF911F910F91FF900895CF93DF93CF
:101200001F92CDB7DEB741E050E0BE016F5F7F4F68
:101210000E94B808019719F4898190E002C08FEF0D
:101220009FEF0F90DF91CF910895CF93DF931F929F
:10123000CDB7DEB7682FCE0101960E949E0890912F
:10124000E800892F807295FF04C09091F20080E43D
:10125000891B99819FBF0F90DF91CF9108956F9265
:101260007F928F929F92AF92BF92CF92DF92EF9236
:10127000FF920F931F93CF93DF931F92CDB7DEB7EB
:10128000782E7B01C42EB52E8091C902882369F087
:10129000042F152F8AEFD82E872D8072982E9AE36F
:1012A000A92E872D8074882E11C08FEF9FEF57C015
:1012B000872D0E941509682E81110CC0DA94A9F3BC
:1012C00061E070E080E090E00E942D0D01151105B5
:1012D00079F73BC0282F30E0021713070CF4602E7B
:1012E000672DCE0101960E949E088091E80085FF3F
:1012F00029C0262D30E0021B130B992039F06A9487
:101300008FEF6816B1F01092F100F9CFF701862D3A
:1013100077FE07C0815058F094919093F100319678
:10132000F9CF815020F091919093F100FACFE20E25
:10133000F31E8091E80085FF0FC00115110511F41F
:1013400081100AC089818FBFC1CF5D9A84E68093E6
:10135000CB028C2D9B2D03C0A092E800F3CF0F9001
:10136000DF91CF911F910F91FF90EF90DF90CF9081
:10137000BF90AF909F908F907F906F900895109244
:10138000E9001092C8021092C7029093C60280939F
:10139000C5020895CF92DF92FF920F931F93CF93D0
:1013A000DF9300D0CDB7DEB7F82E8A016B010115AF
:1013B0001105B1F0F601F7FE02C0849101C08081F1
:1013C00049835A830E942D0801501109FFEFCF1A5B
:1013D000DF0A49815A818111EACF8FEF9FEF01C067
:1013E000CA010F900F90DF91CF911F910F91FF9045
:1013F000DF90CF9008951F93CF93DF931F92CDB7C7
:10140000DEB7162F2091E80022FFFCCF612F7983F1
:101410000E9491088BEF8093E800812F7981972FAC
:101420000F90DF91CF911F910895CF93DF931F927B
:10143000CDB7DEB71982CE0101960E949D06CE017E
:1014400001960E94C90D898190E00F90DF91CF91A4
:1014500008951F920F920FB60F921124EF92FF92F0
:101460000F931F932F933F934F935F936F937F93AC
:101470008F939F93AF93BF93EF93FF93CF93DF939C
:10148000CDB7DEB76297DEBFCDBF1092E900809185
:10149000E80083FFEBC068E0CE010A960E94910845
:1014A00082EF8093E8009A8597FF05C08091E8005D
:1014B00080FFFCCF03C08EEF8093E800892F8076F9
:1014C00009F0B9C08B85811105C01092F10010920E
:1014D000F100C5C0282F2D7F213009F4C0C0853010
:1014E00049F48091E80080FFFCCF8C858068809370
:1014F000E300B5C0863009F076C02D85E888F9880C
:10150000223071F580E090E02A8B0E94BF090E9492
:10151000150A99E08E010F5F1F4FF801392F1192C4
:101520003A95E9F799832A892A8391E09E8390E886
:1015300098879AEF99872091C7023091C802275F58
:101540003F4F3C832B838D83C7010E94BF0949E035
:1015500050E0B80180E00E94CA090E94150A7FC0CD
:10156000C7012A8B0E94BF092A89223241F482E2F4
:1015700090E00E94D40D892B09F071C074C0213015
:1015800069F488899989089711F42093C40280919D
:10159000C402811118C069EA71E01AC0233009F051
:1015A00062C08C85882391F0823021F46DE087EC55
:1015B00091E006C0813009F056C06BE08BEB91E002
:1015C0000E945B084AC067E971E002C065ED71E006
:1015D0006115710509F447C0FB01449150E080E8B2
:1015E0000E94CA093CC0873009F43DC0883021F40C
:1015F00081E08093F10033C0893089F5937099F5CB
:10160000E3E9F1E081E021E096E38093E9002093B3
:10161000EB0034913093EC009093ED008F5F3196A6
:10162000853099F78EE78093EA001092EA008C8566
:101630008093C90214C0888999890E94BF098E8548
:10164000811105C0CE010A960E94A80606C082300C
:1016500051F4CE010A960E94FC0D882321F08EEFF2
:101660008093E80003C081E28093EB0062960FB69E
:10167000F894DEBF0FBECDBFDF91CF91FF91EF9108
:10168000BF91AF919F918F917F916F915F914F919A
:101690003F912F911F910F91FF90EF900F900FBEF0
:1016A0000F901F9018958093E9008091F200882395
:1016B00019F08AE38093E80008951F920F920FB605
:1016C0000F9211242F933F934F935F936F937F93C8
:1016D0008F939F93AF93BF93EF93FF938091E1001C
:1016E0001092E10083FF0FC01092E90091E0909307
:1016F000EB001092EC0092E39093ED001092C9027F
:1017000098E09093F00082FF1DC083E00E94530B8D
:101710008091CB02882339F08091CB028150809355
:10172000CB02882369F08091CA02882359F0809106
:10173000CA0281508093CA02811104C0289802C055
:101740005D98F1CFFF91EF91BF91AF919F918F91F4
:101750007F916F915F914F913F912F910F900FBEAD
:101760000F901F9018951092C90281E08093D700C6
:1017700080EA8093D80082E189BD09B400FEFDCFE4
:1017800061E070E080E090E00E942D0D80E98093A0
:10179000D8008CE08093E2001092E000559A209AE5
:1017A0005D9828980895FC01808191810C94CB0F5D
:1017B000CF93DF93EC0188819981009711F00E940B
:1017C000CB0F198218821D821C821B821A82DF9124
:1017D000CF9108950F931F93CF93DF93EC018B016B
:1017E0006F5F7F4F888199810E945A10009731F076
:1017F000998388831B830A8381E001C080E0DF91A5
:10180000CF911F910F910895CF93DF93EC018881C1
:101810009981892B29F08A819B818617970760F42B
:10182000CE010E94EA0B882341F08C819D81892B97
:1018300019F4E881F981108281E0DF91CF91089558
:10184000EF92FF920F931F93CF93DF93EC017B01F5
:101850008A01BA010E94040C811104C0CE010E94C9
:10186000D80B07C01D830C83B701888199810E9422
:101870005B11CE01DF91CF911F910F91FF90EF90FF
:101880000895FC0111821082138212821582148243
:101890006115710559F0FB0101900020E9F7AF01D6
:1018A00041505109461B570B0C94200C0895CF93BF
:1018B000DF93EC016115710561F0FB0101900020DF
:1018C000E9F7AF0141505109461B570B0E94200C0C
:1018D00002C00E94D80BCE01DF91CF910895EF9204
:1018E000FF920F931F93CF93DF93EC017B010C8149
:1018F0001D816115710511F480E016C04115510577
:1019000091F0040F151FB8010E94040C8823A1F365
:10191000288139818C819D81B701820F931F0E949C
:101920005B111D830C8381E0DF91CF911F910F919B
:10193000FF90EF900895CF93DF9300D0CDB7DEB73F
:1019400069831A8241E050E0BE016F5F7F4F0E94C1
:101950006F0C0F900F90DF91CF910895FC0184815F
:1019600095816817790720F480819181009729F487
:101970001092CC028CEC92E00895860F971F089588
:101980001F920F920FB60F9211242F933F938F93B4
:101990009F93AF93BF938091CE029091CF02A0917D
:1019A000D002B091D1023091CD0223E0230F2D3728
:1019B00020F40196A11DB11D05C026E8230F029653
:1019C000A11DB11D2093CD028093CE029093CF0232
:1019D000A093D002B093D1028091D2029091D30211
:1019E000A091D402B091D5020196A11DB11D8093A2
:1019F000D2029093D302A093D402B093D502BF91A8
:101A0000AF919F918F913F912F910F900FBE0F90AB
:101A10001F9018953FB7F8948091D2029091D3020D
:101A2000A091D402B091D50226B5A89B05C02F3F46
:101A300019F00196A11DB11D3FBF6627782F892F90
:101A40009A2F620F711D811D911D42E0660F771F55
:101A5000881F991F4A95D1F70895CF92DF92EF9290
:101A6000FF92CF93DF936B017C010E940A0DEB0183
:101A7000C114D104E104F10489F00E94EE0E0E9429
:101A80000A0D6C1B7D0B683E734090F381E0C81A11
:101A9000D108E108F108C851DC4FEACFDF91CF91BE
:101AA000FF90EF90DF90CF900895789484B5826096
:101AB00084BD84B5816084BD85B5826085BD85B5F2
:101AC000816085BDEEE6F0E0808181608083E1E8A1
:101AD000F0E01082808182608083808181608083D9
:101AE000E0E8F0E0808181608083E1E9F0E08081DE
:101AF00082608083808181608083E0E9F0E0808182
:101B000081608083E1ECF0E080818460808380816B
:101B100082608083808181608083E3ECF0E080815B
:101B200081608083E0ECF0E0808182608083E2EC81
:101B3000F0E0808181608083EAE7F0E0808184606A
:101B400080838081826080838081816080838081C6
:101B5000806880830895FF920F931F93CF93DF9344
:101B6000EC01F62EE881F9810480F581E02D0995DC
:101B70008C01E881F9810680F781E02D6F2DCE017F
:101B80000995C8019927DF91CF911F910F91FF907F
:101B90000895FC0120812F5F208349E150E069E531
:101BA00072E080E80C94CA0945E650E062E772E012
:101BB00080E80C94CA09EF92FF920F931F93CF9382
:101BC000DF931F92CDB7DEB789838B017A0141E0A5
:101BD00050E0BE016F5F7F4F84E00E942F09A70194
:101BE000B80184E40E942F090F90DF91CF911F91DB
:101BF0000F91FF90EF900895FC0191818081813ACF
:101C000031F481E0913091F0933089F411C0813248
:101C100071F49B3021F4828180930F0105C09A30CA
:101C200031F4828180930E0181E00895089580E06F
:101C3000089548E050E082E00C94DB0DCF93DF93F1
:101C4000DC01683818F0E8E7E60F25C0E62FF0E081
:101C500067FF11C0E058F10981E090E001C0880FF2
:101C6000EA95EAF714969C911497982B14969C93F6
:101C70001497E0E010C0E752FE4FE491EE2309F420
:101C800040C0E7FF08C014968C91149782601496A8
:101C90008C931497EF7716968C9116978E1741F1C7
:101CA00017968C9117978E1719F118968C91189793
:101CB0008E17F1F019968C9119978E17C9F01A9614
:101CC0008C911A978E17A1F01B968C911B978E17EB
:101CD00079F080E090E0ED01C80FD91F2E8121112D
:101CE00002C0EE8305C0019686309105A1F709C0B8
:101CF000BD016C5F7F4FCD010E94190E81E090E025
:101D000008C081E090E013969C938E93129780E038
:101D100090E0DF91CF910895683818F0E8E7E60F7A
:101D200025C0E62FF0E067FF12C0E058F10921E07E
:101D300030E001C0220FEA95EAF72095DC01149605
:101D40003C911497322314963C93E0E00FC0E75285
:101D5000FE4FE491EE2329F1E7FF08C0DC01149661
:101D60002C9114972D7F14962C93EF7720E030E080
:101D7000EE2351F0DC01A20FB31F16964C9116977B
:101D80004E1302C016961C922F5F3F4F263031052E
:101D900079F7BC016C5F7F4F0E94190E81E090E0E3
:101DA000089580E090E00895FC0116821782108665
:101DB0001186128613861482BC016C5F7F4F0C94CF
:101DC000190E1092E2021092D9021092D8028AECF7
:101DD00091E09093D7028093D60208950895A1E2EE
:101DE0001A2EAA1BBB1BFD010DC0AA1FBB1FEE1F95
:101DF000FF1FA217B307E407F50720F0A21BB30BE0
:101E0000E40BF50B661F771F881F991F1A9469F75B
:101E100060957095809590959B01AC01BD01CF01B7
:101E20000895EE0FFF1F0590F491E02D09940F9394
:101E30001F93CF93DF93869F8001879F100D969FFE
:101E4000100D1124C8010E94330FEC01009729F0F6
:101E5000A80160E070E00E945411CE01DF91CF91A3
:101E60001F910F910895CF93DF938230910510F465
:101E700082E090E0E091E502F091E60220E030E0BF
:101E8000A0E0B0E0309739F14081518148175907FF
:101E9000B8F04817590771F482819381109729F09F
:101EA00013969C938E9312972CC09093E602809386
:101EB000E50227C02115310531F04217530718F00C
:101EC000A901DB0101C0EF019A01BD01DF01028020
:101ED000F381E02DD7CF21153105F9F0281B390BFF
:101EE0002430310580F48A819B816115710521F0D0
:101EF000FB019383828304C09093E6028093E50202
:101F0000FE01329644C0FE01E20FF31F81939193CC
:101F100022503109398328833AC02091E30230915D
:101F2000E402232B41F4209102013091030130930C
:101F3000E4022093E3022091000130910101211578
:101F4000310541F42DB73EB7409104015091050190
:101F5000241B350BE091E302F091E402E217F30752
:101F6000A0F42E1B3F0B2817390778F0AC014E5F09
:101F70005F4F2417350748F04E0F5F1F5093E40260
:101F80004093E3028193919302C0E0E0F0E0CF013F
:101F9000DF91CF910895CF93DF93009709F487C025
:101FA000FC01329713821282C091E502D091E602C1
:101FB000209781F420813181280F391F8091E3021D
:101FC0009091E4028217930779F5F093E402E0938D
:101FD000E3026DC0DE0120E030E0AE17BF0750F431
:101FE00012964D915C9113979D014115510509F190
:101FF000DA01F3CFB383A28340815181840F951F0F
:102000008A179B0771F48D919C911197840F951FEE
:1020100002969183808312968D919C91139793835E
:1020200082832115310529F4F093E602E093E5025D
:102030003EC0D9011396FC93EE9312974D915D919A
:10204000A40FB51FEA17FB0779F480819181840FF3
:10205000951F0296D90111969C938E93828193814C
:1020600013969C938E931297E0E0F0E08A819B8117
:10207000009719F0FE01EC01F9CFCE0102962881FC
:102080003981820F931F2091E3023091E4022817D7
:10209000390769F4309729F41092E6021092E502AC
:1020A00002C013821282D093E402C093E302DF9154
:1020B000CF910895A0E0B0E0E0E6F0E10C947B1150
:1020C000EC01CB01209719F40E94330FB8C0FE0138
:1020D000E60FF71F9E0122503109E217F30708F4BB
:1020E000ACC0D9010D911C91119706171707B8F0D4
:1020F0000530110508F49FC0A80144505109461746
:10210000570708F498C002501109061B170B0193DA
:1021100011936D937C93CF010E94CB0F8CC05B0118
:10212000A01AB10A4E01800E911EA091E502B09155
:10213000E602612C712C60E070E0109709F449C050
:10214000A815B905C9F5ED90FC901197670142E01B
:10215000C40ED11CCA14DB0478F147018A189B080D
:10216000640142E0C40ED11C1296BC9012971396E3
:10217000AC91B5E0CB16D10440F0B282A38391823A
:102180008082D9018D939C9309C00E5F1F4F0E0D65
:102190001F1DF90111830083EB2DFA2F61157105C5
:1021A00031F0DB011396FC93EE93129744C0F09349
:1021B000E602E093E5023FC06D917C9111976616AF
:1021C000770608F43B01BD0112960D90BC91A02D3D
:1021D000B4CF6091E3027091E40268157905E9F4E7
:1021E00068167906D0F44091000150910101411523
:1021F000510541F44DB75EB760910401709105013E
:10220000461B570BE417F507C0F4F093E402E09384
:10221000E302F901918380830EC00E94330F7C0199
:10222000009759F0A801BE010E944B11CE010E94F7
:10223000CB0FC70104C0CE0102C080E090E0CDB753
:10224000DEB7EEE00C9497111F93FC0199278827C5
:10225000BC01E89411911032E9F3193010F01E30EE
:10226000C8F31B3251F01D3249F4689406C00E9435
:102270006211610F711D811D911D119110531A3052
:10228000B0F33EF490958095709561957F4F8F4F98
:102290009F4F1F910895FB01DC0102C001900D9238
:1022A00041505040D8F70895DC0101C06D93415072
:1022B0005040E0F70895FB01DC0101900D920020F1
:1022C000E1F70895592F482F372F262F660F771FD4
:1022D000881F991F660F771F881F991F620F731F32
:1022E000841F951F660F771F881F991F08952F92CF
:1022F0003F924F925F926F927F928F929F92AF9296
:10230000BF92CF92DF92EF92FF920F931F93CF93E2
:10231000DF93CDB7DEB7CA1BDB0B0FB6F894DEBF79
:102320000FBECDBF09942A88398848885F846E849F
:102330007D848C849B84AA84B984C884DF80EE80E9
:10234000FD800C811B81AA81B981CE0FD11D0FB6F2
:10235000F894DEBF0FBECDBFED01089512E0CEEDC3
:10236000D2E004C0FE010E94130F2296C03ED107A6
:06237000C9F7F894FFCF4D
:102376000000E702800000E100000000000001010B
:1023860052696E676C696368742062657265697408
:10239600210045696E6761626520457277617274D6
:1023A60065743A00636F6D706C6574656420737450
:1023B60072696E6720617272697665643A20002BD5
:1023C60052657365740D004E504F4C59200059509C
:1023D6004F4C5920005570732E2E20537472696E1F
:1023E6006720646F65736E2774206D61746368215E
:1023F6000D004368616E6E656C206E6F74206176A9
:1024060061696C61626C65210D005245534554004B
:102416004C45440056414C5545004E504F4C5900D2
:1024260059504F4C590000000000400687066A06C6
:102436007A065606670600000000AB0D43071E0E1F
:042446008C0ED40E16
:00000001FF
