:100000000C9471000C94BB010C94E8010C949900C1
:100010000C9499000C9499000C9499000C9402078C
:100020000C9499000C9499000C9499000C949900EC
:100030000C9499000C9499000C9499000C949900DC
:100040000C9415020C9499000C94CC040C94FE04AE
:100050000C9499000C9499000C9499000C949900BC
:100060000C9499000C949900ED082409EF08F2080B
:10007000F508F808FB08FE080109040907090A0940
:100080000D091009130916090000000800020100FB
:100090000003040700000000000000000102040843
:1000A00010204080010204081020010204081020E2
:1000B000040404040404040402020202020203030E
:1000C0000303030300000000250028002B000000AC
:1000D0000000240027002A000200DE002E05AB05E8
:1000E000F80011241FBECFEFD8E0DEBFCDBF13E074
:1000F000A0E0B1E0E4E5FFE102C005900D92A63D6D
:10010000B107D9F725E0A6EDB3E001C01D92A233F7
:10011000B207E1F710E0C0EED0E004C02297FE0184
:100120000E94DC0CCA3DD107C9F70E94BB050C94A4
:100130009D0F0C94000061E087E00E941E0360E0C8
:1001400087E00E9457038FE694E00E9448098FE6FB
:1001500094E00E948A0961E087E00E94570388EDDD
:1001600093E00E94AB0C88ED93E00E94A10C26E086
:1001700040E052EC61E070E083E894E00E9470049B
:100180006BE071E083E894E00E9425066DE271E087
:1001900083E894E00E9425066FE371E083E894E031
:1001A0000E94250661E671E083E894E00E9425063E
:1001B0006BE071E083E894E00C942506EF920F93D6
:1001C00082E0E82E06E024E045E061E08FE694E07E
:1001D0000E944B088CED93E00E949E094AE050E09B
:1001E00069E070E088ED93E00F91EF900C94730C50
:1001F0008CED93E00C945E07CF93DF93D1E083E81E
:1002000094E00E948D03892BB9F0D093D70383E843
:1002100094E00E94A603C82F682F8CED93E00E9403
:100220002608CA3011F0CD3051F7D093E203109276
:10023000D6031092D703E3CFDF91CF910895F894BE
:1002400083E894E00E948D031816190614F40E94A6
:10025000FC008091E203882309F48BC061E771E020
:1002600083E894E00E9408068CED93E00E94BE09AA
:10027000882391F060E087E00E9457038FE694E0C6
:100280000E948A0988ED93E00E94A10C61E871E068
:1002900083E894E00E9425068CED93E00E94E50B34
:1002A000811167C08CED93E00E94EB098823A1F0D7
:1002B0008CED93E00E94260A4091E4035091E503FF
:1002C0006091E3038FE694E00E94CB088FE694E010
:1002D0000E94640861E04AC08CED93E00E94B00A7D
:1002E000882389F068E871E083E894E00E940806BA
:1002F0008CED93E00E94F80A6091E60388ED93E0AC
:100300000E94790C36C08CED93E00E94D40A8823B9
:1003100089F06FE871E083E894E00E9408068CEDB4
:1003200093E00E94F80A6091E60388ED93E00E9452
:100330008D0C1FC08CED93E00E947A0B882339F05E
:1003400066E971E083E894E00E94250612C061EA44
:1003500071E083E894E00E94250665ED73E08CED82
:1003600093E00E94E2071092E20360E087E00E94BF
:100370005703789408951F920F920FB60F9211248D
:100380002F933F934F935F936F937F938F939F939D
:10039000AF93BF93EF93FF9380917604909177048E
:1003A000892B29F0E0917604F09177040995FF916B
:1003B000EF91BF91AF919F918F917F916F915F91DD
:1003C0004F913F912F910F900FBE0F901F90189556
:1003D0001F920F920FB60F9211242F933F934F93BA
:1003E0005F936F937F938F939F93AF93BF93EF939D
:1003F000FF938091780490917904892B29F0E09102
:100400007804F09179040995FF91EF91BF91AF9134
:100410009F918F917F916F915F914F913F912F911C
:100420000F900FBE0F901F9018951F920F920FB64E
:100430000F9211242F933F938F939F93AF93BF936A
:1004400080917B0490917C04A0917D04B0917E0406
:1004500030917A0421E7230F2D3728F024EF230F62
:100460000196A11DB11D20937A0480937B04909383
:100470007C04A0937D04B0937E0480917F049091CE
:100480008004A0918104B09182040196A11DB11D48
:1004900080937F0490938004A0938104B09382049E
:1004A000BF91AF919F918F913F912F910F900FBE70
:1004B0000F901F901895789484B5826084BD84B5A0
:1004C000816084BD85B5826085BD85B5816085BD4F
:1004D000EEE6F0E0808181608083E1E8F0E0108268
:1004E000808182608083808181608083E0E8F0E0A9
:1004F000808181608083E1EBF0E080818460808393
:10050000E0EBF0E0808181608083EAE7F0E08081C9
:100510008460808380818260808380818160808329
:100520008081806880831092C10008951F93CF93CB
:10053000DF93182FEB0161E00E941E03209711F456
:1005400060E004C0CF3FD10539F461E0812FDF9135
:10055000CF911F910C945703E12FF0E0E857FF4F24
:10056000E491E330F9F048F4E130B9F0E230A1F57C
:1005700084B5806284BDC8BD34C0E730E9F0E8309E
:1005800019F1E43049F58091800080628093800009
:10059000D0938B00C0938A0024C084B5806884BD4A
:1005A000C7BD1FC080918000806880938000D09379
:1005B0008900C093880015C08091B0008068809346
:1005C000B000C093B3000DC08091B00080628093F2
:1005D000B000C093B40005C0C038D1050CF0B5CF51
:1005E000AFCFDF91CF911F910895833081F028F430
:1005F000813099F08230A1F008958730A9F08830D9
:10060000B9F08430D1F4809180008F7D03C0809157
:1006100080008F7780938000089584B58F7702C023
:1006200084B58F7D84BD08958091B0008F7703C01D
:100630008091B0008F7D8093B0000895CF93DF93B9
:1006400090E0FC01E456FF4F2491FC01E055FF4F80
:100650008491882349F190E0880F991FFC01E253AF
:10066000FF4FA591B4918C539F4FFC01C591D4913C
:100670009FB7611108C0F8948C91209582238C93C8
:10068000888182230AC0623051F4F8948C91322F11
:10069000309583238C938881822B888304C0F894BF
:1006A0008C91822B8C939FBFDF91CF9108950F93F4
:1006B0001F93CF93DF931F92CDB7DEB7282F30E083
:1006C000F901E857FF4F8491F901E456FF4F149167
:1006D000F901E055FF4F04910023C9F0882321F070
:1006E00069830E94F5026981E02FF0E0EE0FFF1FA1
:1006F000EC53FF4FA591B4919FB7F8948C91611181
:1007000003C01095812301C0812B8C939FBF0F9054
:10071000DF91CF911F910F910895FC01818D228D62
:1007200090E0805C9F4F821B91098F7399270895F9
:10073000FC01918D828D981731F0828DE80FF11DAB
:10074000858D90E008958FEF9FEF0895FC01918DC6
:10075000828D981761F0828DDF01A80FB11D5D9623
:100760008C91928D9F5F9F73928F90E008958FEF91
:100770009FEF089584E295E0892B49F08CEF90E09B
:10078000892B29F00E94240581110C94FC00089506
:10079000FC01848DDF01A80FB11DA35ABF4F2C911E
:1007A000848D90E001968F739927848FA689B789ED
:1007B0002C93A089B1898C9180648C93938D848DC6
:1007C000981306C00288F389E02D80818F7D808395
:1007D0000895CF93DF93EC01888D8823C9F0EA89CF
:1007E000FB89808185FD05C0A889B9898C9186FD2A
:1007F0000FC00FB607FCF5CF808185FFF2CFA88927
:10080000B9898C9185FFEDCFCE010E94C803E7CF57
:10081000DF91CF910895CF92DF92FF920F931F93B4
:10082000CF93DF931F92CDB7DEB76C01DC015B96EF
:100830009C915B975C968C915C97981307C050963F
:10084000ED91FC915197808185FD32C0F601038DB9
:1008500010E00F5F1F4F0F731127F02EF601848DEC
:10086000F81211C00FB607FCF9CFD6015096ED91E2
:10087000FC915197808185FFF1CFC60169830E9469
:10088000C8036981EBCF838DE80FF11DE35AFF4F59
:100890006083D6015B960C935B975296ED91FC9129
:1008A000539780818062808381E058968C930DC03D
:1008B000D6015696ED91FC91579760835096ED9135
:1008C000FC91519780818064808381E090E00F905B
:1008D000DF91CF911F910F91FF90DF90CF900895FE
:1008E000BF92CF92DF92EF92FF92CF93DF93EC0112
:1008F0006A017B01B22E60E070E586E490E0A7011A
:1009000096010E94B80C21503109410951095695B0
:10091000479537952795E889F98982E080832115E5
:1009200080E1380798F0E889F989108260E078E280
:1009300083E290E0A70196010E94B80C2150310992
:10094000410951095695479537952795EC85FD85C1
:100950003083EE85FF852083188EEC89FD89B08277
:10096000EA89FB89808180618083EA89FB898081B3
:1009700088608083EA89FB89808180688083EA8936
:10098000FB8980818F7D8083DF91CF91FF90EF90F5
:10099000DF90CF90BF9008951F920F920FB60F92E5
:1009A00011242F938F939F93EF93FF93E0919304E0
:1009B000F09194048081E0919904F0919A0482FD71
:1009C00012C0908180919C048F5F8F7320919D0451
:1009D000821751F0E0919C04F0E0ED57FB4F958FAA
:1009E00080939C0401C08081FF91EF919F918F9132
:1009F0002F910F900FBE0F901F9018951F920F927E
:100A00000FB60F9211242F933F934F935F936F93E1
:100A10007F938F939F93AF93BF93EF93FF9383E85D
:100A200094E00E94C803FF91EF91BF91AF919F9115
:100A30008F917F916F915F914F913F912F910F9087
:100A40000FBE0F901F90189583E894E00E948D03CD
:100A500021E0892B09F420E0822F0895109286046A
:100A60001092850488EE93E0A0E0B0E080938704C4
:100A700090938804A0938904B0938A0481EC91E058
:100A8000909384048093830485EC90E09093900489
:100A900080938F0484EC90E090939204809391046F
:100AA00080EC90E0909394048093930481EC90E028
:100AB000909396048093950482EC90E09093980430
:100AC0008093970486EC90E090939A048093990425
:100AD00010929C0410929D0410929E0410929F0408
:100AE0000895AF92BF92CF92DF92EF92FF920F9351
:100AF0001F93CF93DF936C017B01C0E0D0E000E057
:100B000010E0F601EC0FFD1F4AE050E06281C701E2
:100B10000E949D065C016EE2C7010E940A068A0DD2
:100B20009B1D080F191F2196C330D10551F74AE0CC
:100B300050E0F6016581C7010E949D06800F911F5C
:100B4000DF91CF911F910F91FF90EF90DF90CF90A9
:100B5000BF90AF90089581ED91E09093210580932F
:100B60002005109222051092230510922405109260
:100B70002505089508950E945B020E94BA050E940F
:100B80009B00CAEBD3E00E941F012097E1F30E9473
:100B9000BA03F9CFCF92DF92EF92FF920F931F9398
:100BA000CF93DF936C017A01EB01E60EF71E00E0B4
:100BB00010E0CE15DF0561F06991D601ED91FC9151
:100BC0000190F081E02DC6010995080F191FF1CFA2
:100BD000C801DF91CF911F910F91FF90EF90DF90AF
:100BE000CF9008956115710581F0DB010D90002013
:100BF000E9F7AD0141505109461B570BDC01ED915E
:100C0000FC910280F381E02D099480E090E008954A
:100C10000C94F205DC01ED91FC910190F081E02D46
:100C200009940F931F93CF93DF93EC016DE00E9423
:100C30000A068C016AE0CE010E940A06800F911F0D
:100C4000DF91CF911F910F9108950F931F93CF9331
:100C5000DF93EC010E94F2058C01CE010E94110687
:100C6000800F911FDF91CF911F910F9108958F9267
:100C70009F92AF92BF92CF92DF92EF92FF920F932B
:100C80001F93CF93DF93CDB7DEB7A1970FB6F8943C
:100C9000DEBF0FBECDBF7C01C42EE52FCB01D22E0F
:100CA00019A221E02D1510F02AE0D22E8E010F5D41
:100CB0001F4F8D2C912CA12CB12C6C2D7E2FA501BA
:100CC00094010E94B80C8C2DD29E801911240150E1
:100CD00011098A3014F4805D01C0895CF8018083B9
:100CE000211531054105510521F0C22EE32FCA011E
:100CF000E4CFB801C7010E94F205A1960FB6F8949F
:100D0000DEBF0FBECDBFDF91CF911F910F91FF903E
:100D1000EF90DF90CF90BF90AF909F908F9008950D
:100D20002115310541F4DC01ED91FC910190F08138
:100D3000E02D642F09940C9437069A01462F50E059
:100D400060E070E00C9490060F931F93CF93DF93B5
:100D5000EC019A01462F50E060E070E00E9490069E
:100D60008C01CE010E941106800F911FDF91CF915F
:100D70001F910F9108950F931F93CF93DF93EC0171
:100D80000E9490068C01CE010E941106800F911FD7
:100D9000DF91CF911F910F910895813039F018F0B4
:100DA000823051F0089510926E00089580916F0086
:100DB0008D7F80936F000895809170008D7F809368
:100DC000700081E08093B0008091B100887F8460E2
:100DD0008093B1001092B3000895CF93C82F8091F3
:100DE0000A018C1307C0E8EDF0E084919FEF909327
:100DF0000A0101C08FEF0E94CD0660E08C2FCF91D9
:100E00000C9457031F920F920FB60F9211242F9339
:100E10003F934F935F936F937F938F939F93AF9382
:100E2000BF93EF93FF938091290590912A05A0919C
:100E30002B05B0912C05892B8A2B8B2B51F190918E
:100E40002605E0912705F091280580818927808378
:100E50008091290590912A05A0912B05B0912C0530
:100E6000181619061A061B06C4F4809129059091DC
:100E70002A05A0912B05B0912C050197A109B10974
:100E80008093290590932A05A0932B05B0932C05F8
:100E900004C080910A010E94ED06FF91EF91BF917D
:100EA000AF919F918F917F916F915F914F913F9102
:100EB0002F910F900FBE0F901F901895FC0180810D
:100EC00091810C94940DCF93DF93EC0188819981EB
:100ED000009711F00E94940D198218821D821C82C5
:100EE0001B821A82DF91CF9108950F931F93CF93A6
:100EF000DF93EC018B016F5F7F4F888199810E94A6
:100F0000230E009731F0998388831B830A8381E045
:100F100001C080E0DF91CF911F910F910895CF9391
:100F2000DF93EC0188819981892B29F08A819B814B
:100F30008617970760F4CE010E947507882341F059
:100F40008C819D81892B19F4E881F981108281E0DF
:100F5000DF91CF910895EF92FF920F931F93CF935C
:100F6000DF93EC017B018A01BA010E948F07811196
:100F700004C0CE010E94630707C01D830C83B70124
:100F8000888199810E94420FCE01DF91CF911F91FC
:100F90000F91FF90EF900895FC011182108213824F
:100FA0001282158214826115710559F0FB010190BE
:100FB0000020E9F7AF0141505109461B570B0C9433
:100FC000AB070895CF93DF93EC016115710561F0D4
:100FD000FB0101900020E9F7AF0141505109461B88
:100FE000570B0E94AB0702C00E946307CE01DF913E
:100FF000CF910895EF92FF920F931F93CF93DF93BA
:10100000EC017B010C811D816115710511F480E0FB
:1010100016C04115510591F0040F151FB8010E942B
:101020008F078823A1F3288139818C819D81B701A5
:10103000820F931F0E94420F1D830C8381E0DF917A
:10104000CF911F910F91FF90EF900895CF93DF9371
:1010500000D0CDB7DEB769831A8241E050E0BE010F
:101060006F5F7F4F0E94FA070F900F90DF91CF9133
:101070000895FC01848195816817790720F48081A7
:101080009181009729F410922D058DE295E0089545
:10109000860F971F0895EF920F93CF93DF93EC0184
:1010A0006A834B832C830D83EE8280E1689FB001BD
:1010B000112482E090E00E94E00C99838883DF9104
:1010C000CF910F91EF9008958F929F92AF92BF9220
:1010D000CF92DF92EF92FF920F931F93CF93DF9304
:1010E000EC0160E08D810E945703AA8080E1A89EF8
:1010F00050011124850101501109000F111FC12C4D
:10110000D12C88248394912CCA14DB0461F18BE0E8
:10111000E82EF12C60E08B810E945703C4010E2C55
:1011200002C0880F991F0A94E2F7E881F981E00F65
:10113000F11F2081318182239323892B11F061E0FB
:1011400001C060E08C810E94570361E08B810E94A6
:10115000570381E0E81AF108E8F68FEFC81AD80AB9
:1011600002501109D1CF60E08B810E94570361E0EA
:101170008D810E94570360E08D81DF91CF911F9197
:101180000F91FF90EF90DF90CF90BF90AF909F9026
:101190008F900C945703DF92EF92FF920F931F935F
:1011A000CF93DF9300D0CDB7DEB77C01FC01828105
:1011B000262F30E0F0E18F9FC001112482179307A2
:1011C0000CF45CC0062F10E0F8013197E031F10516
:1011D00080F5EC5CFF4F0C94DA0CD12C37C078E032
:1011E000D72E34C06CE0D62E31C030E1D32E2EC0C5
:1011F00024E1D22E2BC098E1D92E28C08CE1D82E24
:1012000025C000E2D02E22C014E2D12E1FC0B8E2C9
:10121000DB2E1CC0ACE2DA2E19C0F0E3DF2E16C0C4
:10122000E4E3DE2E13C078E3D72E10C06CE3D62E95
:101230000DC063ED71E083E894E049835A830E9416
:10124000250649815A8102C034E0D32E9A01411506
:1012500070E1570710F02FEF3FE0F7019081818197
:10126000E92FF82FED0DF11DED0DF11D31832083D8
:101270003383228335832483378326830F900F9013
:10128000DF91CF911F910F91FF90EF90DF90089524
:101290000F931F93CF93DF93EC0188819981892B62
:1012A00099F161E08B810E941E0361E08C810E94B4
:1012B0001E0361E08D810E941E0361E08E810E9409
:1012C0001E0360E08E810E94570360E08D810E94C2
:1012D000570300E211E060E08B810E94570361E058
:1012E0008C810E94570360E08B810E94570301505C
:1012F000110989F761E08D810E94570360E08D81BB
:101300000E94570381E001C080E0DF91CF911F91DF
:101310000F9108951F93CF93DF93EC0111E040E00C
:1013200050E0612FCE010E94CB081F5F1131B9F749
:10133000CE01DF91CF911F910C946408CF93DF937E
:10134000EC0165ED73E00E94CC071E821F821986B6
:1013500018861B861A861C861D861E861F86188A7E
:10136000FE01EF56FF4FCE0141969183808368E8DE
:1013700073E1CE01DF91CF910C948F07EF92FF9232
:101380000F931F93CF93DF938C0185E2E82E82E0C9
:10139000F82EC0E0D0E0BE01C8010E943908F70174
:1013A00021917F01FC01808182130DC02196C530FF
:1013B000D10589F765ED73E0C8010E94E207F801E5
:1013C000168281E001C080E0DF91CF911F910F91E3
:1013D000FF90EF900895EF92FF920F931F93CF939A
:1013E000DF938C012AEEE22E21E0F22EC0E0D0E065
:1013F000BE01C8010E943908F70121917F01FC015B
:101400008081821711F080E01AC02196C330D10587
:1014100079F79EEEE92E91E0F92EC5E0D0E0BE010D
:10142000C8010E943908F70121917F01FC018081E8
:101430008213E9CF2196CA30D10589F781E0DF9187
:10144000CF911F910F91FF90EF900895AF92BF92AF
:10145000CF92DF92EF92FF920F931F93CF93DF9380
:10146000EC018C010F561F4FF801E080F18063E022
:1014700070E00E943908FC018081F7018083F80147
:10148000E080F180C70101969183808364E070E081
:10149000CE010E943908FC018081F7018183F801A7
:1014A000808191810196918380833AE0E32EF12C33
:1014B000F801C080D180B701CE010E943908FC013B
:1014C0008081F6018083F80180819181019691836A
:1014D0008083FFEFEF1AFF0A8EE0E816F10441F770
:1014E0005E01E1E1AE0EB11CC5010E940B0F6B0164
:1014F0007C016C877D878E879F8720E137E240E003
:1015000050E00E94B80C2F8340EF58ED249FC0019B
:10151000259F900D11248C0D9D1D998788872AE0A9
:1015200030E0B701A60183E894E00E94BB06F80111
:10153000B182A08265ED73E0CE010E94E2071E82B7
:1015400080E8F50111928A95E9F7DF91CF911F911B
:101550000F91FF90EF90DF90CF90BF90AF900895E4
:10156000EF92FF920F931F93CF93DF937C0104EFD1
:1015700011E0C0E0D0E0BE01C7010E943908F801C7
:1015800021918F01FC018081821306C02196C53014
:10159000D10589F781E001C080E0DF91CF911F91F3
:1015A0000F91FF90EF900895EF92FF920F931F938A
:1015B000CF93DF937C010AEF11E0C0E0D0E0BE01E1
:1015C000C7010E943908F80121918F01FC01808137
:1015D000821306C02196C530D10589F781E001C08C
:1015E00080E0DF91CF911F910F91FF90EF900895D0
:1015F000CF92DF92EF92FF920F931F93CF93DF93DF
:10160000EC0145E0E42EF12C8C010F561F4FF80140
:10161000C080D180B701CE010E943908FC018081D1
:10162000F6018083F8018081918101969183808306
:10163000FFEFEF1AFF0A88E0E816F10441F77E0198
:10164000E1E1EE0EF11CC7010E940B0F6F3F710527
:1016500009F018F47B876A8704C08FEF90E09B87BE
:101660008A87F801F182E08265ED73E0CE010E9485
:10167000E2071E8280E8F70111928A95E9F7DF916F
:10168000CF911F910F91FF90EF90DF90CF90089531
:101690006430C1F028F4623049F0633069F0089595
:1016A0006630E1F0A8F06730F9F00895413011F4A8
:1016B0005A9A08955A980895413011F45B9A089502
:1016C0005B980895413011F45C9A08955C980895F0
:1016D000413011F45D9A08955D980895413011F4F8
:1016E0005E9A08955E980895413011F45F9A0895C6
:1016F0005F980895BF92CF92DF92EF92FF920F937F
:101700001F93CF93DF93EC0150E0E52E52E0F52ECE
:1017100000E010E0B801CE010E943908F7012191E4
:101720007F01FC018081821711F080E044C00F5FCF
:101730001F4F0630110571F77E01F1E9EF0EF11C24
:10174000F7010081118166E070E0CE010E94390846
:10175000FC018081F80180838E010F5E1F4FC8015C
:101760000E94ED0EB82EF701C080D18067E070E0D6
:10177000CE010E943908FC018081F6018083C801F6
:101780000E94ED0EFAE0FB1580F28B3070F6482FC8
:101790006B2DCE010E94480BF7011183008365ED8C
:1017A00073E0CE010E94E2071E8280E8F8011192E8
:1017B0008A95E9F781E0DF91CF911F910F91FF901A
:1017C000EF90DF90CF90BF900895EF92FF920F932C
:1017D0001F93CF93DF93EC0167E0E62E62E0F62ED5
:1017E00000E010E0B801CE010E943908F701219114
:1017F0007F01FC01808182136EC00F5F1F4F043098
:10180000110581F765ED73E083E894E00E942506F9
:101810006CE072E083E894E00E94250661E272E0E9
:1018200083E894E00E9425066BE272E083E894E08E
:101830000E9425066EE372E083E894E00E9425068C
:101840006BE472E083E894E00E94250668E572E0AC
:1018500083E894E00E94250665ED73E083E894E058
:101860000E94250665E672E083E894E00E94250662
:1018700068E772E083E894E00E9425066FEA72E070
:1018800083E894E00E94250667EF72E083E894E025
:101890000E94250662E473E083E894E00E94250636
:1018A0006FEB73E083E894E00E9425068E010F5EE3
:1018B0001F4FFE01EF56FF4F1183008365ED73E06C
:1018C000CE010E94E2071E8280E8F80111928A95FB
:1018D000E9F781E001C080E0DF91CF911F910F9186
:1018E000FF90EF900895FC017183608353834283DE
:1018F0000895CF93C62F4AE050E083E894E00E9419
:10190000A40664ED73E083E894E00E9408066C2F5F
:1019100070E089E0CF910C949602CF93C62F4AE0F5
:1019200050E083E894E00E94A40664ED73E083E84D
:1019300094E00E9408066C2F70E08AE0CF910C942E
:10194000960260E070E089E00E94960260E070E03C
:101950008AE00C949602CF93DF93EC0161E08881DA
:101960000E941E0361E08A81DF91CF910C941E03D7
:10197000A1E21A2EAA1BBB1BFD010DC0AA1FBB1F93
:10198000EE1FFF1FA217B307E407F50720F0A21B05
:10199000B30BE40BF50B661F771F881F991F1A9472
:1019A00069F760957095809590959B01AC01BD019C
:1019B000CF010895EE0FFF1F0590F491E02D0994DB
:1019C0000F931F93CF93DF93869F8001879F100D06
:1019D000969F100D1124C8010E94FC0CEC01009789
:1019E00029F0A80160E070E00E943B0FCE01DF917A
:1019F000CF911F910F910895CF93DF93823091057E
:101A000010F482E090E0E0913005F091310520E0A3
:101A100030E0A0E0B0E0309739F1408151814817C3
:101A20005907B8F04817590771F4828193811097CC
:101A300029F013969C938E9312972CC090933105A6
:101A40008093300527C02115310531F04217530727
:101A500018F0A901DB0101C0EF019A01BD01DF010E
:101A60000280F381E02DD7CF21153105F9F0281B35
:101A7000390B2430310580F48A819B816115710511
:101A800021F0FB019383828304C0909331058093FE
:101A90003005FE01329644C0FE01E20FF31F819330
:101AA000919322503109398328833AC020912E0521
:101AB00030912F05232B41F4209102013091030135
:101AC00030932F0520932E052091000130910101C4
:101AD0002115310541F42DB73EB7409104015091D5
:101AE0000501241B350BE0912E05F0912F05E2171F
:101AF000F307A0F42E1B3F0B2817390778F0AC0131
:101B00004E5F5F4F2417350748F04E0F5F1F50930D
:101B10002F0540932E058193919302C0E0E0F0E001
:101B2000CF01DF91CF910895CF93DF93009709F410
:101B300087C0FC01329713821282C0913005D09188
:101B40003105209781F420813181280F391F809140
:101B50002E0590912F058217930779F5F0932F05A5
:101B6000E0932E056DC0DE0120E030E0AE17BF0728
:101B700050F412964D915C9113979D0141155105BA
:101B800009F1DA01F3CFB383A28340815181840F3D
:101B9000951F8A179B0771F48D919C911197840F63
:101BA000951F02969183808312968D919C91139735
:101BB000938382832115310529F4F0933105E09355
:101BC00030053EC0D9011396FC93EE9312974D91C8
:101BD0005D91A40FB51FEA17FB0779F4808191810D
:101BE000840F951F0296D90111969C938E93828142
:101BF000938113969C938E931297E0E0F0E08A8194
:101C00009B81009719F0FE01EC01F9CFCE010296FD
:101C100028813981820F931F20912E0530912F0545
:101C20002817390769F4309729F41092310510927A
:101C3000300502C013821282D0932F05C0932E0567
:101C4000DF91CF910895A0E0B0E0E9E2FEE00C94CE
:101C50006A0FEC01CB01209719F40E94FC0CB8C06C
:101C6000FE01E60FF71F9E0122503109E217F3072C
:101C700008F4ACC0D9010D911C91119706171707F4
:101C8000B8F00530110508F49FC0A801445051096F
:101C90004617570708F498C002501109061B170B86
:101CA000019311936D937C93CF010E94940D8CC08E
:101CB0005B01A01AB10A4E01800E911EA091300561
:101CC000B0913105612C712C60E070E0109709F43F
:101CD00049C0A815B905C9F5ED90FC9011976701A9
:101CE00042E0C40ED11CCA14DB0478F147018A1803
:101CF0009B08640142E0C40ED11C1296BC9012975E
:101D00001396AC91B5E0CB16D10440F0B282A38318
:101D100091828082D9018D939C9309C00E5F1F4FE1
:101D20000E0D1F1DF90111830083EB2DFA2F611594
:101D3000710531F0DB011396FC93EE93129744C0CA
:101D4000F0933105E09330053FC06D917C91119780
:101D50006616770608F43B01BD0112960D90BC9102
:101D6000A02DB4CF60912E0570912F0568157905CF
:101D7000E9F468167906D0F4409100015091010110
:101D80004115510541F44DB75EB760910401709162
:101D90000501461B570BE417F507C0F4F0932F0518
:101DA000E0932E05F901918380830EC00E94FC0C04
:101DB0007C01009759F0A801BE010E94320FCE01AC
:101DC0000E94940DC70104C0CE0102C080E090E0E3
:101DD000CDB7DEB7EEE00C94860FFC01882799277B
:101DE000E89421912032E9F3293010F02E30C8F325
:101DF0002B3241F02D3239F4689404C00E945E0FFA
:101E0000820F911D219120532A30C0F31EF490952A
:101E100081959F4F08951F93FC0199278827BC0146
:101E2000E89411911032E9F3193010F01E30C8F324
:101E30001B3251F01D3249F4689406C00E94490FCC
:101E4000610F711D811D911D119110531A30B0F356
:101E50003EF490958095709561957F4F8F4F9F4F81
:101E60001F910895FB01DC0102C001900D924150C9
:101E70005040D8F70895DC0101C06D9341505040A7
:101E8000E0F70895FB01DC0101900D920020E1F7DD
:101E90000895592F482F372F262F660F771F881F39
:101EA000991F660F771F881F991F620F731F841F6A
:101EB000951F660F771F881F991F08957AE0979FD7
:101EC000902D879F802D910D112408952F923F9280
:101ED0004F925F926F927F928F929F92AF92BF923A
:101EE000CF92DF92EF92FF920F931F93CF93DF93E6
:101EF000CDB7DEB7CA1BDB0B0FB6F894DEBF0FBE43
:101F0000CDBF09942A88398848885F846E847D848F
:101F10008C849B84AA84B984C884DF80EE80FD8091
:101F20000C811B81AA81B981CE0FD11D0FB6F89407
:101F3000DEBF0FBECDBFED01089510E0C0EED0E0D2
:101F400004C0FE010E94DC0C2296C23ED107C9F7F4
:041F5000F894FFCF33
:101F540000003205800001000000FF2D2D2D2D2DE5
:101F64002D2D2D2D2D2D2D2D2D2D2D2D2D2D2D2D9D
:101F74002D2D2D2D2D2D2D2D2D2D2D2D0052696E18
:101F840067206C6967687420726561647921005404
:101F9400797065202748454C502720666F72206D64
:101FA4006F726520696E666F726D6174696F6E2EF3
:101FB40000496E7075742065787065637465643A61
:101FC40000676F7420736F6D657468696E673A207B
:101FD400002B5265736574004E504F4C59200059C4
:101FE400504F4C592000546F67676C652070696EC0
:101FF400005570732E2E20537472696E6720646FBF
:1020040065736E2774206D6174636821000000009D
:10201400000B04CA058D03A6039803E9030000001E
:102024000071054368616E6E656C206E6F7420618B
:102034007661696C61626C6521004C4544005641CF
:102044004C5545004E504F4C590059504F4C590077
:10205400544F47474C450048454C50002A2A2A2AE9
:102064002A20436F6D6D616E6473202A2A2A2A2AFE
:10207400002831293A5245534554002832293A4C14
:102084004544787856414C5545787878780028331B
:10209400293A59504F4C59787878002834293A4EC7
:1020A400504F4C59787878002835293A544F47478F
:1020B4004C457878002831293A526573657420615B
:1020C4006C6C204C454473002832293A53657420C3
:1020D4004C454420312D313620696E64697669643B
:1020E40075616C6C7920776974682076616C7565AC
:1020F400732066726F6D20302D343039352E0028F0
:1021040033293A5475726E206F6E2038204C454442
:1021140073207769746820706F6C6172697A617476
:10212400696F6E2066696C7465722E205365742025
:102134004272696768746E6573732066726F6D208E
:10214400302D3235352E002834293A5475726E20DC
:102154006F6E2038204C45447320776974686F751E
:102164007420706F6C6172697A6174696F6E206635
:10217400696C7465722E20536574204272696768B5
:10218400746E6573732066726F6D20302D32353531
:102194002E002835293A546F67676C652061206DDD
:1021A4006963726F20636F6E74726F6C6C657220FA
:1021B40070696E2E20546865206669727374207687
:1021C400616C7565207365747320746865206E7521
:1021D4006D626572206F66207468652070696E2C6C
:1021E40020746865207365636F6E642020697320B2
:1021F4007573656420666F7220484947482028310A
:102204002920616E64204C4F57202830292E002A43
:102214002A2A2A2A2A2A2A2A2A2A2A2A2A2A2A2A1A
:062224002A2A2A000D0029
:00000001FF
