:100000000C9444010C9475010C9475010C947501C9
:100010000C9475010C9475010C9475010C94750188
:100020000C9475010C9475010C9475010C94750178
:100030000C9475010C9475010C9475010C94750168
:100040000C9475010C9475010C9475010C94750158
:100050000C9475010C9475010C9475010C9498081E
:100060000C9475010C940C060C9442060C947501CA
:100070000C9475010C9475010C9475010C94750128
:100080000C9475010C9475010C9475010C94750118
:100090000C9475010C9475010C9475010C94750108
:1000A0000C9475010C9475010C9475010C947501F8
:1000B0000C9475010C9475010C9475010C947501E8
:1000C0000C9475010C9475010C9475010C947501D8
:1000D0000C9475010C9475010C9475010C947501C8
:1000E0000C947501EE03F103E003E403EA03280432
:1000F000F503F903FF03030407040D0411041504B9
:1001000028041B041F0423040C94C5040C946C06DF
:100110000C9498040C94E4030C94C9060C942304E6
:100120000C94FF030C941B040C94F1030C941F0417
:100130000C94CB010C9445050C94F5030C94A3048A
:100140000C94E0030C94B1040C9415040C94070473
:100150000C9428040C94EE030C9476060C9423055E
:100160000C94F9030C94DD010C940D040C9411040F
:100170000C9403040C94EA030C94D90100000A0BBC
:1001800002090C0D0E080703040100000000000026
:10019000000000000000000000000000000000005F
:1001A000000000000000000012111000000000001C
:1001B000000000000000000000000000000000003F
:1001C000000001021020200808102040102040806C
:1001D000020102010804020101020408102040800B
:1001E0008040201008040201800402018040201099
:1001F00008040201080402010102040810204080E2
:1002000001020408102040800505050507050808BF
:100210000808020202020A0A080804040404010190
:1002200001010101010103030303030303030407A5
:1002300007070C0C0C0C0C0C0C0C0202020206063C
:100240000606060606060B0B0B0B0B0B0B0B000032
:100250002200250028002B002E003100340002016E
:100260000000050108010B01000021002400270007
:100270002A002D00300033000101000004010701B5
:100280000A01CB017606D90111241FBECFEFD1E2BE
:10029000DEBFCDBF00E00CBF12E0A0E0B2E0E2E0C4
:1002A000F8E100E00BBF02C007900D92A635B10740
:1002B000D9F723E0A6E5B2E001C01D92A839B20744
:1002C000E1F712E0C6E8D2E000E006C0229701099B
:1002D000FE010BBF0E946C09C238D10780E00807FD
:1002E000A9F70E94BA060C94EF0B0C94000026E0CC
:1002F00040E05BE460E070E08DEE92E00E94AA05D1
:1003000066E072E08DEE92E00E94320787EE92E0A6
:100310000E94830268E172E08DEE92E00E94320753
:1003200061E083E00E94290461E082E00E942904E8
:1003300061E082E00E94620460E083E00E94620467
:1003400087EE92E00C94A00280915C02882311F168
:1003500066E572E08DEE92E00E94070786E592E086
:100360000E94A803882321F087EE92E00C94A0025B
:1003700086E592E00E94060340915E0250915F0282
:1003800060915D0287EE92E00E94670287EE92E044
:100390000C94100208950F9307E024E045E061E01B
:1003A00087EE92E00E94FA0186E592E00F910C94AC
:1003B000B40286E592E00C94AA07CF93DF93D1E0D4
:1003C0008DEE92E00E949804892B89F08DEE92E0E8
:1003D0000E94B104C82F682F86E592E00E9472083F
:1003E000CA3011F0CD3061F7D0935C02E9CFDF91D4
:1003F000CF9108950F93CF93DF93EC016A834B83E2
:100400002C830D8388E1689FB001112482E090E085
:100410000E94700999838883DF91CF910F9108958D
:10042000BF92CF92DF92EF92FF920F931F93CF93E1
:10043000DF93EC0160E08D810E946204BA8088E164
:10044000B89EB02C1124BA94CC24C394D12C1B1484
:100450004CF5EB2CEE0CFF080CE010E060E08B811B
:100460000E946204C601002E02C0880F991F0A94E0
:10047000E2F7E881F981EE0DFF1D208131818223B1
:100480009323892B11F061E001C060E08C810E9410
:10049000620461E08B810E94620401501109F1F64F
:1004A000BA94D5CF60E08B810E94620461E08D81B7
:1004B0000E94620460E08D81DF91CF911F910F91C6
:1004C000FF90EF90DF90CF90BF900C946204DC011E
:1004D00012962C9170E0B8E12B9F90011124261701
:1004E000370784F0660F771FDC01ED91FC91E60F72
:1004F000F71FCA014115B0E15B0710F08FEF9FE0D5
:10050000918380830895CF93DF93EC018881998153
:10051000892B91F061E08B810E94290461E08C813C
:100520000E94290461E08D810E94290460E08D8190
:100530000E94620481E001C080E0DF91CF910895C4
:100540001F93CF93DF93EC0110E040E050E0612F68
:10055000CE010E9467021F5F1831B9F7CE01DF910B
:10056000CF911F910C941002CF93DF93EC016EE3B7
:1005700072E00E9418081E821E86FE01E157FF4F9E
:10058000CE010F969183808368EC70E0CE01DF91FD
:10059000CF910C94DB07EF92FF920F931F93CF93B1
:1005A000DF938C019AE2E92E92E0F92EC0E0D0E0D0
:1005B000BE01C8010E948608F70121917F01FC015C
:1005C0008081821711F080E01AC02196C330D105D6
:1005D00079F78EE2E82E82E0F82EC5E0D0E0BE0189
:1005E000C8010E948608F70121917F01FC018081EA
:1005F0008213E9CF2196CA30D10589F781E0DF91D6
:10060000CF911F910F91FF90EF900895CF92DF92BD
:10061000EF92FF920F931F93CF93DF93EC010E9411
:10062000CB02882349F064E372E08DEE92E00E94F1
:10063000150781E08E8707C066E372E08DEE92E0D9
:100640000E9415071E868E858E0101571F4F882335
:1006500009F464C0F801E080F18063E070E0CE014D
:100660000E948608FC018081F7018083F801E08008
:10067000F180C70101969183808364E070E0CE0130
:100680000E948608FC018081F7018183F801808146
:1006900091810196918380832AE0E22EF12CF8016A
:1006A000C080D180B701CE010E948608FC01808104
:1006B000F6018083F8018081918101969183808386
:1006C000FFEFEF1AFF0A8EE0E816F10441F7CE01C2
:1006D0000F960E949C0B6B017C016A877B878C873D
:1006E0009D8720E137E240E050E00E9444092F83DB
:1006F00040EF58ED249FC001259F900D11248C0DD3
:100700009D1D998788872AE030E0B701A6018DEE0C
:1007100092E00E949D076DE372E002C068E372E020
:100720008DEE92E00E941507CE010F96F80191839D
:1007300080836EE372E0CE010E942E081E82DF915C
:10074000CF911F910F91FF90EF90DF90CF90089580
:10075000EF92FF920F931F93CF93DF938C013FE3B0
:10076000E32E32E0F32EC0E0D0E0BE01C8010E94CB
:100770008608F70121917F01FC01808182130DC061
:100780002196C530D10589F76EE372E0C8010E9459
:100790002E08F801168281E001C080E0DF91CF9140
:1007A0001F910F91FF90EF90089590E0FC01319719
:1007B000E231F10508F04CC0EE58FF4F0C94660989
:1007C000809180008F7703C0809180008F7D80931F
:1007D0008000089580918000877FF9CF84B58F775E
:1007E00002C084B58F7D84BD08958091B0008F775D
:1007F00003C08091B0008F7D8093B00008958091F8
:1008000090008F7707C0809190008F7D03C080910A
:100810009000877F8093900008958091A0008F774B
:1008200007C08091A0008F7D03C08091A000877FCA
:100830008093A0000895809120018F7707C0809158
:1008400020018F7D03C080912001877F809320014C
:100850000895CF93DF9390E0FC01EE53FE4F249177
:10086000FC01E85FFD4F8491882349F190E0880FF7
:10087000991FFC01E859FD4FA591B491825B9D4FF2
:10088000FC01C591D4919FB7611108C0F8948C9177
:10089000209582238C93888182230AC0623051F490
:1008A000F8948C91322F309583238C938881822BFE
:1008B000888304C0F8948C91822B8C939FBFDF9126
:1008C000CF9108950F931F93CF93DF931F92CDB7CE
:1008D000DEB7282F30E0F901E458FE4F8491F9018A
:1008E000EE53FE4F1491F901E85FFD4F0491002390
:1008F000C9F0882321F069830E94D5036981E02F24
:10090000F0E0EE0FFF1FE25BFD4FA591B4919FB7A2
:10091000F8948C91611103C01095812301C0812B43
:100920008C939FBF0F90DF91CF911F910F910895EE
:10093000FC01818D228D90E0805C9F4F821B91098C
:100940008F7399270895FC01918D828D981731F04E
:10095000828DE80FF11D858D90E008958FEF9FEF58
:100960000895FC01918D828D981761F0828DDF01D1
:10097000A80FB11D5D968C91928D9F5F9F73928F92
:1009800090E008958FEF9FEF08958CE696E0892B15
:1009900041F08DED91E0892B21F00E946C068111D0
:1009A00025C080E090E0892B41F080E090E0892B29
:1009B00021F00E94000081111CC080E090E0892B92
:1009C00041F080E090E0892B21F00E94000081112D
:1009D00013C080E090E0892BA1F080E090E0892BAB
:1009E00081F00E94000081110AC008950E94DD017B
:1009F000D8CF0E940000E1CF0E940000EACF0C9403
:100A000000000895FC01848DDF01A80FB11DA35AD9
:100A1000BF4F2C91848D90E001968F739927848F1E
:100A2000A689B7892C93A089B1898C9180648C9315
:100A3000938D848D981306C00288F389E02D808100
:100A40008F7D80830895CF93DF93EC01888D882379
:100A5000C9F0EA89FB89808185FD05C0A889B9892B
:100A60008C9186FD0FC00FB607FCF5CF808185FF06
:100A7000F2CFA889B9898C9185FFEDCFCE010E9474
:100A80000205E7CFDF91CF910895CF92DF92FF92D9
:100A90000F931F93CF93DF931F92CDB7DEB76C01F7
:100AA000DC015B969C915B975C968C915C979813AC
:100AB00007C05096ED91FC915197808185FD32C021
:100AC000F601038D10E00F5F1F4F0F731127F02EFB
:100AD000F601848DF81211C00FB607FCF9CFD601CC
:100AE0005096ED91FC915197808185FFF1CFC60121
:100AF00069830E9402056981EBCF838DE80FF11DA8
:100B0000E35AFF4F6083D6015B960C935B97529636
:100B1000ED91FC91539780818062808381E05896AB
:100B20008C930DC0D6015696ED91FC91579760833A
:100B30005096ED91FC91519780818064808381E093
:100B400090E00F90DF91CF911F910F91FF90DF9078
:100B5000CF900895BF92CF92DF92EF92FF92CF9302
:100B6000DF93EC016A017B01B22EE889F98982E00A
:100B70008083411581EE580761057105A1F060E0A1
:100B800079E08DE390E0A70196010E94440921508D
:100B900031094109510956954795379527952115F2
:100BA00080E1380798F0E889F989108260E874E8F4
:100BB0008EE190E0A70196010E944409215031097D
:100BC000410951095695479537952795EC85FD853F
:100BD0003083EE85FF852083188EEC89FD89B082F5
:100BE000EA89FB89808180618083EA89FB89808131
:100BF00088608083EA89FB89808180688083EA89B4
:100C0000FB8980818F7D8083DF91CF91FF90EF9072
:100C1000DF90CF90BF9008951F920F920FB60F9262
:100C200011240BB60F922F938F939F93EF93FF9303
:100C3000E091FD02F091FE028081E0910303F091CA
:100C4000040382FD12C09081809106038F5F8F7331
:100C500020910703821751F0E0910603F0E0E35181
:100C6000FD4F958F8093060301C08081FF91EF9126
:100C70009F918F912F910F900BBE0F900FBE0F90F1
:100C80001F9018951F920F920FB60F9211240BB65A
:100C90000F922F933F934F935F936F937F938F9315
:100CA0009F93AF93BF93EF93FF938DEE92E00E94DB
:100CB0000205FF91EF91BF91AF919F918F917F912D
:100CC0006F915F914F913F912F910F900BBE0F90BD
:100CD0000FBE0F901F9018958DEE92E00E94980421
:100CE00021E0892B09F420E0822F08951092F00270
:100CF0001092EF0288EE93E0A0E0B0E08093F10262
:100D00009093F202A093F302B093F40289E492E08C
:100D10009093EE028093ED0285EC90E09093FA02BE
:100D20008093F90284EC90E09093FC028093FB02A4
:100D300080EC90E09093FE028093FD0281EC90E0C5
:100D4000909300038093FF0282EC90E09093020363
:100D50008093010386EC90E0909304038093030357
:100D600010920603109207031092080310920903D1
:100D7000089508950E94E2080E94B9060E94770132
:100D8000C5ECD4E00E94A4012097E1F30E94C504C1
:100D9000F9CFCF92DF92EF92FF920F931F93CF93F1
:100DA000DF936C017A01EB01E60EF71E00E010E024
:100DB000CE15DF0561F06991D601ED91FC910190AE
:100DC000F081E02DC6011995080F191FF1CFC80158
:100DD000DF91CF911F910F91FF90EF90DF90CF9017
:100DE00008956115710581F0DB010D900020E9F790
:100DF000AD0141505109461B570BDC01ED91FC91AF
:100E00000280F381E02D199480E090E00895DC01E8
:100E1000ED91FC91DB0114964D915C9115976D91CC
:100E20007C910280F381E02D19940C94F106DC0191
:100E3000ED91FC910190F081E02D19940F931F9397
:100E4000CF93DF93EC016DE00E9417078C016AE0FD
:100E5000CE010E941707800F911FDF91CF911F9144
:100E60000F9108950F931F93CF93DF93EC010E948E
:100E7000F1068C01CE010E941E07800F911FDF91A9
:100E8000CF911F910F9108958F929F92AF92BF9231
:100E9000CF92DF92EF92FF920F931F93CF93DF9346
:100EA000CDB7DEB7A1970FB6F894DEBF0FBECDBFAA
:100EB0007C01C42EE52FCB01D22E19A221E02D15E5
:100EC00010F02AE0D22E8E010F5D1F4F8D2C912C39
:100ED000A12CB12C6C2D7E2FA50194010E944409F8
:100EE0008C2DD29E80191124015011098A3014F4DE
:100EF000805D01C0895CF8018083211531054105C1
:100F0000510521F0C22EE32FCA01E4CFB801C70179
:100F10000E94F106A1960FB6F894DEBF0FBECDBFBA
:100F2000DF91CF911F910F91FF90EF90DF90CF90C5
:100F3000BF90AF909F908F9008952115310541F497
:100F4000DC01ED91FC910190F081E02D642F19946A
:100F50000C944407FC01808191810C94240ACF9366
:100F6000DF93EC0188819981009711F00E94240A97
:100F7000198218821D821C821B821A82DF91CF91F6
:100F800008950F931F93CF93DF93EC018B016F5F55
:100F90007F4F888199810E94B30A009731F099832D
:100FA00088831B830A8381E001C080E0DF91CF91B9
:100FB0001F910F910895CF93DF93EC018881998160
:100FC000892B29F08A819B818617970760F4CE01CF
:100FD0000E94C107882341F08C819D81892B19F4DF
:100FE000E881F981108281E0DF91CF910895EF923D
:100FF000FF920F931F93CF93DF93EC017B018A0144
:10100000BA010E94DB07811104C0CE010E94AF0724
:1010100007C01D830C83B701888199810E94D30B7F
:10102000CE01DF91CF911F910F91FF90EF90089526
:10103000FC011182108213821282158214826115C2
:10104000710559F0FB0101900020E9F7AF01415013
:101050005109461B570B0C94F7070895CF93DF9364
:10106000EC016115710561F0FB0101900020E9F7C9
:10107000AF0141505109461B570B0E94F70702C0B0
:101080000E94AF07CE01DF91CF910895EF92FF92BA
:101090000F931F93CF93DF93EC017B010C811D8194
:1010A0006115710511F480E016C04115510591F0EC
:1010B000040F151FB8010E94DB078823A1F32881C4
:1010C00039818C819D81B701820F931F0E94D30BC0
:1010D0001D830C8381E0DF91CF911F910F91FF90D1
:1010E000EF900895CF93DF931F921F92CDB7DEB795
:1010F00069831A8241E050E0BE016F5F7F4F0E941A
:1011000046080F900F90DF91CF910895FC018481E4
:1011100095816817790720F480819181009729F4DF
:1011200010928A038AE893E00895860F971F089526
:101130001F920F920FB60F9211242F933F938F930C
:101140009F93AF93BF9380918C0390918D03A09157
:101150008E03B0918F0330918B0323E0230F2D3743
:1011600020F40196A11DB11D05C026E8230F0296AB
:10117000A11DB11D20938B0380938C0390938D034D
:10118000A0938E03B0938F0380919003909191036D
:10119000A0919203B09193030196A11DB11D80937C
:1011A000900390939103A0939203B0939303BF9104
:1011B000AF919F918F913F912F910F900FBE0F9004
:1011C0001F901895789484B5826084BD84B5816041
:1011D00084BD85B5826085BD85B5816085BDEEE63F
:1011E000F0E0808181608083E1E8F0E0108280811E
:1011F00082608083808181608083E0E8F0E080818C
:1012000081608083E1EBF0E0808184608083E0EBAB
:10121000F0E0808181608083E1E9F0E0808182609C
:101220008083808181608083E0E9F0E0808181605B
:101230008083E1EAF0E08081826080838081816048
:101240008083E0EAF0E0808181608083E1E2F1E088
:10125000808182608083808181608083E0E2F1E030
:10126000808181608083EAE7F0E080818460808310
:1012700080818260808380818160808380818068BA
:1012800080831092C1000895A1E21A2EAA1BBB1BF5
:10129000FD010DC0AA1FBB1FEE1FFF1FA217B30742
:1012A000E407F50720F0A21BB30BE40BF50B661F58
:1012B000771F881F991F1A9469F76095709580951C
:1012C00090959B01AC01BD01CF010895EE0FFF1F6A
:1012D0000590F491E02D19940790F691E02D199462
:1012E0000F931F93CF93DF93869F8001879F100DED
:1012F000969F100D1124C8010E948C09EC010097E3
:1013000029F0A80160E070E00E94CC0BCE01DF91D3
:10131000CF911F910F910895CF93DF938230910564
:1013200010F482E090E0E0919603F091970320E0C2
:1013300030E0A0E0B0E0309739F1408151814817AA
:101340005907B8F04817590771F4828193811097B3
:1013500029F013969C938E9312972CC09093970329
:101360008093960327C02115310531F042175307AA
:1013700018F0A901DB0101C0EF019A01BD01DF01F5
:101380000280F381E02DD7CF21153105F9F0281B1C
:10139000390B2430310580F48A819B8161157105F8
:1013A00021F0FB019383828304C090939703809381
:1013B0009603FE01329644C0FE01E20FF31F8193B3
:1013C000919322503109398328833AC020919403A4
:1013D00030919503232B41F42091020230910302B6
:1013E00030939503209394032091000230910102E1
:1013F0002115310541F42DB73EB7409104025091BB
:101400000502241B350BE0919403F0919503E2173C
:10141000F307A0F42E1B3F0B2817390778F0AC0117
:101420004E5F5F4F2417350748F04E0F5F1F5093F4
:101430009503409394038193919302C0E0E0F0E020
:10144000CF01DF91CF910895CF93DF93009709F4F7
:1014500087C0FC01329713821282C0919603D0910B
:101460009703209781F420813181280F391F8091C3
:101470009403909195038217930779F5F093950360
:10148000E09394036DC0DE0120E030E0AE17BF07AB
:1014900050F412964D915C9113979D0141155105A1
:1014A00009F1DA01F3CFB383A28340815181840F24
:1014B000951F8A179B0771F48D919C911197840F4A
:1014C000951F02969183808312968D919C9113971C
:1014D000938382832115310529F4F0939703E093D8
:1014E00096033EC0D9011396FC93EE9312974D914B
:1014F0005D91A40FB51FEA17FB0779F480819181F4
:10150000840F951F0296D90111969C938E93828128
:10151000938113969C938E931297E0E0F0E08A817A
:101520009B81009719F0FE01EC01F9CFCE010296E4
:1015300028813981820F931F209194033091950364
:101540002817390769F4309729F4109297031092FD
:10155000960302C013821282D0939503C093940322
:10156000DF91CF9108956F927F928F929F92AF9269
:10157000BF92CF92DF92EF92FF920F931F93CF9380
:10158000DF93EC01CB01209781F4DF91CF911F9184
:101590000F91FF90EF90DF90CF90BF90AF909F9012
:1015A0008F907F906F900C948C09FE01E60FF71FCF
:1015B0009E0122503109E217F30708F4ACC0D901AB
:1015C0000D911C91119706171707B8F005301105FA
:1015D00008F49FC0A801445051094617570708F462
:1015E00098C002501109061B170B019311936D93BC
:1015F0007C93CF010E94240A8CC05B01A01AB10A1F
:101600004E01800E911EA0919603B0919703612C1C
:10161000712C60E070E0109709F449C0A815B90575
:10162000C9F5ED90FC901197670142E0C40ED11C02
:10163000CA14DB0478F147018A189B08640142E070
:10164000C40ED11C1296BC9012971396AC91B5E0C3
:10165000CB16D10440F0B282A38391828082D9015B
:101660008D939C9309C00E5F1F4F0E0D1F1DF90136
:1016700011830083EB2DFA2F6115710531F0DB0129
:101680001396FC93EE93129744C0F0939703E09364
:1016900096033FC06D917C9111976616770608F40A
:1016A0003B01BD0112960D90BC91A02DB4CF60916D
:1016B00094037091950368157905E9F46816790625
:1016C000D0F440910002509101024115510541F4BE
:1016D0004DB75EB76091040270910502461B570B2F
:1016E000E417F507C0F4F0939503E0939403F90130
:1016F000918380830EC00E948C097C01009759F071
:10170000A801BE010E94C30BCE010E94240AC7019A
:1017100004C0CE0102C080E090E0DF91CF911F9124
:101720000F91FF90EF90DF90CF90BF90AF909F9080
:101730008F907F906F9008951F93FC0199278827C1
:10174000BC01E89411911032E9F3193010F01E3009
:10175000C8F31B3251F01D3249F4689406C00E9450
:10176000DA0B610F711D811D911D119110531A30FB
:10177000B0F33EF490958095709561957F4F8F4FB3
:101780009F4F1F910895FB01DC0102C001900D9253
:1017900041505040D8F70895DC0101C06D9341508D
:1017A0005040E0F70895FB01DC0101900D9200200C
:1017B000E1F70895592F482F372F262F660F771FEF
:1017C000881F991F660F771F881F991F620F731F4D
:1017D000841F951F660F771F881F991F089512E0B9
:1017E000C6E8D2E000E006C022970109FE010BBF67
:1017F0000E946C09C838D10780E00807A9F7F8945F
:02180000FFCF18
:1018020000009803800052696E676C6963687420F7
:10181200626572656974210045696E67616265205F
:1018220045727761727465743A004C4544005641C2
:101832004C5545002B002D006572726F720D0052DF
:101842004553455400000000004505C9069804B1FF
:0618520004A304230500BD
:00000001FF
